S01A000064656D6F70726F675F73746D3332663035312E7372656399
S31508000000C80800201D150008330800083F09000825
S3150800001000000000000000000000000000000000D2
S31508000020000000000000000000000000430900086E
S315080000300000000000000000830E00087B13000883
S3150800004087130008FB140008071500087D1500082B
S315080000507F15000881150008831500088515000816
S3150800006087150008891500088B1500088D150008E6
S315080000708F150008911500089315000895150008B6
S315080000809715000899150008000000009B15000840
S315080000909D1500089F150008A1150008A31500085E
S315080000A0A5150008A7150008A9150008AB1500082E
S315080000B0AD15000800000000AF150008000000009C
S315080000C0EE11AA55F8B50400002738002078C007B5
S315080000D063D50C20AA490A680240042A06D00A6891
S315080000E0104008280BD10868C00308D5A548006841
S315080000F0800352D5606800284FD10120F1E160687D
S31508000100012806D19F480168802252020A430260EC
S3150800011024E06068002809D19A4801689A4A0A408A
S3150800012002600168994A0A40026017E0606805287B
S315080001300BD1944801688022D2020A430260016802
S31508000140802252020A43026008E08E4801688E4AFD
S315080001500A40026001688D4A0A4002606068002809
S315080001600DD000F0DDFA050086480068800314D437
S3150800017000F0D6FA401B6528F6D30320B1E100F05B
S31508000180CFFA05007F480068800306D500F0C8FA54
S31508000190401B6528F6D30320A3E1207880071CD5E9
S315080001A00C2077490A680240002A06D00A681040DF
S315080001B008282AD10868C00327D472480168890725
S315080001C004D5E168012901D001208AE10168F822F5
S315080001D091432269D2000A4302602078000755D568
S315080001E0E069002840D0BF4D2868012101432960F5
S315080001F000F096FA06002868800747D400F090FABF
S31508000200801B0328F7D303206BE1E068002819D088
S315080002105C4D286801210143296000F081FA060037
S315080002202868800706D400F07BFA801B0328F7D3DA
S31508000230032056E12868F82188432169C90001434B
S315080002402960CAE74F4D286801218843286000F0D5
S3150800025067FA060028688007BFD500F061FA801B98
S315080002600328F7D303203CE19E4D286801218843E3
S31508000270286000F055FA06002868800706D500F0C1
S315080002804FFA801B0328F7D303202AE104252068A8
S315080002902840002800D183E03E008020400592498E
S315080002A009680140002908D18F490A6802430A6093
S315080002B0096808400090009801268C4F3868C005E8
S315080002C012D43868802149000143396000F028FAC1
S315080002D000903868C00507D400F022FA0099401A41
S315080002E06528F6D30320FCE0A068012805D18048DC
S315080002F0016801220A43026021E0A068002809D1AA
S315080003007B480168012291430160016804229143F8
S31508000310016014E0A068052808D1754801682943DA
S315080003200160016801220A43026008E0704801681A
S315080003300122914301600168042291430160A0688B
S3150800034000280ED000F0ECF907006948006880071D
S315080003501ED400F0E5F9C01B66498842F5D3032090
S31508000360BFE000F0DDF907006148006880070FD597
S3150800037000F0D6F9C01B5F498842F5D30320B0E0E8
S315080003800410024000100240FFFFFEFFFFFFFBFFC4
S31508000390F6B2012E04D154480168AB4A0A400260FD
S315080003A02078C0061ED5606901283DD1A74E306861
S315080003B005433560306801210143316000F0B0F92A
S315080003C005003068800706D400F0AAF9401B032808
S315080003D0F7D3032085E03068F8218843A169C9006E
S315080003E001433160206A00287AD0994F38680C2179
S315080003F00140082972D0206A02285DD1954D2868E7
S3150800040095490140296000F08BF900908026B604D2
S315080004102868304000282DD000F082F90099401A4B
S315080004200328F3D303205CE00421C94360698842AA
S315080004300BD186480268114001600168F822914391
S31508000440A269D2000A430260CCE7804E30680543B1
S315080004503560306801218843306000F061F9050095
S3150800046030688007BED500F05BF9401B0328F7D338
S31508000470032036E0794801680F229143E26A0A436D
S315080004800260386893490140A06A0843616A0143DB
S3150800049039602868802149040143296000F040F941
S315080004A004002868304000281AD100F039F9001BEA
S315080004B00328F6D3032014E0664C206866490140F9
S315080004C0216000F02DF905002068800108D500F0AC
S315080004D027F9401B0328F7D3032002E0012000E098
S315080004E00020F2BD241002401C100240007000409B
S315080004F02010024089130000F3B581B000210125C0
S315080005007B4E31682940029A91420CD23168012209
S315080005109143029A0A43326031682940029A91420D
S3150800052001D001208FE00400022021680140002943
S3150800053006D047490A68F0239A43A36813430B6019
S3150800054021682940002952D06168012905D141480E
S315080005500068800311D4012075E06168022905D17D
S315080005603C480068800108D401206CE039490968D4
S315080005700840002801D1012065E0354F386803217D
S31508000580884361680143396000F0CAF800906068E2
S3150800059001280DD138680C210140042927D000F024
S315080005A0BFF80099401A53498842F3D303204AE01A
S315080005B0606802280DD138680C210140082916D038
S315080005C000F0AEF80099401A4A498842F3D303204E
S315080005D039E038680C210140002908D000F0A0F85D
S315080005E00099401A43498842F3D303202BE0029826
S315080005F03168294088420CD2306801218843029923
S3150800060001433160306805400298854201D00120D7
S3150800061019E02078400706D50D480168364A0A4091
S31508000620E1681143016000F01BF83449084A126872
S3150800063012091207120F895CC84031490860002068
S3150800064000F074F80020FEBDFFFFFFEF34100240F3
S315080006500410024000100240FFFFFFFE2C1002406B
S3150800066010B588B004A82749102200F071F868462A
S315080006702549102200F06CF800210800080008003F
S315080006800800224800680C210140042902D00829E4
S3150800069002D017E01E4C16E00F2104AA830C0B406B
S315080006A0D45C6A461B4B1B681940515CC00306D5CF
S315080006B0174800F067F8210004004C4301E016488B
S315080006C0444300E0124C200008B010BD0C480068F6
S315080006D070470000FFFFC2FF80B5FFF7F7FF0F491D
S315080006E00A4A1268120A5207520F895CC84002BDAC
S315080006F00020024089130000FFF8FFFF5415000888
S3150800070000000020341500084415000804100240B3
S3150800071000127A002C10024000093D0070150008EE
S3150800072001480068704700BFC000002010B50400EB
S31508000730FFF7CCFFFA21890000F024F800F0DCF876
S31508000740002221000020C04300F0D1F8002010BD8F
S3150800075070B4103A03D378C9103A78C0FBD253075D
S3150800076001D318C918C001D508C908C0D20704D3CF
S315080007700B880380891C801C002A01D50B7803701E
S3150800078070BC70470022030A8B420BD203098B42C6
S3150800079019D243088B422ED2411A00D20146524141
S315080007A010467047FF2209023FD012068B4205D336
S315080007B0121209028B4201D31212090203098B4253
S315080007C019D300E0090AC3098B4201D3CB01C01A29
S315080007D0524183098B4201D38B01C01A5241430906
S315080007E08B4201D34B01C01A524103098B4201D3F4
S315080007F00B01C01A5241C3088B4201D3CB00C01A61
S31508000800524183088B4201D38B00C01A52414308D8
S315080008108B4201D34B00C01A5241884200D3401A7A
S315080008205241CFD201461046704708B500F088F805
S3150800083008BDFEE7F0B5020052B2002A23D503220E
S315080008400F24374B05006DB22540083DAD08042638
S315080008507543060076B23440083CA408042674435F
S315080008601E59FF27BC461400044008277C436746E8
S31508000870A740BE438901C9B20240082042439140BD
S31508000880314359511AE0274A0323040064B2A408E5
S3150800089004256C431459FF251E00064008277E438D
S315080008A0B540AC438901C9B2034008256B4399405A
S315080008B0214340B28008042358431150F0BD80B547
S315080008C0411E80225204914201D301200EE0401EAF
S315080008D01549086003210020C043FFF7ABFF00203D
S315080008E012490860072012490860002002BD80B539
S315080008F040B2FFF79FFF01BD80B5FFF7E0FF02BDDD
S3150800090000B5042805D10A48016804220A43026092
S3150800091004E00748016804229143016000BD000015
S315080009201CED00E000E400E014E000E018E000E060
S3150800093010E000E080B500F001F801BD7047FEE761
S315080009407047FEE710B50400002C01D1012037E0FE
S31508000950A0690028FFD16920205C002805D1002065
S3150800096068216054200000F08BFA24206921605425
S31508000970206800680121884321680860200000F08B
S31508000980B7F8012801D101201AE0606A002802D0D0
S31508000990200000F071F9206840680A490140206883
S315080009A04160206880682A21884321688860206819
S315080009B000680121014320680160200000F0D0F999
S315080009C010BD0000FFB7FFFFFEB504001E0000279C
S315080009D038006A20205C202800D084E00D00002D15
S315080009E005D06846028068460088002801D10120A3
S315080009F07AE0A06880214901884207D12069002849
S31508000A0004D12800C00701D501206DE06820205CCC
S31508000A10012801D1022067E0012068216054E766B9
S31508000A2022206A216054FFF77BFE02906846008800
S31508000A3058216052684600885A216052A068802171
S31508000A40490188420AD12069002803D127485C2138
S31508000A50605210E0FF205C2160520CE0A06800287C
S31508000A6009D12069002803D1FF205C21605202E0E9
S31508000A707F205C2160525C20205A6946888007E006
S31508000A8028002168898C6A4692880A400280AD1C33
S31508000A905A20205A00281FD05A20205A401E5A2170
S31508000AA060520096029B00222021200000F098F94F
S31508000AB0002801D0032017E0A06880214901884258
S31508000AC002D120690028DBD02068808C6946898895
S31508000AD0014029706D1CDBE720206A2160546820DC
S31508000AE02754002000E00220FEBD0000FF010000A0
S31508000AF0F8B50400002108001022100008000800BC
S31508000B000D00A36826691E4367693743E3693B43BB
S31508000B1026683668904F37403B432668336023681B
S31508000B205B688E4E1E40E368334326687360A66989
S31508000B30236A33432668B668A54F37403B43266881
S31508000B40B3602368A34EB34214D1A34B1B689B071B
S31508000B509B0F002B05D0022B08D005D3032B01D001
S31508000B6006E00CE002210AE0042108E0082106E07C
S31508000B70110004E02368994EB34200D01100802288
S31508000B801202E36993423CD1C9B2002906D0022970
S31508000B900FD0042915D008291ED026E0FFF79CFDA2
S31508000BA0022148436168490840186168FFF7EAFD71
S31508000BB01CE060684008A44940186168FFF7E2FD38
S31508000BC014E0FFF74DFD02214843616849084018C3
S31508000BD06168FFF7D7FD09E060684008802149028F
S31508000BE040186168FFF7CEFD00E0012597490140EE
S31508000BF080B240084007400F084380B22168C860A9
S31508000C0037E0C9B2002906D0022910D0042919D024
S31508000C10082923D02CE0FFF75FFD616849084018D2
S31508000C206168FFF7AFFD80B22168C86021E060689F
S31508000C304008874940186168FFF7A4FD80B221681B
S31508000C40C86016E0FFF70CFD61684908401861683E
S31508000C50FFF798FD80B22168C8600AE0606840081E
S31508000C6080186168FFF78EFD80B22168C86000E0D1
S31508000C7001252800C0B2F2BD00B52421415CC90790
S31508000C8007D501684968734A0A40816A11430268B0
S31508000C9051602421415C890707D5016849686E4A75
S31508000CA00A40C16A1143026851602421415C490720
S31508000CB007D501684968694A0A40016B1143026809
S31508000CC051602421415C090707D501684968644ACF
S31508000CD00A40416B1143026851602421415CC906F0
S31508000CE007D5016889685F4A0A40816B1143026823
S31508000CF091602421415C890607D5016889685A4AAA
S31508000D000A40C16B1143026891602421415C49067F
S31508000D1014D501684968554A0A40016C11430268AE
S31508000D205160016C80225203914207D101684968DB
S31508000D304F4A0A40416C1143026851602421415CC4
S31508000D40090607D5016849684A4A0A40816C114371
S31508000D500068416000BD0000F369FFFFFFCFFFFF99
S31508000D607CB5040000252800E566FFF7D9FC0600D7
S31508000D7020681849884221D12068006800070CD5E8
S31508000D803D4800903300002280218903200000F0AE
S31508000D9027F8002801D0032018E0206800684007DB
S31508000DA00CD535480090330000228021C903200065
S31508000DB000F016F8002801D0032007E0202069215A
S31508000DC060546A21605468202554002076BD0000CE
S31508000DD0FFF4FFFF00380140301002400044004095
S31508000DE0F4B504000D001F00069E2068C06928405F
S31508000DF0A84201D1012000E000206946097888420E
S31508000E0020D10020C0438642EFD0002E04D0FFF741
S31508000E1087FCC01B8642E8D2206800681749014053
S31508000E2020680160206880680121884321688860FD
S31508000E302020692160546A2160540020682160548A
S31508000E40032000E00020F2BD0024F400F0FF0000BB
S31508000E5000127A00FFFFFDFFFFFFFEFFFFFFFBFF0B
S31508000E60FF7FFFFFFFEFFFFFFFDFFFFFFFFFEFFF44
S31508000E70FFFF9FFFFFFFF7FFFFFFFF015FFEFFFF7B
S31508000E807047FEE7F8B5020000230020002032E094
S31508000E90052403E0724CA242FAD134001F003E40FA
S31508000EA004277E43B44004436E489E0804277E43C5
S31508000EB084516D4C2068A8434E68F60300D5284334
S31508000EC020606A4C2068A8434E68B60300D52843BC
S31508000ED02060674C2068A8434E68F60200D5284370
S31508000EE02060644C2068A8434E68B60201D50543C5
S31508000EF0280020605B1C0868D840002800D1AEE0B6
S31508000F000124086825009D400540002DF2D0486858
S31508000F10022802D0486812281ED1D8080426704331
S31508000F201018076A072000970F26B4461F000740C7
S31508000F30042677436646BE40009FB743BC460E6903
S31508000F401F00384004277843864067463E43D80842
S31508000F50042778431018066217680326BC461F0044
S31508000F60022047433000B8406746874300974868E1
S31508000F70304084461F00022047436046B840009F21
S31508000F80384310604868012808D04868022805D008
S31508000F904868112802D0486812281DD19768BC46AF
S31508000FA01F00022047433000B84067468743009732
S31508000FB0C86884461F00022047436046B840009F21
S31508000FC0384390605768200098408743486800096E
S31508000FD02040984038435060D768BC461F0002201E
S31508000FE047433000B8406746874300978868844679
S31508000FF01F00022047436046B840009F3843D06030
S315080010004868C00000D475E720480768274307608A
S315080010100068204000900098124884469F080420E3
S3150800102047436046C05900900F27BC461F00300052
S31508001030384004277843674687400098B843902786
S31508001040FF05BA4201D1002428E7114FBA4200D160
S3150800105024E7104CA24200D01CE702241EE7F1BD8B
S31508001060000C004808000140000401400404014047
S31508001070080401400C04014000B5D2B2002A02D08F
S3150800108089B2816101E089B2816200BD181002400F
S31508001090000400480008004880B500F007F800F092
S315080010A097F800F01BF900F097F8FAE780B500F01A
S315080010B03DF900F005F800F009F900F047F901BD1F
S315080010C038B590B0012004900520059002240C94B0
S315080010D0802040020D90802040030E9000250F9539
S315080010E004A8FEF7EFFF002800D0FEE707200090CF
S315080010F001940295039501216846FFF7FDF900283A
S3150800110000D0FEE711B030BD38B586B001242748B7
S315080011100168214301600068204000900098802003
S31508001120800223490A6802430A600A68024000925C
S31508001130009A802212030B6813430B6009680A4061
S31508001140009200991B490A6802430A600968084028
S3150800115000900098002200210420C043FFF7C7FB37
S31508001160002200210120C043FFF7C1FB0022002115
S315080011700020C043FFF7BBFB80208000019002944B
S3150800118000250395049501A90B48FFF77BFE0C2063
S31508001190019002200290039503200490059401A96A
S315080011A09020C005FFF76EFE07B030BD181002404C
S315080011B0141002401C1002400008004800B5BFF396
S315080011C04F8F3A483A490860BFF34F8F00BFFDE793
S315080011D080B500F009F801BD80B500F019F801BD29
S315080011E080B5FFF7EBFF01BD80B532483249016093
S315080011F0E1210902416000218160C16001610C2280
S3150800120042618161C16101624162FFF79BFB01BDD9
S3150800121070B52A4C2078002815D1294D280000F0F1
S3150800122037F8012833D12878002830D02878412883
S315080012302DDA00F09EF8234908600120207000206E
S315080012402149087023E0204D1D4E28783018401C8F
S3150800125000F01EF8012811D12878401C287028783B
S315080012603178884213D1002020707078FF280ED17B
S31508001270287802280BD1FFF7B3FF08E000F079F8C9
S31508001280104909686431814201D20020207070BD7E
S3150800129080B50100002301220648FFF795FBC0B27E
S315080012A0002801D1012000E0002002BD0400FA0553
S315080012B00CED00E00400002000440040C5000020BA
S315080012C074000020B8000020C400002080B5002269
S315080012D0802189001248FFF7CFFE01BD38B500F01E
S315080012E048F804000F4D2868201AFA214900884258
S315080012F015D30D480178002908D101210170012272
S31508001300802189000648FFF7B7FE07E00021017033
S315080013100022802189000248FFF7AEFE2C6031BD0D
S3150800132000080048BC000020C600002080B506481A
S31508001330016810220A4302600020FFF7F7F9FFF759
S31508001340E3FE002002BD00000020024080B5FFF742
S31508001350BDF9FA218900FFF715FAFFF7CDFA04203F
S31508001360FFF7CEFA002200210020C043FFF7BFFA9C
S3150800137001BD80B5FFF7D4F902BD80B500F004F8C9
S31508001380FFF7D8FA01BDFEE702480168491C01606B
S31508001390704700BFC00000201448016801220A43B4
S315080013A0026013490A68134B13400B600268124B1C
S315080013B0134003600268114B134003600868104A23
S315080013C002400A600F4801680F22914301600E48E7
S315080013D001680E4A0A4002600D48016801229143DD
S315080013E0016000200B4908607047000000100240A9
S315080013F0041002400CB8FFF8FFFFF6FEFFFFFBFFE4
S31508001400FFFFC0FF2C10024030100240ACFEFFFF69
S31508001410341002400810024070B40123002413E07F
S315080014200168001D194202D04D466D1E49190C600F
S31508001430091D121F042AFAD20D00960701D50C8041
S31508001440AD1C1A4000D02C700268001D002AE7D196
S3150800145070BC704730B401220168001D00290FD006
S315080014600368C31844680830144202D04D466D1EFE
S3150800147064191D6825601B1D241D091FECD0F8E79B
S3150800148030BC704710B5074979441831064C7C447E
S31508001490163404E0081D0A68891888470100A14225
S315080014A0F8D110BD08000000280000006DFFFFFFFE
S315080014B0C4000000040000200000000099FFFFFFA0
S315080014C004000000B4000000000000200000000036
S315080014D000F00DF8002801D0FFF7D4FF00BF00BFC9
S315080014E0002000BF00BFFFF7D7FD00F002F801207B
S315080014F0704780B500F002F801BDFEE7074638469A
S3150800150000F002F8FBE7FEE780B500BF00BF024A1D
S3150800151011001820ABBEFBE72600020002488546EC
S315080015200248804702480047C80800209913000867
S315080015306515000802030405060708090A0B0C0DC1
S315080015400E0F10100102030405060708090A0B0C02
S315080015500D0E0F1000000000000000000102030439
S315080015600607080900BF00BF00BF00BFFFF7B0FFAE
S31508001570000000000102030400127A00FEE7FEE7FD
S31508001580FEE7FEE7FEE7FEE7FEE7FEE7FEE7FEE725
S31508001590FEE7FEE7FEE7FEE7FEE7FEE7FEE7FEE715
S315080015A0FEE7FEE7FEE7FEE7FEE7FEE7FEE7FEE705
S7050800156578
