S01900006F70656E626C745F73746D3332663035312E7372656303
S31508000000200D0020891D0008230900089F0A000802
S3150800001000000000000000000000000000000000D2
S31508000020000000000000000000000000BF0A0008F1
S315080000300000000000000000FB0E00089D0A0008F2
S31508000040F31400084B1A0008571D0008631D000822
S31508000050BD1D0008BF1D0008C11D0008C31D0008FE
S31508000060C51D0008C71D0008C91D0008CB1D0008CE
S31508000070CD1D0008CF1D0008D11D0008D31D00089E
S31508000080D51D0008D71D000800000000D91D00086E
S31508000090DB1D0008DD1D0008DF1D0008E11D000846
S315080000A0E31D0008E51D0008E71D0008E91D000816
S315080000B0EB1D000800000000ED1D00080020C043ED
S315080000C086490860864908607047F8B504000F003D
S315080000D01500844E90203058942171584018401EBF
S315080000E0001B791E884201D200201FE0200000F084
S315080000F0CAF9FF2805D0E019401E00F0C4F9FF2808
S3150800010001D1002012E0600A8021890048432A00B4
S315080001103168884205D13B002100714800F0E4F8B7
S3150800012004E03B0021006D4800F0DEF8F2BD70B532
S3150800013004000E006B4890214158942280580818F4
S31508000140401E001B711E884201D2002017E02000C5
S3150800015000F099F90500A019401E00F094F929004D
S31508000160C9B2FF2903D00100C9B2FF2901D1002075
S3150800017005E00100C9B22800C0B200F02CF970BD34
S3150800018080B500200090564801680022D24391426B
S3150800019001D1012028E00099426889180091009948
S315080001A08268891800910099C26889180091009997
S315080001B00269891800910099426989180091009985
S315080001C08269891800910099C069081800900098FA
S315080001D0C14300910098401C00906A46042141489A
S315080001E00068C030FFF771FF02BD00B500213D4829
S315080001F00268126889180268121D1268891802684E
S3150800020008321268891802680C321268891802685E
S31508000210103212688918026814321268891802683E
S315080002201832126889180068C03000680818002853
S3150800023001D1012000E0002000BD10B50024E443F0
S3150800024027480168A14205D000F094F8002801D19A
S3150800025000200AE021480168A14205D000F08AF88A
S31508000260002801D1002000E0012010BD1D480068CB
S31508000270704780B5CA05D20D002A01D000200BE0D0
S3150800028002688A4201D1012006E0016080229200BC
S31508000290001D00F09EF9012002BD38B505000C00CE
S315080002A00F48854208D10D4D21002800FFF7E1FFD0
S315080002B000280FD100200EE00A490A68944202D1AC
S315080002C005000C68F0E7280000F054F80028EBD188
S315080002D0002000E0280032BD0000000008000020D1
S315080002E00C020020B41A0008F8B504000D00160028
S315080002F01F00680A80218900484300902068002171
S31508000300C943884207D100992000FFF7B2FF0028A9
S3150800031001D100202BE020680099884208D0009976
S315080003202000FFF7BAFF0400002C01D100201EE0D0
S3150800033030002168691A61180E1D050000F05EF983
S3150800034080208000211D711A814208D3009909185E
S315080003502000FFF7A2FF0400002C09D0261D2878EC
S315080003603070761C6D1C7F1E002FE7D10120F2BD70
S315080003700020FCE7F8B507000125386800F083F887
S31508000380C0B2FF2801D1002024E000F087F900243C
S3150800039004E000980068B04217D1641C802C15D27E
S315080003A038680421614340180090042060433818D7
S315080003B0466800F023F9320000230099022000F075
S315080003C021F90028E5D0002500E0002500F07AF99B
S315080003D02800C0B2F2BDF0B585B00F0001252C008B
S315080003E00021019139000200C9B2D2B2914200D26D
S315080003F00024574902000B7AD2B29A4205D39822B2
S31508000400895C3A00D2B2914200D200242100C9B2D6
S31508000410012934D1C0B200F05FF806003800C0B236
S3150800042000F05AF8010000913800C0B200F072F8E6
S3150800043000990818401E801B401C800A69460880DF
S31508000440002702970396049500F028F93D0005E079
S3150800045003988021C900401803906D1C280069463E
S31508000460098880B2884208D200F0C8F801A902A813
S3150800047000F094F90028EBD03C0000F023F92000A6
S31508000480C0B205B0F0BD38B50400002500E06D1C0B
S315080004902800C0B20D281DD200F0B0F82C4829005B
S315080004A0C9B20C22514341588C42F0D32900C9B233
S315080004B00C22514341582A00D2B20C235A438218BF
S315080004C0526889188C42E2D2EDB20C214D4340198C
S315080004D0007A00E0FF2032BD38B50400002500E0B0
S315080004E06D1C2800C0B20D2811D200F087F81848F4
S315080004F02900C9B20C2251434118097A2200D2B206
S315080005009142EDD1EDB20C214D43405901E0002056
S31508000510C04332BD38B50400002500E06D1C280034
S31508000520C0B20D2812D200F069F809482900C9B2EC
S315080005300C2251434118097A2200D2B29142EDD1D8
S31508000540EDB20C214D434019406800E0002032BD51
S31508000550B41A000881B008490A6802430A600968A3
S3150800056008400090009801B0704704490A680323C0
S315080005709A43104308607047181002400000014073
S3150800058080B500F08BF901BD10B500F097F9002889
S315080005901ED000F0AFF900281AD000F0DDF900F0FF
S315080005A02EFA00F054FA0120FFF7D4FF00F08AF97A
S315080005B0C02201008020800500F00BF80320FFF719
S315080005C0D4FF00F07FF9001D046800F069F9A04720
S315080005D010BD70B514000D00060005E028783070CF
S315080005E06D1C761C00F00AF82000441E80B2002814
S315080005F0F4D170BD80B500F08BF901BD80B500F06F
S315080006008CF901BDF3B581B0040016001F00012561
S315080006102800002000202F48017E012901D1022050
S315080006203BE018300090280000990870304800F028
S3150800063061F80100C9B200292BD1012C04D0022C83
S3150800064001D1022500E00425002400E0641C2100F5
S315080006502A00C9B2D2B291421BD230003900102208
S31508000660624300F01DFA010089B202982200D2B254
S3150800067002235A43801800F02FF81D4800F03AF874
S3150800068040490A6801239A430A600100C9B2002951
S31508000690DCD00021009A1170C0B2FEBD10B5002052
S315080006A08021384A13680B40002B09D0374B384C49
S315080006B01C60384C1C6012681140002900D00120CB
S315080006C0C0B210BD2F48016880220A43026000208C
S315080006D070470000E004002010B400222E4BDA61B7
S315080006E0284A136801241C431460018010BC704713
S315080006F050C3000038B5040000F0CCF905002248C4
S315080007000168C9070CD50020C0438442F7D0002CE5
S3150800071004D000F0BFF9401B8442F0D2032010E059
S31508000720202102680A40002A00D001600168C90633
S3150800073002D40068400703D500F004F8012000E061
S31508000740002032BD30B5002010220F490B68134037
S31508000750002B07D0104BDC6902252543DD61030019
S315080007601000184304230A681A40002A07D00A4AC8
S31508000770D46901252543D561020018001043086095
S3150800078030BD0000102002400C2002400420024028
S3150800079023016745AB89EFCDE0040020FEB50D00C7
S315080007A001210C0000273A002E4A137E012B01D1A5
S315080007B0022049E00090100018300190019801705D
S315080007C000980068012811D1274D2800FFF792FFED
S315080007D0002835D100F039F82800FFF78BFF040010
S315080007E02248016804229143016029E01E48FFF768
S315080007F081FF002824D102950020C0430299086091
S315080008000098456800E0AD198026F60000988068D3
S315080008107043009949684018854211D2280000F0B3
S3150800082027F81148FFF766FF0400104801680222FE
S31508000830914301602000C0B20028E4D00298056008
S31508000840019807702000C0B2FEBD00200549C861A6
S315080008500648016804220A430260016840220A43E6
S3150800086002607047E004002050C3000010200240D8
S315080008700021074AD16107490A68022313430B601E
S31508000880054A10600868402202430A607047000063
S31508000890E0040020102002401420024072B670477F
S315080008A062B6704780B5FFF709FC01BD80B5FFF752
S315080008B00CFC02BD80B5FFF73AFC02BD80B5FFF718
S315080008C094FC02BD80B5FFF7D1FC02BD80B5FFF7E9
S315080008D057FC002801D1002001E0FFF7AEFC02BD5D
S315080008E000B500690840884201D1012000E00020D7
S315080008F0C0B200BD80B501219020C005FFF7F0FF0A
S31508000900002801D0002002E000F002F9012002BD13
S3150800091080B5642000F0D8F801BD80B500F0D7F89E
S3150800092001BDFEE780B500F003F900F0FEFA0020ED
S315080009302549087001BD1CB5244C6946200000F005
S315080009402CFB012807D100201F490870684601784A
S31508000950200000F009F913BD704780B51A4A1278CD
S31508000960002A02D1C9B200F0F7FA00F0F9F801BD81
S3150800097000B515480078002805D0022807D004D30A
S31508000980032806D007E0402006E0002004E0002007
S3150800099002E0002000E0402080B200BD00B50A4811
S315080009A00078002805D0022807D004D3032806D0EB
S315080009B007E0402006E0002004E0002002E00020D6
S315080009C000E0402080B200BD04000020A004002002
S315080009D010B5002400F0BBF8002800D00124200040
S315080009E0C0B210BD80B50E48016810220A430260E5
S315080009F0002000F04DFB00F02DFC002002BD80B564
S31508000A0008480021C94301600022026006480160C7
S31508000A10026006480160026000F057FC002002BD33
S31508000A2000200240101002400C100240281002401C
S31508000A3080B500F00CF812481249086000201249E7
S31508000A4008600521114A11601149086001BD00209E
S31508000A500E4908600B4908600B490860704700B5E5
S31508000A600A480068C00303D509480168491C0160A3
S31508000A7000BD80B5FFF7F3FF0548006802BD00001A
S31508000A807FBB000014E000E018E000E010E000E0A2
S31508000A901005002080B5FFF7ECFF02BD7047FEE7A2
S31508000AA0D2B2203A03D30800D04000217047203242
S31508000AB0D141D04048409140D14048407047FEE778
S31508000AC0816170478162704715490880704710B583
S31508000AD0FFF7CFFF134C2168884218D312480178D4
S31508000AE0002907D101210170802149000F48FFF72D
S31508000AF0E7FF06E000210170802149000B48FFF757
S31508000B00E1FFFFF7B6FF064909884018206010BDC7
S31508000B1080B5802149000548FFF7D4FF01BD0000D4
S31508000B2014050020080500201705002000080048C5
S31508000B300020B74902000A70886402004323CA5499
S31508000B4002004423CA5202008A704870704700B5F2
S31508000B50AF480078002801D1002000E0012000BD40
S31508000B600020BB490870704710B50178FF2916D1D7
S31508000B7000F08AF8A64C4320205C012802D11020F8
S31508000B8000F07AF84420205E012807DB0120432183
S31508000B9060544420215EE01C00F052F810BD9C49C8
S31508000BA0097801294BD10178C92932D0CC293FD0FF
S31508000BB0CF293AD0D0292FD0D12933D0D2292ED037
S31508000BC0F32917D0F4290FD0F5290AD0F6290ED023
S31508000BD0FA2912D0FC2913D0FD2914D0FE2915D0E4
S31508000BE029E000F0B0F8C5E700F0CCF8C2E700F05D
S31508000BF0A1F8BFE700F0E9F8BCE700F08AF8B9E722
S31508000C0000F082F8B6E700F071F8B3E700F062F892
S31508000C10B0E700F0FFF8ADE700F01CF9AAE700F02E
S31508000C20E5F8A7E700F044F9A4E700F053F9A1E7CF
S31508000C3000F05EF99EE7202000F01EF89AE7ADE77F
S31508000C4080B589B2FFF789FE01BDF8B504000D002D
S31508000C501700002604E020783618641CFFF7CEFC3F
S31508000C602800451E0028F6D1F6B23E600120F2BDE6
S31508000C7000206749487070476549FE22CA700871A6
S31508000C80022044228852704738B5FFF7F1FF604CBE
S31508000C9001252570FF20E0700020211D08702279AB
S31508000CA0102313430B70611D087060790870FFF7F5
S31508000CB05FFEA071FFF772FEE071FFF76FFE80B26C
S31508000CC0000A20726572A572082044216052FFF757
S31508000CD0E9FD31BD10B54E4C00202070FFF7C8FF66
S31508000CE0FF20E07001204421605210BD4848FF21D2
S31508000CF0C17000210171427842718171C17101721E
S31508000D00062144228152704780B50020FFF7B4FFC0
S31508000D1001BD3F48FF21C1707349816400210171FB
S31508000D20417181710721C01C4160C01E08214422FF
S31508000D30815270473649FF22CA704068886401208C
S31508000D4044228852704738B50500FFF711FE80B275
S31508000D50401E6978884203DA2220FFF78DFF10E0EB
S31508000D606A782B4C201D92B2A16CFFF732FCFF204B
S31508000D70E070A06C69784018A0646878401C44212B
S31508000D80605231BD70B50500FFF7F2FD80B2401E16
S31508000D906978884203DA2220FFF76EFF14E01C4CBC
S31508000DA026004836686830606A78201D92B2A16CC1
S31508000DB0FFF70FFCFF20E070A06C697840183060E0
S31508000DC06878401C4421605270BD10B5104CFF2154
S31508000DD0E170E21D4168A06CFFF737FF2071002023
S31508000DE06071A07108204421605210BD38B5084CC6
S31508000DF0FF20E070002525716571FFF7B9FDA07128
S31508000E00E5712572657207204421605231BD0000E4
S31508000E101004002038B50500FFF7AAFD334C6A1CFC
S31508000E2080B2411EA06CFFF741FD002803D1312096
S31508000E30FFF722FF0BE0FF20E070FFF799FDA16C9A
S31508000E4080B2401E0818A06401204421605231BDBA
S31508000E505304002038B50500FFF78AFD80B2801ECE
S31508000E606978884203DA2220FFF706FF1FE01F4C45
S31508000E70FF20E0700120442160526878002807D1DD
S31508000E80FFF724FD002802D13120FFF7F5FE0EE01A
S31508000E90AA1C6978A06CFFF709FD002803D1312048
S31508000EA0FFF7EAFE03E0A06C69784018A06431BD3C
S31508000EB010B50E4C4168A06CFFF7FCFC002803D166
S31508000EC03120FFF7D9FE04E0FF20E070012044211D
S31508000ED0605210BD80B5FFF757FB0448FF21C1706B
S31508000EE001214422815201BDAC1D000810040020D6
S31508000EF080B53120FFF7C0FE01BDFEE7016801227B
S31508000F000A4302607047C06941090800C007C00F5C
S31508000F107047C069C1090800C007C00F7047808CB8
S31508000F20C0B27047C9B20185704718B587B0E120CD
S31508000F300002009000200190029003900C21049179
S31508000F40059006904C4C6946200000F028FA2000CF
S31508000F50FFF7D4FF08B010BD70B504000D002800D7
S31508000F60C0B2412803DB8121444800F061FA280019
S31508000F70C0B200F06AF8002607E0FFF73FFB300032
S31508000F8080B2205C00F061F8761C30002900C9B2F6
S31508000F9080B289B28842F0D370BDF8B507000E005A
S31508000FA037480078002816D1364C200000F03CF867
S31508000FB0012837D12078002834D02078412831DA22
S31508000FC0FFF757FD304908600020304908700120B6
S31508000FD02B49087026E02D4C2A4D20782818401CED
S31508000FE000F022F8012813D12078401C20702078C0
S31508000FF02978884216D13800227892B2691CFFF700
S31508001000E8FA00201E4908702078307001200AE0AE
S31508001010FFF72FFD1C4909686431814202D200207E
S31508001020174908700020F2BD70B504000025124E5D
S315080010303000FFF768FF002804D03000FFF76FFF85
S31508001040207001252800C0B270BD38B501000A4DD0
S31508001050C9B22800FFF766FFFFF70BFD04000A3444
S315080010602800FFF756FF002805D1FFF7C7FAFFF754
S3150800107000FD8442F4D231BD004400402C1C000817
S31508001080190500205C0400200C0500201805002026
S3150800109010B5040000F0D0F9FA21890000F0D2F961
S315080010A000F08AFA002221000020C04300F07FFAEF
S315080010B0002010BD954801688022D2020A430260CA
S315080010C0704792480168802252020A4302607047BC
S315080010D08E480068410C0800C007C00F70478C494D
S315080010E00A6803239A4310430860704788480168D2
S315080010F00C200840704786490A68F0239A43104333
S315080011000860704782490A68824B13401843086092
S3150800111070477E480168802252040A43026070477D
S315080011207A480068410E0800C007C00F704710B41F
S31508001130774A1368784C1C4080235B02034023439C
S315080011401943116075490A680F239A430007000F6F
S315080011501043086010BC704781B071490A680243A1
S315080011600A60096808400090009801B070476C4909
S315080011700A6882430A60704781B06A490A6802436E
S315080011800A60096808400090009801B070476549F0
S315080011900A6882430A60704781B063490A68024355
S315080011A00A60096808400090009801B070475E49D7
S315080011B00A6882430A6070475C490A6801239A43B1
S315080011C0104308607047594801680800C007C00FF7
S315080011D070478162704780B500F005F800F0FAF9AB
S315080011E000F006FAFCE780B5FFF7FCFB00F001F813
S315080011F001BD80B50120FFF7DFFFFFF7E4FF0128F7
S3150800120003D067214A4800F013F9FFF753FFFFF7A9
S3150800121058FFFFF75DFF0128FBD180214903802095
S315080012204002FFF784FFFFF774FFFFF779FF0128F5
S31508001230FBD10020FFF75FFF0020FFF763FF0220C6
S31508001240FFF74DFFFFF752FF0828FBD1394800F09A
S31508001250D9F901BDF8B586B00120FFF79DFF8024B6
S31508001260A4022000FFF778FF80200003FFF774FF31
S315080012702000FFF781FF80277F0000970124019453
S3150800128000250295039504952B4E6946300000F01B
S3150800129066FA39003000FFF79CFF00940195049523
S315080012A09026F6056946300000F059FA0C200090A1
S315080012B0022001900320029003950495059469463F
S315080012C0300000F04CFA07B0F0BD10B500F0F3FAA4
S315080012D0194C802149002000FFF77BFF200000F011
S315080012E0FBF99020C00500F0F7F98024A40220003D
S315080012F0FFF74DFF80200003FFF739FF2000FFF7B7
S3150800130036FF0120FFF753FF10BD00000010024012
S3150800131004100240FFF8FFFFFFFFC2FF2C10024037
S31508001320141002401C10024018100240002002400F
S31508001330D01B0008006CDC020008004801680800A1
S31508001340C007C00F70474268334B134019434160CA
S3150800135070478268314B134019438160704730B536
S3150800136004000800190000252B0080231B029A425E
S315080013700ED1022250434A08801800F063F880B262
S315080013802749014040084007400F0143E16005E056
S315080013904A08801800F056F880B2E06030BDFEB505
S315080013A007000C0000252E003800FFF7C7FF0028AD
S315080013B02ED138681D49014060680843E168014339
S315080013C020690843A16901433960A1683800FFF71D
S315080013D0BAFF61693800FFF7BCFF1248874204D19B
S315080013E0002000F0A0FA050006E00F48874203D166
S315080013F0684600F08AFA029D002D09D02068002868
S3150800140006D001262368A26929003800FFF7A7FF3E
S315080014103000C0B2FEBD0000FFCFFFFFFFFCFFFF9C
S31508001420F0FF00000038014000440040F369FFFF68
S3150800143080B5FFF7E3F8FCE701480068704700004D
S31508001440000000200022030A8B420BD203098B42BC
S3150800145019D243088B422ED2411A00D20146524174
S3150800146010467047FF2209023FD012068B4205D369
S31508001470121209028B4201D31212090203098B4286
S3150800148019D300E0090AC3098B4201D3CB01C01A5C
S31508001490524183098B4201D38B01C01A5241430939
S315080014A08B4201D34B01C01A524103098B4201D327
S315080014B00B01C01A5241C3088B4201D3CB00C01A94
S315080014C0524183088B4201D38B00C01A524143080C
S315080014D08B4201D34B00C01A5241884200D3401AAE
S315080014E05241CFD201461046704708B500F0ACFA13
S315080014F008BDFEE7F0B5020052B2002A23D5032242
S315080015000F242F4B05006DB22540083DAD08042673
S315080015107543060076B23440083CA4080426744392
S315080015201E59FF27BC461400044008277C4367461B
S31508001530A740BE438901C9B20240082042439140F0
S31508001540314359511AE01F4A0323040064B2A40820
S3150800155004256C431459FF251E00064008277E43C0
S31508001560B540AC438901C9B2034008256B4399408D
S31508001570214340B28008042358431150F0BD80B57A
S31508001580411E80225204914201D301200EE0401EE2
S315080015900D49086003210020C043FFF7ABFF002078
S315080015A00A49086007200A490860002002BD80B57C
S315080015B040B2FFF79FFF01BD80B5FFF7E0FF02BD10
S315080015C01CED00E000E400E014E000E018E000E0B4
S315080015D010E000E080B5FEF7D3FFFFF70BF8FFF742
S315080015E027FAFFF75FF9FFF79DF900F02FFA01BD1B
S315080015F080B5FFF703F8FFF732FAFFF79CF900F01A
S315080016002EFA01BD0149086070470000000000205D
S3150800161030B403680C004C4303256C43A3430C0009
S315080016204C4354431C43046030BC704743688B43A7
S31508001630514319434160704730B483680C004C43EA
S3150800164003256C43A3430C004C4354431C4384605A
S3150800165030BC704730B4C3680C004C4303256C4358
S31508001660A3430C004C4354431C43C46030BC70472E
S3150800167030B4036A0C004C434C434C430F256C436F
S31508001680A3430C004C434C434C4354431C43046251
S3150800169030BC704730B4446A0B0A0D0A6B430D0A16
S315080016A06B430D0A6B430F256B439C430B0A0D0ACC
S315080016B06B430D0A6B43090A4B4353432343436267
S315080016C030BC704747490A68104308607047454967
S315080016D00A6882430A60704738B501249021C90513
S315080016E0884208D18025AD022800FFF7EBFF2800C5
S315080016F0FFF7EDFF30E03C49884208D18025ED022E
S315080017002800FFF7DFFF2800FFF7E1FF24E037494D
S31508001710884208D180252D032800FFF7D3FF28002B
S31508001720FFF7D5FF18E03249884208D180256D03B6
S315080017302800FFF7C7FF2800FFF7C9FF0CE02D496F
S31508001740884208D18025ED032800FFF7BBFF280053
S31508001750FFF7BDFF00E000242000C0B232BDF8B597
S3150800176007000D00002006002BE06A6921003800FA
S31508001770FFF790FF24E028680124B4400440002CB9
S315080017801ED06A6821003800FFF742FF6868012802
S3150800179002D06868022804D1AA6821003800FFF739
S315080017A04BFF2A6921003800FFF754FF68680228B2
S315080017B006D1FF2CD9D86A6921003800FFF758FFEF
S315080017C0761C2868F0400028D5D16868012802D020
S315080017D06868022804D1EA6829683800FFF726FFF6
S315080017E00120F2BD28100240000400480008004805
S315080017F0000C00480014004885480168854A0A40DC
S31508001800026070478248016801220A4302607047F5
S315080018107F48006841080800C007C00F70477C4928
S315080018200A68F8239A43C0001043086070477A484C
S3150800183001680122914301607047774801680422D4
S3150800184091430160704774490A68F8239A43C000B7
S315080018501043086070477148006841080800C007CF
S31508001860C00F70476E4801680C20084070476C48E6
S315080018700168F0200840704769480168E020C00008
S315080018800840704767490968032282400A400006F3
S315080018901043704762480068802149020840704733
S315080018A05F480168F0208003084070475E4800687A
S315080018B00007000F704738B500242000FFF7A2FF85
S315080018C01020FFF7ACFF0022D24310005749014011
S315080018D0534D2960564810404D490860FFF78CFF64
S315080018E02C601020FFF7AFFFFFF7A1FFFFF7A5FF5A
S315080018F04D4804604B480460BF2000044D490A68FF
S31508001900104308600C60012032BD10B5040000F0D9
S3150800191031F82060206800F041F86060606800F0E7
S3150800192049F8A06010BD10B50024002820D1FFF7A3
S31508001930A9FF012804D014D3032805D00AD310E040
S3150800194000F018F8040013E0FFF762FF002800D043
S31508001950394C0DE0FFF77FFF002801D080242402D0
S3150800196006E000F007F800F019F800F023F8040084
S31508001970200010BD80B50020FFF774FF002804D0B2
S31508001980042804D0082804D006E02B4805E02A4895
S3150800199003E000F019F800E0274802BD10B504007E
S315080019A0FFF765FF254900090007000F085CC440DA
S315080019B0200010BD10B50400FFF75EFF2049000A9D
S315080019C0085CC440200010BD10B500210800FFF7D0
S315080019D061FF002804D080214902884202D003E032
S315080019E0184C02E0144C00E0164CFFF75FFF0100AC
S315080019F02000491CFFF726FD0400FFF751FF800C65
S31508001A000107090F891C2000484310BD000000008B
S31508001A1000100240FFFFFBFF341002402010024076
S31508001A2004100240301002402C1002400CF8FFF05F
S31508001A30FFFFF6FE0810024000127A00781D000823
S31508001A40A41D000800093D007047FEE780B5012087
S31508001A501549087000F01DF800F001F801BD10B531
S31508001A60FEF7B6FF012813D00F4C207801280FD1B6
S31508001A70FEF7FFFF0D4909680D4A12688918FA2210
S31508001A8052008918884203D300202070FEF77CFD97
S31508001A9010BD80B504480078012803D1FEF7E9FF98
S31508001AA00349086001BD0000160500200405002052
S31508001AB000050020002000080008000004000000BF
S31508001AC00028000800080000050000000030000893
S31508001AD000080000060000000038000800080000A2
S31508001AE00700000000400008000800000800000089
S31508001AF0004800080008000009000000005000081F
S31508001B00000800000A00000000580008000800004D
S31508001B100B00000000600008000800000C00000030
S31508001B2000680008000800000D00000000700008AA
S31508001B30000800000E0000000078000800080000F9
S31508001B400F00000000800008008000001000000060
S31508001B501448016801220A43026013490A68134BB4
S31508001B6013400B600268124B134003600268114B66
S31508001B70134003600868104A02400A600F4801686B
S31508001B800F22914301600E4801680E4A0A4002601E
S31508001B900D48016801229143016000200B49086045
S31508001BA07047000000100240041002400CB8FFF80D
S31508001BB0FFFFF6FEFFFFFBFFFFFFC0FF2C100240F2
S31508001BC030100240ACFEFFFF3410024008100240FD
S31508001BD0443A5CE887AAE4B8BBE7A094E58F91E4A9
S31508001BE0BAA7E593815C4454555C6F70656E626C68
S31508001BF0745C5461726765745C44656D6F5C4152D0
S31508001C004D434D305F43483537395F446973636FD9
S31508001C10766572795F43483537395F4941525C4288
S31508001C206F6F745C6D61696E2E630000443A5CE800
S31508001C3087AAE4B8BBE7A094E58F91E4BAA7E59331
S31508001C40815C4454555C6F70656E626C745C54615B
S31508001C50726765745C536F757263655C41524D4378
S31508001C604D305F53544D333246305C7273323332E3
S31508001C702E63000070B40123002413E00168001DE0
S31508001C80194202D04D466D1E49190C60091D121FD6
S31508001C90042AFAD20D00960701D50C80AD1C1A400D
S31508001CA000D02C700268001D002AE7D170BC70476E
S31508001CB030B401220168001D00290FD00368C3183B
S31508001CC044680830144202D04D466D1E64191D68DA
S31508001CD025601B1D241D091FECD0F8E730BC704792
S31508001CE010B5074979441831064C7C44163404E08B
S31508001CF0081D0A68891888470100A142F8D110BD55
S31508001D0008000000280000006DFFFFFF1405000012
S31508001D10080000200000000099FFFFFF08000000EF
S31508001D2094000000000000200000000000F00DF8FC
S31508001D30002801D0FFF7D4FF00BF00BF002000BF76
S31508001D4000BFFFF748FA00F002F80120704780B597
S31508001D5000F002F801BDFEE70746384600F002F833
S31508001D60FBE7FEE780B500BF00BF024A1100182056
S31508001D70ABBEFBE7260002000000000000000000E2
S31508001D80010203040607080901488047014800477D
S31508001D90511B0008991D000800BF00BF00BF00BF07
S31508001DA0FFF7C4FF00000000010203044F70656ED0
S31508001DB0424C540000127A0004000000FEE7FEE7D9
S31508001DC0FEE7FEE7FEE7FEE7FEE7FEE7FEE7FEE7DD
S31508001DD0FEE7FEE7FEE7FEE7FEE7FEE7FEE7FEE7CD
S31308001DE0FEE7FEE7FEE7FEE7FEE7FEE7FEE7A4
S70508001D993C
