:100000000822002085480000F31000009B19000022
:1000100000000000000000000000000000000000E0
:10002000000000000000000000000000371D00007C
:10003000000000000000000077210000351D0000D6
:100040005F2500000B3C0000233C0000E73E000061
:100050003B3F0000BB420000CF420000D342000003
:10006000D74200002F480000D5480000D7480000C4
:10007000D9480000DB480000DD480000DF480000F0
:10008000E1480000E348000000000000E5480000EF
:10009000E7480000E9480000EB480000ED48000098
:1000A000EF480000F1480000F3480000F548000068
:1000B000F748000000000000F948000030B5624A2F
:1000C000C3780C001B19D370931C84780D00ADB25B
:1000D0002D0A64191C70541C457825700078107026
:1000E00090780D00ADB22D0AADB2A84208DA507872
:1000F000401C20705078002802D11078401C1070ED
:10010000D07889B2C9B288420EDA9078401C187053
:100110009078002808D15078401C20705078002832
:1001200002D11078401C107030BD10B50B0092B297
:100130008A18521E0BE0197809025C7809194018D8
:100140000400A4B289B28C4200D2401C9B1C934292
:10015000F1D3934208D1197809024018020092B2F3
:1001600089B28A4200D2401C80B210BD80B51422F0
:1001700068490020FFF7D9FF010089B2002901D1A9
:10018000714802E080B200F069FF80B202BD38B56C
:100190006E4C217C0902627C8D18143DC0B2281877
:1001A000082221001A3180B2FFF7BFFF2A0092B265
:1001B0002100223180B2FFF7B8FF010089B2002987
:1001C00001D1614802E080B200F048FF80B232BD48
:1001D00080B50620FFF7DBFF02BD30B50021674880
:1001E0000A00027007E0664A037802246343D15292
:1001F0000278521C02700278002AF4D00A000270C1
:100200000AE00A005F4B047894256D006C431B19CB
:100210005A760278521C02700278002AF1D08022AD
:10022000D200594B1A800A00027008E0574A03783E
:1002300040246343D21891800278521C02700278E5
:10024000002AF3D030BD0000E0190020F1B582B0E3
:100250000F00FFE74C4C2088401C20802088FA21AA
:10026000C901884202DB8020400120800025434EE6
:10027000280030700FE04548317840225143401843
:1002800081880091208800F0E9FE00998142E1D048
:100290003078401C307030780028ECD00095280071
:1002A000307002E03078401C3070307800280CD17B
:1002B0003648317840225143411889880029F1D1CC
:1002C000317840225143401800900098002801D115
:1002D00000201DE0029821880902228892B2120AA9
:1002E0000A4300998A800099CF80002806D1042112
:1002F0002A00009C200000F0D5FE05E00188009A4D
:100300001180408800994880402000990872009828
:10031000FEBD00009200002010B5184900220A70AE
:1003200002E00A78521C0A700A78002A0BD1144A9B
:100330000B7802246343D35A002BF2D109780223AD
:1003400059435052FFE710BDFFFF0000840000201A
:1003500010B50100B74C89B220680830FFF7AEFE37
:100360000B480178226811724178226851728178B5
:1003700022689172C0782168C87210BDFE190020F1
:10038000F2190020B8160020F61900201C190020D0
:10039000E0190020F8B5A7490D680100C9B2042989
:1003A00005D1A5480188002900D0B3E11BE0A34C8A
:1003B00021003631A24A1160A1490968A14A1160A1
:1003C0000100C9B2032915D1687E0007000F032878
:1003D00009D1288A002806D108209B49087000F01E
:1003E0000CFF00F045FD00200100984A118096495D
:1003F0000870F1BD0100C9B2022900D09DE0944807
:10040000C178491CC170C17800290ED18178491C7E
:1004100081708178002908D14178491C4170417868
:10042000002902D10178491C017000200100874A8F
:1004300011800100804A1180697E072902D0697EFF
:10044000052907D1A97E491CA976A97E782900D162
:100450006876C8E7697E0029FBD0298A002960D028
:10046000A97E4A1EAA76C9B20029F2D1E97E0829DE
:1004700008D0697E022902D0697E01290CD1E97E6B
:10048000052909D1687680206F49087000F0B5FE13
:1004900014202F216054DCE1E97E052901DB0421D1
:1004A00000E0E97E03228A40AA76E97E491CE976CB
:1004B000697E0907090FC9B201290AD0022924D08F
:1004C000032925D004292AD0062928D0082926D096
:1004D000BFE710202F21605402202F21615C020011
:1004E0000A432F216254362160540420372160547E
:1004F0000620382160540A20392160542C205349A9
:10050000088060202E216054A9E12F216054E3E788
:1005100004204D49087000F070FE00F0E5FC00F08A
:1005200060FC687E0007000F032892D1082046492E
:10053000087000F062FE00F09BFCC0B205281AD1E2
:100540008E4800688088002814D000213948016056
:100550003B4822002A32026000683A4A106036485E
:10056000018000883949088008203749087001F067
:10057000DFF916E737E7A07B452800D033E733489B
:100580000088217C0902627C891888420CDB207C6F
:100590000002617C40182D490880207D800602D130
:1005A000607D002801D01EE71DE7754D7548008865
:1005B0002988884204D1734840886988884209D0D4
:1005C0007048E18B0288914203D1218C408881429E
:1005D00000D008E76C4EFFF7C9FDB04200D002E73B
:1005E000E07D062807D1FFF7F3FDB04200D0CDE053
:1005F000C8480500CEE0E07D112807D113480188E6
:100600001C390180C4485D49086034E0E07D012860
:1006100000D0E8E62220205C082800D0E3E6002095
:1006200022216054A08CBD49884213DBA08C093084
:10063000A08412E0D4190020F019002084000020CA
:10064000CC190020D0190020FD190020EE1900203F
:10065000DC190020A08C0830A084608BE083A08B84
:1006600020844848018861834088A08300F0EEFC24
:100670000A6840320A600A68030040339A4248D24E
:100680000A689288002AF3D0A28C0B689B889A4251
:10069000EED10A68D288002A0AD0628C0B68DB8807
:1006A0009A4205D00A68D2888A23DB019A42DFD1B8
:1006B0000A6812882B889A4204D10A6852886B888B
:1006C0009A4214D0C84A0B681B881688B34204D1DA
:1006D0000B685B885288934209D0628B0B681B8839
:1006E0009A42C5D1A28B0B685B889A42C0D1002088
:1006F000BE4908600221BE4A1170BE4922002A325A
:100700000A600968BC4A1160BC49088001F010F910
:1007100047E668E6BA4A01881C311180B949138856
:100720009BB21B0A0B7412884A74144A13681B7A12
:100730008B751123CB75038808331B0200880830A2
:1007400080B2000A1843C884002008851068808899
:1007500048841068C08888840A4803884B8340888E
:10076000888310680088C88310684088088408005F
:100770003630A049086000F050FC00BFD8190020B6
:10078000C8480000C0190020FFFF00002BE694219C
:1007900049006D18A84200D295E0697E0029F6D084
:1007A000A18CAA889142F2D1618CEA889142EED163
:1007B000618B2A889142EAD1A18B6A889142E6D165
:1007C0008A48056000268A4F300038702F20205C50
:1007D000400700D5CAE12E20205CC0B2000980008D
:1007E000D249087086480088D0490978401A1438E0
:1007F00083490880687E0007000F022806D12F2059
:10080000205C8006800E122800D1B5E17C4800886B
:10081000002806D12F20205C8007800F002800D1FF
:10082000AAE12620205C297A88420FD12720205C6B
:10083000697A88420AD12820205CA97A884205D1A9
:100840002920205CE97A884200D195E110202F21EF
:10085000605428206A49088050202E216054287A4C
:100860002A216054687A2B216054A87A2C21605484
:10087000E87A2D216054287B26216054687B27214B
:100880006054A87B28216054E87B2921605406200D
:100890000100E175A9886184E988A184A4490A88D6
:1008A00062834988A1832988E18369882184697EDC
:1008B000C90600D496E30020312160543120205C29
:1008C0003021605493E32F21615C8906890E02294F
:1008D00004D02F20205C400722D584E5A18C974AC4
:1008E0001180924E00273900317002E03178491CA6
:1008F000317031780029ECD1904909888D4A3378DC
:1009000002256B43D25A9142F0D13D00390031703B
:100910008FE000BFB81600201C190020F7FF000070
:1009200014202F21605428203549088050202E2182
:1009300060547E482921615C01702D21615C29226F
:10094000A15401782D22A1542821615C01702C2131
:10095000615C2822A15401782C22A1542721615CDA
:1009600001702B21615C2722A15401782B22A15414
:100970002621615C01702A21615C2622A154007845
:100980002A2160542D20205C401C2D2160542D20F4
:10099000205C002816D12C20205C401C2C216054A7
:1009A0002C20205C00280DD12B20205C401C2B210A
:1009B00060542B20205C002804D12A20205C401C9D
:1009C0002A2160545D48618C0180A18C618400887B
:1009D000A084608BE083A08B2084554801886183CC
:1009E0004088A08303E300BFC4480000D41900205E
:1009F000FD190020CC190020D0190020F01900208A
:100A0000EE1900208400002032784A438218527E7A
:100A1000072A0BD1002D06D0AA7E33784B43C3188A
:100A20009B7E9A4202D232784A4385183178491C1B
:100A30003170317800290AD19421490032784A4333
:100A40008218527E002ADFD132784A438518002D61
:100A500000D1C8E4CA4805600320A876A87E28769D
:100A60003800A8750420E8753800E876A08CA880C6
:100A7000608CE880608B2880A08B6880012001005A
:100A80006976C0490A782A734A786A738A78AA73A1
:100A9000C978E97328822920205CE8722820205C2C
:100AA000A8722720205C68722620205C2872012012
:100AB000FFF74EFC2E20205CF0210140512900DA86
:100AC00007E5377002E03078401C307030782E2116
:100AD000615CC9B20909C9B2491F8900884200DBBB
:100AE000F7E4A948317861183622895C01700178F1
:100AF000002900D1EDE401780129E4D00078022832
:100B000005D1307820183721405C042814D0307883
:100B100020183721405C002827D0307831786118C0
:100B20003722895C40183070D0E700BFFE190020E2
:100B3000C0190020F2190020004801E0F819002037
:100B4000317861183822895C09023278A218392379
:100B5000D25C1143018001888C4A914201DB8C48B0
:100B600000E000886882A882B3E4B2E46E762020B8
:100B7000387000F042FB36E42F20205CC0064BD5D5
:100B8000288A002848D0298A28000C30FFF796FAD6
:100B900080482A21615C027891423DD12B21615C21
:100BA0004278914238D12C21615C8278914233D1D4
:100BB0002D21615CC27891422ED101782973417850
:100BC00069738178A973C078E873E87E00281DD125
:100BD000287EA97E401AA97DC9B2C908411AA87DFC
:100BE0004018A875080040B2002802D5080040B29D
:100BF0004142E87DC0B28008081AE97D0818E8750E
:100C0000A87DC0B2C008E97D401828760120387060
:100C1000287EA87630002882687E0007000FC0B2C8
:100C2000012813D000D2DBE1032800D1B4E028D39F
:100C3000052800D1AFE100D27FE1072800D1C8E14B
:100C400000D2C7E1082800D16EE1C9E13878C007B9
:100C500015D50320687640203870300028829D48E2
:100C60000188002906D0397802220A433A700088A8
:100C7000FFF76EFB9848068000F0BFFAF8E0FFF738
:100C8000B2FB3878C00773D52F20205C8006800E19
:100C900012286DD12E20205CF0210140512919DB52
:100CA0008E483100017002E00178491C0170017822
:100CB0002E22A25CD2B21209D2B2521F92009142ED
:100CC00008DA31490278A2183623D25C0A700A7811
:100CD000002A1CD1032068762620205C2872272059
:100CE000205C68722820205CA8722920205CE872B1
:100CF0000120FFF72DFB42203870300028823000A1
:100D0000744908807448068000F077FAB0E00A78E9
:100D1000012AC9D00978022905D101786118372242
:100D2000895C04290DD0017861183722895C00297B
:100D30001DD001780278A2183723D25C891801707F
:100D4000B5E7C5490278A2183823D25C12020078B0
:100D500020183923C05C02430A8008880B4A90425D
:100D600001DB0B4800E008886882A882B2E7B1E79F
:100D70002020387000F041FA014800684676A8E566
:100D8000D4190020DC190020FF1900200B060000F8
:100D90000A060000E01900202F20205CC00724D59F
:100DA000687EC00621D4288A002801D0FFF71BFBEB
:100DB00048480088401C80B2FFF7CAFA38781021F2
:100DC0000143397043480088002803D03878022155
:100DD0000143397000F011FA01202882082068765A
:100DE000EE7611202F21605433E52F20205C800601
:100DF00014D5A54800683421615C09023522A25C43
:100E00000A438018A0490860324801883422A25C55
:100E100012023523E35C1A43891A01802D480188A8
:100E2000002909D0697EC90606D4397802220A430E
:100E30003A700088FFF78CFA87483021615C09021C
:100E40003122A25C89180180A98A0288914202D3CA
:100E50000188002901D1A98A018000886882387838
:100E60008007800F00285DD01B48068000F0C5F980
:100E700086480178890608D500200100164A1180AD
:100E8000687614202F216054E3E40178C9060CD55C
:100E900000200100104A1180012129820421697675
:100EA000E87611202F216054D3E40B490A88002AE8
:100EB00018D00078C00701D500202882288A002891
:100EC0000ED1688A0A88904201D2688A0880088810
:100ED000288207E0EE190020F0190020FE190020FA
:100EE000288A08800020E87669480068664908601A
:100EF0006848008800280AD0288A002807D0288A55
:100F000028306549088018202F216054A4E45F48E8
:100F10000078800706D528205F49088010202F21FF
:100F2000605499E4FFF75FFA3878C00704D56E760D
:100F30001020387000F061F952E05748008800280E
:100F400003D055480088FFF703FA2F20205CC00724
:100F500012D53878C00705D5072068763000A87606
:100F60002E8201E0062068760120FFF7F1F91020BB
:100F7000387000F042F969E43878C00704D50520DC
:100F800068762E82FFF72FFA43480088002800D0A9
:100F90005CE4FFF728FA40480088002803D03E4868
:100FA0000088FFF7D5F92F20205CC0070AD507205D
:100FB0006876AE760120FFF7CBF91020387000F08C
:100FC0001CF943E434480088002800D03EE4FFF7D1
:100FD0000AFA3BE43878C00702D507206876AE7677
:100FE000FFF701FA302160540A203121605440207B
:100FF000A0752948018889B2090A217400886074A3
:10100000002001003522A1543521615C3422A15415
:101010006086FFF7DDF8C1436186204C4520A07350
:1010200000200100E17301006175617D21751C499B
:101030000A88521C0A800A8892B2120AA27409888D
:10104000E1742083FFF792F8C143218300200F4908
:101050000870FFF7CEF90000F8190020010280B2F5
:10106000000A084380B2704710B501290BDB094A1A
:10107000118007490B68984205D012880C6801005E
:10108000200000F08BFC10BDCC190020FD190020C1
:10109000D0190020F0190020EE1900208400002053
:1010A000F41900201206130A1A43130C1A4300BF46
:1010B000094205D0830705D00270401C491EF9D1B2
:1010C000704700001300103906D330B41400150027
:1010D00010393CC0FCD230BC490700D30CC000D54D
:1010E00004C0890002D30280801C002900D5027050
:1010F0007047FEE738B570480078002840D100F00E
:10110000A7FC00F006FEFA21490040186B49086070
:101110006B4C00F0FEFD00196A490860FFF75DF8AE
:101120000021684601804180674A03881380438814
:10113000538001804180654A03881380438853802F
:1011400001804180624902880A8040884880AA481C
:10115000FFF7E2F800F07DFCA84D280000F031FD1B
:101160000621280000F0CAFB00F0E6FB00F00AFEB2
:10117000A04202D2200000F002FE0120A049087027
:1011800031BD80B500204C4908709D48007800288A
:1011900001D1FFF7AFFF01BD30B5994A1278012A9E
:1011A00021D1984A12681C3213685360002307E06B
:1011B0001C00A4B2045D1D00ADB255192C725B1C5D
:1011C0001C000D00EDB2A4B2ADB2AC42F0D3C9B276
:1011D000091D8420400011520120852149005054EE
:1011E0001068401C106030BD80B58548007801282B
:1011F00001D100F06FF8002002BD38B581480068C9
:1012000004001C34804D287840060ED50120206053
:101210000020010084225200A152010085225200C8
:10122000A154FF210C31605444E02878C00703D555
:101230000020FF210C316054287840070AD5FF2098
:101240000C30205C012805D184204000215A201D4B
:10125000FFF70AFF2878000717D585204000205C9B
:10126000012812D1002085214900605484204000CB
:10127000205A002809D00120FF210C31605484201D
:101280004000215A201DFFF7EFFE2878800711D576
:101290005E490888001F41280CDAFF200C30205CD2
:1012A000002807D15A4800680988091FC9B2001DE3
:1012B00000F098FD31BD000081000020B41900202D
:1012C00010270000B8190020C0190020C8190020FC
:1012D000C419002070B500F082FC002827D04B4CC8
:1012E000208080200001FFF7B9FE4A4DA98980B215
:1012F00081420CD10120FFF74DF82088002816D03C
:1013000001F04CF800F086FC002020800FE04248FD
:10131000FFF7A4FEA98980B2814208D100F0CEFF78
:101320002088002803D000F075FC0020208000F009
:10133000F0FC3A490A68904236D30868FA22520013
:10134000801808600024250014E0354894214900E5
:10135000694340182B4908600220FFF71BF82B4E09
:101360003088002805D001F019F800F053FC200067
:1013700030806D1C002DE8D0250013E02948402165
:1013800069434018284908600520FFF703F81F4EFD
:101390003088002805D001F001F800F03BFC200067
:1013A00030806D1C002DE9D000F0B3FC1F490A68A5
:1013B000904205D308681E4A8018086000F0DCFEE1
:1013C0000024250014E01648942149006943401880
:1013D0000C4908600320FEF7DDFF0C4E3088002822
:1013E00005D000F0DBFF00F015FC200030806D1C04
:1013F000002DE8D070BD000003E800009019002027
:10140000FC190020D4190020FD190020EE1900203D
:10141000CC1900208400002006080000B419002028
:10142000B81600201C190020D8190020B819002077
:101430001027000035220270401C01220270401C5F
:101440000170401C704738B536210170401C0422E1
:1014500011000170441C93492500280000F09EFAF9
:10146000201D32BD38B532210170401C042211000C
:101470000170441C8C492500280000F08FFA201DC3
:1014800032BD37210170401C03210170401C012234
:101490000270401C0170401C06210170401C704706
:1014A000FF210170401C7047F8B5050001200100C4
:1014B000297068707D4FB869A87000263000E87008
:1014C000042422007A49281D0090009800F066FA52
:1014D000009830002881802068812200754928000A
:1014E0000C300090009800F059FA0098210032006A
:1014F0002800103000900098FFF7D4FD00982100DC
:1015000032002800143000900098FFF7CBFD0098BF
:10151000210032002800183000900098FFF7C2FD2B
:101520000098BA69796928001C300090009800F092
:1015300035FA00981020B969411A3200B8692818A4
:1015400007001C373800FFF7ADFD402132002F00A7
:101550002C373800FFF7A6FD802132002E006C36B4
:101560003000FFF79FFD220053492C00EC3420008F
:1015700000F014FAF1BD38B5504C25682800FFF78B
:1015800093FF01212800F030FFF754FFFFF779FFA8
:10159000FFF786FF2168411A2068FFF765FD31BD1E
:1015A00038B5464C25682800FFF77EFF0321280048
:1015B000F030FFF73FFFFFF746FFFFF753FFFFF75E
:1015C0006FFF2168411A2068FFF74EFD31BDF8B565
:1015D0000400651800260FE00422A11C384F3800D3
:1015E00000F0DCF905E00422A11C364F380000F0C1
:1015F000D5F960782018841CAC4229D220780128C3
:10160000EAD003280AD006280FD03328EBD035289B
:1016100012D0362812D0FF2817D0EAE70422A11CE6
:10162000B44F380000F0BAF9E3E70422A11CB24F2E
:10163000380000F0B3F9DCE7A678DAE70422A11C51
:10164000184F380000F0AAF9D3E73000C0B201E02B
:101650003000C0B2F2BD38B51848056828780228B5
:101660001DD104221249281D00F050FF002816D178
:101670000E4CA269616928001C3000F047FF002869
:101680000DD10422290010312434200000F086F905
:10169000B74801882800F030FFF799FF00E00020EC
:1016A00032BD000078190020801900205C1900204C
:1016B000BC480000C0190020C0480000CC19002020
:1016C000841900207C19002070B501210800A94C64
:1016D0002288002A16D0FF231033D21A21D0521E9E
:1016E00027D0153A56D0521E5CD02F3A00D1A3E035
:1016F000521E00D1A8E0143A00D1C1E0521E00D120
:10170000C6E0F1E0A170FA2080002061FFF733FF0E
:1017100021692000083000F00DFF0020FF2110316A
:101720002180C0B2002801D10320E1E088204000E0
:101730002080914D022628783100084207D12000F0
:10174000083000F0FEFE002801D10020D0E028780B
:101750003100084205D0FFF77EFF022801D1A670B4
:101760000AE020698549884203DA2069022148435A
:101770002061A0780228C9D1FA2080002061FFF7FB
:101780000FFF21692000083000F0D4FE0020FF2167
:1017900026312180C0B2002801D10320A8E0932087
:1017A00040002080744D022628783100084207D17D
:1017B0002000083000F0C5FE002801D1002097E08D
:1017C000287830421CD0FFF746FF052818D10320A7
:1017D000A070200000F0BCF8208CFFF73FFC05044F
:1017E000608CFFF73BFC05436808FA218900020082
:1017F0004A4380231B069A4213D24843206112E0D9
:1018000020695F49884208DA2069FA218900401876
:101810002061A0780328B2D1DBE7002020800020DF
:1018200066E05848206121692000083000F082FEFF
:101830000020FF2156312180C0B2002801D10320B1
:1018400056E0AB20400020802000083000F079FEF8
:10185000002801D100204BE00220A070FA20800077
:10186000206100F069F800F097F8FFF799FE216910
:101870002000083000F05EFE0020B52149002180E4
:10188000C0B2002801D1032032E0FF206C3020805C
:10189000394D022628783100084207D1200008304F
:1018A00000F04FFE002801D1002021E028783042CE
:1018B00009D0FFF7D0FE052805D10320A070200035
:1018C00000F046F888E720692D49884208DA206947
:1018D000FA21890040182061A0780328C5D1EEE7DD
:1018E00000202080002003E0002108002180022049
:1018F00070BD00008C1900208819002038B51D4CDF
:101900006061A16100252800A0701F486946088019
:1019100048808621C9016846FEF798FC60606068CF
:10192000002803D08820C00161688880258031BDEF
:1019300080B5FFF7C9FE01BD81B00020694608806F
:10194000488012480A8802804988418001B0704767
:101950000E49828C0A80C28C4A800D49028D0A8011
:10196000428D4A800B49028E0A80408E4880704723
:10197000EE1900205C190020FD19002060EA00002B
:1019800011270000FFFFFF7FFFFF0000C0190020AC
:10199000C8190020C41900207047FEE7124207D082
:1019A0008B0706D00B78491C0370401C521EF7D8D9
:1019B0007047830706D00B78491C0370401C521EE9
:1019C000F9D1704770B4103A03D378C9103A78C08F
:1019D000FBD2530701D318C918C001D508C908C0E4
:1019E000D20704D30B880380891C801C002A01D5F0
:1019F0000B78037070BC704700218449C006C00E8C
:101A000020210143824801709048008880B27047CD
:101A100000B5C0B2002805D08D490A6810201043D7
:101A2000086004E08B490A6810201043086000BD7C
:101A300000B5C0B2002805D086490A68802010434E
:101A4000086004E082490A6880201043086000BDF5
:101A50007047F8B50421802000F0C7FD0421102054
:101A600000F0C3FD0020FFF7D3FF0020FFF7E0FFE9
:101A7000794957200870A820087078480278DF2339
:101A800013400370FD20764A13780340137000233F
:101A90000B70744A1370042114780D0025431570DF
:101AA000FF22714C2270C024704A157825431570AE
:101AB0006F4A15782C4314701478A406A40E147081
:101AC0006C4C23702378BF251D4025702378F725A3
:101AD0001D402570FB2325781D4025702578A32601
:101AE0002E4326700125644C26782F00374327703B
:101AF00026783040207020780E000643267020782B
:101B000008260643267064205C4C20805C480478DC
:101B100020262643067010240678270037430770D6
:101B200006783340037003781D4305705548564BC3
:101B300018805648564B18801078014311704A4857
:101B40000578EDB22000484908700120FFF754FFE6
:101B5000060000F0DEF84F49471801E000F09AFD5A
:101B6000E80601D570070BD53F48057821000170C4
:101B70000120FFF741FF060000F0CBF8B842EDD39B
:101B800045484179454A11700179454A1170C1783B
:101B9000444A11708178444A11704178434A117067
:101BA0000178434A1170434902780A7042784A70BA
:101BB00082788A70C278CA7002790A714079487155
:101BC000F1BD35490A7802704A7842708A7882708D
:101BD000CA78C2700A79027149794171704770B54B
:101BE00021490878402213000B700240002A0BD0D4
:101BF000314C2288254D2900304E3000FFF7CEFEB3
:101C000023480580208800E0002070BDFFFF000011
:101C10002490004070B52A4C22882849294D2E0076
:101C20003000FFF7BBFE104A117800E01178082061
:101C30000142FBD010702188234A118023490D8076
:101C40000B490A781043087070BD000020900040D6
:101C5000CC100040C8100040401000400D10004063
:101C60000F10004003900040049000400590004099
:101C70000790004018900040199000401C900040D0
:101C80001A900040F40500001E900040C806002095
:101C90000C90004088130000981900202890004004
:101CA000299000402A9000402B9000402C9000404A
:101CB0002D900040A01900200E90004084000020CC
:101CC000EE190020BC0C00200A9000400890004053
:101CD00080B500F00CF81248124908600020124943
:101CE00008600521114A11601149086001BD0020FA
:101CF0000E4908600B4908600B490860704700B541
:101D00000A480068C00303D509480168491C0160FE
:101D100000BD80B5FFF7F3FF0548006802BD000075
:101D20007FBB000014E000E018E000E010E000E0FD
:101D3000BC1900207047FEE780B5012018490870E3
:101D400000F023F800F001F801BD10B500F0F5FC3B
:101D5000012813D0124C207801280FD1FFF7D9FFAA
:101D600010490968104A12688918FA225200891825
:101D7000884203D30020207000F0FBFC10BD09490D
:101D80000860704707480068704780B504480078CD
:101D9000012803D1FFF7BDFF0349086001BD000022
:101DA000FA190020AC190020A81900200020B7491A
:101DB00002000A70886402004323CA5402004423CC
:101DC000CA5202008A704870704700B5AF48007868
:101DD000002801D1002000E0012000BD0020BB4907
:101DE0000870704710B50178FF2916D100F08AF805
:101DF000A64C4320205C012802D1102000F07AF884
:101E00004420205E012807DB012043216054442048
:101E1000215EE01C00F052F810BD9C4909780129B0
:101E20004BD10178C92932D0CC293FD0CF293AD023
:101E3000D0292FD0D12933D0D2292ED0F32917D0B1
:101E4000F4290FD0F5290AD0F6290ED0FA2912D09C
:101E5000FC2913D0FD2914D0FE2915D029E000F06B
:101E6000B0F8C5E700F0CCF8C2E700F0A1F8BFE792
:101E700000F0E9F8BCE700F08AF8B9E700F082F872
:101E8000B6E700F071F8B3E700F062F8B0E700F0F1
:101E9000FFF8ADE700F01CF9AAE700F0E5F8A7E7C6
:101EA00000F044F9A4E700F053F9A1E700F05EF96F
:101EB0009EE7202000F01EF89AE7ADE780B589B2D2
:101EC00000F002FC01BDF8B504000D00170000266B
:101ED00004E020783618641C00F0DCFB2800451E66
:101EE0000028F6D1F6B23E600120F2BD002067491D
:101EF000487070476549FE22CA700871022044226A
:101F00008852704738B5FFF7F1FF604C0125257006
:101F1000FF20E0700020211D087022791023134358
:101F20000B70611D08706079087000F0D8FBA0711B
:101F300000F0EBFBE07100F0E8FB80B2000A2072D9
:101F40006572A57208204421605200F042FC31BD48
:101F500010B54E4C00202070FFF7C8FFFF20E07046
:101F600001204421605210BD4848FF21C17000216A
:101F70000171427842718171C1710172062144225E
:101F80008152704780B50020FFF7B4FF01BD3F4884
:101F9000FF21C17073498164002101714171817118
:101FA0000721C01C4160C01E082144228152704795
:101FB0003649FF22CA704068886401204422885252
:101FC000704738B5050000F08AFB80B2401E697882
:101FD000884203DA2220FFF78DFF10E06A782B4C4D
:101FE000201D92B2A16C00F0E3FBFF20E070A06C1A
:101FF00069784018A0646878401C4421605231BD63
:1020000070B5050000F06BFB80B2401E6978884215
:1020100003DA2220FFF76EFF14E01C4C260048363E
:10202000686830606A78201D92B2A16C00F0C0FB35
:10203000FF20E070A06C6978401830606878401C20
:102040004421605270BD10B5104CFF21E170E21DBB
:102050004168A06CFFF737FF207100206071A0710C
:1020600008204421605210BD38B5084CFF20E070B4
:1020700000252571657100F032FBA071E5712572B4
:10208000657207204421605231BD00009018002085
:1020900038B5050000F023FB334C6A1C80B2411EAA
:1020A000A06C00F09AFB002803D13120FFF722FF3B
:1020B0000BE0FF20E07000F012FBA16C80B2401E2C
:1020C0000818A06401204421605231BDD3180020BB
:1020D00038B5050000F003FB80B2801E69788842A5
:1020E00003DA2220FFF706FF1FE01F4CFF20E070FD
:1020F0000120442160526878002807D100F07DFB60
:10210000002802D13120FFF7F5FE0EE0AA1C697805
:10211000A06C00F062FB002803D13120FFF7EAFE3B
:1021200003E0A06C69784018A06431BD10B50E4C76
:102130004168A06C00F055FB002803D13120FFF767
:10214000D9FE04E0FF20E07001204421605210BD60
:1021500080B500F00EFB0448FF21C170012144222C
:10216000815201BDB44800009018002080B5312094
:10217000FFF7C0FE01BDFEE7F8B5874C2078401C94
:1021800020700025824E2800307016E0814831789A
:102190000C2251434718388879880143002909D017
:1021A0002078B97A401A782804DB04212A00380004
:1021B000FEF778FF3078401C307030780828E5DB77
:1021C000F1BDF1B50C007348050000227049130001
:1021D0000B7002E00B785B1C0B700B78082B1DDA80
:1021E0000B780C256B43C5182B88002BF2D06B881D
:1021F000002BEFD0009B1B882E88B342EAD1009BB6
:102200005B886E88B342E5D1062221002C1D200098
:10221000FFF7C4FB60480078A8724EE013000B7013
:1022200002E00B785B1C0B700B78082B09DA0B783B
:102230000C256B43C5182B88002BF2D16B88002B23
:10224000EFD10B78082B29D11300A24D2B7013006E
:10225000A14D2B700A7017E00A780C235A4382189C
:102260009C4B4D4D1F78BC462F78967ABE1B674617
:10227000B74206DA2D78927AAA1A1A700A78964B23
:102280001A700A78521C0A700A78082AE4DB924A0B
:1022900012780A7009780C225143451804220099DB
:1022A0002E003000FFF77AFB062221002C1D2000B3
:1022B000FFF774FB38480078A872F1BDF8B587487D
:1022C00000882A2803D20020844908805DE000208D
:1022D00082490880824CA08A80214900884204D02B
:1022E00080218900884241D04FE07E4DE08C2988D2
:1022F00088423AD1208D6988884236D12100163132
:1023000020001C30FFF75DFF80208000A0820626A1
:10231000320021001631270020373800FFF73EFB3E
:102320003200714F39002000163000900098FFF7FE
:1023300035FB009832003900A71D3800FFF72EFB4F
:1023400032002100203126003000FFF727FBA08B50
:10235000E084E08B20852888A0836888E083C12002
:10236000C000A0812A205D4908800EE05D48E18C14
:102370000288914209D1218D4088814205D12100F6
:10238000163120001C30FFF71CFFF1BD00000000DB
:10239000001A0020E0170020021A0020F8B5534967
:1023A0000800534A4E4DEB8B1488A3420AD12B8C64
:1023B0005288934206D106224E492C002000FFF796
:1023C000EDFA79E04C4AEC8B13882340454C248885
:1023D00016882640B34208D12C8C53882340414CA8
:1023E000648852882240934206D0444B444A1C8859
:1023F00014805B88538004E0414AEB8B13802B8C64
:102400005380404A00242300137002E013785B1CC1
:1024100013701378082B0CDA10780C235843081823
:10242000374B1E880788BE42F0D15B884688B3428E
:10243000ECD11178082939D106263100FF222F006E
:102440003800FEF72FFE310022002C00203420003F
:10245000FEF728FE3200244C2100AF1D3800FFF7A4
:102460009DFA320021002C0016342000FFF796FA66
:1024700023480188E984408828851A480188A9836F
:102480004088E88380204000A882E88108202882D4
:10249000AE740420E874C120C000A8812800363042
:1024A000194908602A200D49088011E00622011D03
:1024B0002C002000FFF772FA06220B49AC1D200009
:1024C000FFF76CFA0820A881044801880E310180CA
:1024D000F1BD0000031A0020011A0020EE190020AF
:1024E00084000020C0190020A0190020E01700205F
:1024F000CC480000AC480000C8190020C4190020D6
:10250000E4190020001A0020CC19002010B402E0C9
:10251000401C491C521E002A09D00B7804789C42AA
:10252000F6D002D20020C04302E0012000E00020EB
:1025300010BC704710B50400616000F068F92060BD
:1025400010BD10B5040000F062F92168401A6168FE
:10255000884201DB012000E00020C0B210BDFEE790
:1025600000B5C9B2002906D002291ED010D3042913
:1025700031D027D338E03F490A6882430A603E4998
:102580000A6882430A603D490A6882430A602BE078
:1025900038490A6882430A6037490A6802430A6078
:1025A00036490A6882430A601EE032490A680243DB
:1025B0000A6031490A6882430A6030490A688243E6
:1025C0000A6011E02B490A6882430A602B490A68B5
:1025D0001043086008E027490A6802430A60274957
:1025E0000A6810430860FFE700BD00B5C9B20029C2
:1025F00006D002291ED010D3042931D027D338E0C9
:102600001F490A6882430A601E490A6882430A60B9
:102610001D490A6882430A602BE019490A6882430F
:102620000A6018490A6802430A6017490A68824327
:102630000A601EE012490A6802430A6011490A68EA
:1026400082430A6010490A6882430A6011E00C491B
:102650000A6882430A600C490A681043086008E06F
:1026600007490A6802430A6007490A68104308607C
:10267000FFE700BDB4100040B0100040A0100040C3
:10268000D4100040D0100040C010004080B500F0D1
:10269000C4F801BD80B500F0C5F801BD80B5FFF7F5
:1026A00085FB01BD1CB52E4C69462000FEF79CFD44
:1026B000012807D103202B490870684601782000C3
:1026C000FFF790FB13BD704780B5264A1278032AA6
:1026D00002D1C9B2FEF760FDFFF780FB01BD00B576
:1026E00020480078002805D0022807D004D303280A
:1026F00006D007E0402006E0002004E0002002E0D1
:10270000402000E0402080B200BD00B515480078B0
:10271000002805D0022807D004D3032806D008E0FB
:10272000402008E0002006E0002004E08020400077
:1027300001E08020400080B200BD10B50024FFF70A
:1027400044FB002800D001242000C0B210BD80B599
:10275000FEF717FD032003490870FFF716FB01BDC4
:10276000DC18002080000020704780B500F05EF883
:1027700001BD10B500F039F8002802D1FFF7E7FFDE
:1027800015E000F048F8002802D1FFF7E0FF0EE066
:10279000FFF799FFFFF7E8FFFFF7A9FA00F029F824
:1027A000001D046800F044F8A047FFF7D0FF10BDFB
:1027B00070B514000D00060005E0287830706D1C1F
:1027C000761CFFF767FF2000441E80B20028F4D17A
:1027D00070BD80B500F02EF801BD80B500F031F875
:1027E00002BD80B500F05FF802BD80B500F0B9F819
:1027F00002BD80B500F0F6F802BD80B500F07CF8AF
:10280000002801D1002001E000F0D3F802BD80B51E
:10281000FFF77FFA02BD0120704780B5642000F009
:1028200041FA01BD80B500F040FA01BD72B67047B3
:1028300062B670470020C043864908608649086038
:102840007047F8B504000F001500844E90203058F2
:10285000942171584018401E001B791E884201D2F5
:1028600000201FE0200000F0B6F9FF2805D0E01995
:10287000401E00F0B0F9FF2801D1002012E0600AEC
:102880008021890048432A003168884205D13B00F5
:102890002100714800F0E4F804E03B0021006D489D
:1028A00000F0DEF8F2BD70B504000E006B48902118
:1028B0004158942280580818401E001B711E8842FF
:1028C00001D2002017E0200000F085F90500A019D2
:1028D000401E00F080F92900C9B2FF2903D0010091
:1028E000C9B2FF2901D1002005E00100C9B22800CA
:1028F000C0B200F029F970BD80B5002000905648A4
:1029000001680022D243914201D1012028E00099C0
:10291000426889180091009982688918009100998D
:10292000C26889180091009902698918009100997C
:10293000426989180091009982698918009100996B
:10294000C069081800900098C14300910098401C8D
:1029500000906A46042141480068C030FFF771FFCB
:1029600002BD00B500213D4802681268891802685E
:10297000121D1268891802680832126889180268E4
:102980000C321268891802681032126889180268BD
:10299000143212688918026818321268891800689F
:1029A000C03000680818002801D1012000E0002094
:1029B00000BD10B50024E44327480168A14205D0BA
:1029C00000F094F8002801D100200AE021480168B5
:1029D000A14205D000F08AF8002801D1002000E0D3
:1029E000012010BD1D480068704780B5CA05D20D92
:1029F000002A01D000200BE002688A4201D10120A8
:102A000006E0016080229200001DFFF7D1FE012048
:102A100002BD38B505000C000F48854208D10D4DA8
:102A200021002800FFF7E1FF00280FD100200EE071
:102A30000A490A68944202D105000C68F0E72800B0
:102A400000F054F80028EBD1002000E0280032BD4F
:102A500000000000B0120020B414002080440000E8
:102A6000F8B504000D0016001F00680A80218900D7
:102A70004843009020680021C943884207D100994B
:102A80002000FFF7B2FF002801D100202BE02068D2
:102A90000099884208D000992000FFF7BAFF04008F
:102AA000002C01D100201EE030002168691A611855
:102AB0000E1D0500FFF7EEFD80208000211D711A1C
:102AC000814208D3009909182000FFF7A2FF0400F3
:102AD000002C09D0261D28783070761C6D1C7F1EB6
:102AE000002FE7D10120F2BD0020FCE7FEB5060073
:102AF0000124306800F06FF8C0B2FF2801D1002037
:102B000021E000273D0005E0019800680099884217
:102B100016D16D1C802D14D23068042169434018F1
:102B2000019004206843301840680090FFF7B2FD20
:102B30000099019800F001F90028E5D03C0000E080
:102B40003C002000C0B2FEBDF8B50E0001243100EB
:102B50000200C9B2D2B2914200D200245049020010
:102B60000B7AD2B29A4205D39822895C3200D2B253
:102B7000914200D200242100C9B2012928D1C0B25B
:102B800000F052F805003000C0B200F04DF8070028
:102B90003000C0B200F066F83818401E401B401CE0
:102BA000C00A6946088000273E0003E0802000013B
:102BB0002D18761C30006946098880B2884207D2F9
:102BC000FFF768FD280000F09DF80028EED03C00DB
:102BD0002000C0B2F2BD38B50400002500E06D1C35
:102BE0002800C0B20D281DD2FFF754FD2C48290043
:102BF000C9B20C22514341588C42F0D32900C9B2CA
:102C00000C22514341582A00D2B20C235A43821855
:102C1000526889188C42E2D2EDB20C214D43401922
:102C2000007A00E0FF2032BD38B50400002500E046
:102C30006D1C2800C0B20D2811D2FFF72BFD1848DB
:102C40002900C9B20C2251434118097A2200D2B29C
:102C50009142EDD1EDB20C214D43405901E00020ED
:102C6000C04332BD38B50400002500E06D1C2800CB
:102C7000C0B20D2812D2FFF70DFD09482900C9B2D4
:102C80000C2251434118097A2200D2B29142EDD16F
:102C9000EDB20C214D434019406800E0002032BDE8
:102CA0008044000012490880704710B5FFF731F8E2
:102CB000104C216888421AD30F480178002908D1A6
:102CC000012101700D480168802212020A4302604E
:102CD00007E0002101700A480168802212020A43BD
:102CE0000260FFF716F8024909884018206010BDFD
:102CF000EC190020B0190020FB190020AC10004096
:102D0000A810004000B50021C105C90D002901D05F
:102D1000012011E01749086017498C200870A6208F
:102D2000164A10701648007880220A70C0B24028F7
:102D300001D1002000E0012000BD00B50022820783
:102D4000920F002A01D0012013E00A4A10600D48BA
:102D5000016009498C2008709A20084A10700848C0
:102D6000007880220A70C0B2402801D1002000E023
:102D7000012000BD04180040091800400818004058
:102D80000A18004000180040F0B5A1B0269C04913C
:102D900002A93B254C5500270D9701901400009384
:102DA0000AE00498019A90470490002800D1A3E01B
:102DB0000D98401C0D90641C2178002909D025290C
:102DC000EFD10797089709970A970B970C9700215F
:102DD00004E00D9892E0080001210143641C207872
:102DE0002028F8D023280CD02B2804D02D2805D05B
:102DF000302809D084E008000221EEE70800042111
:102E0000EBE708000821E8E708001021E5E70F9745
:102E10000AE00F9A444B9A4205DA93009A1852003E
:102E2000101830380F90641C20780200303A0A2ABB
:102E3000EFD320782E2803D00020C0430E9028E046
:102E4000641C20782A280AD100980068009A106033
:102E50000268001D009B18600E92641C19E02D286A
:102E600002D12D22641C00E000220E970CE0002A03
:102E700009D10E9B2C4DAB4205DA9D00EB185B008F
:102E8000181830380E90641C20780300303B0A2B51
:102E9000EDD302AD29872678310000BF23A000F0D2
:102EA000B5FE002801D0641C00E000263A202E5414
:102EB000285C682804D1207868280AD1622005E0BF
:102EC0006C2806D120786C2803D171203A216854EF
:102ED000641C12A806902378009A02A9019800F0B9
:102EE00063F8641C002807D112AA02A9019800F017
:102EF000B3F9002800D45FE70020C04321B0F0BD43
:102F00002A2884D10098026802601068121D009B74
:102F10001A600F90002804D542420F920800042145
:102F20000143641C85E70000CBCCCC0C686A6C7450
:102F30007A4C00000B0062281CD068280DD06A284B
:102F400003D06C2823D0712821D11A68D21D072004
:102F500082431A6003CA1A607047002A1968196010
:102F6000086803D0091D196000B217E0091D196037
:102F700080B217E0002A19681960086803D0091D9B
:102F8000196040B20AE0091D1960C0B20AE0002AC7
:102F900019681960086803D0091D1960C1177047C6
:102FA000091D19600021704770B50C0011001E004A
:102FB00025693000253800D116E11C3868D0001F83
:102FC000022865D9133842D0093861D0801E16D046
:102FD000401E1ED0401E02285AD9001F19D0401F83
:102FE00000D17EE0401E32D0401E00D1C9E0C01E9C
:102FF00000D1D7E0801E2AD0C01E28D0FAE0606938
:10300000421C62610A680A601368121D0A602B5430
:10301000FAE001223A20205CFFF78CFF03C4083C51
:10302000002904DA6069411C61612D210DE0208FC7
:10303000810704D56069411C61612B2105E0C0074F
:1030400021D56069411C6161202129541BE00022C7
:103050003A20205CFFF76EFF03C4083C3820205C58
:10306000000710D503CC083C002901D100280AD064
:1030700020203043782806D1606930212954401C33
:10308000411C61612E5460692818E060310085E0C0
:103090000868C01D0722904308600CC808600CC473
:1030A000083C03CC083CC80F04D06069411C616136
:1030B0002D210DE0208F810704D56069411C6161DD
:1030C0002B2105E0C00704D56069411C6161202106
:1030D000295460692818E0603100200000F0FCF9F4
:1030E00092E03B20205C002804D00024E44300BF91
:1030F00046A062E03A20205C622808D0682823D0ED
:103100006A2812D06C282ED071280ED02BE00A68C5
:103110000A601068121D0A60002803D10024E443ED
:1031200040A04AE0E16A01706EE008680860026849
:10313000001D0860002A03D10024E44339A03CE0CC
:10314000E06AC11703C25FE00A680A601068121DD6
:103150000A60002804D10024E44300BF31A02CE021
:10316000E16A018050E00A680A601068121D0A6076
:10317000002803D10024E4432AA01EE0E16A016094
:1031800042E0086808600268001D08600020C04333
:103190000021104003C4083CE5607821200000F0C5
:1031A000E5F831E0086808600568001D0860E56022
:1031B000002D06D10024E44320A000F033FD201AA6
:1031C00070BD266B002E03D5280000F04FFD09E0EE
:1031D00032000021280000F051FD002801D0401BE2
:1031E00000E03000A0610FE06069411C61612521B1
:1031F000295409E06169481C606125226A54310044
:1032000002D0411C61612E54002070BD7072696E45
:1032100074665F733A20256E20646973616C6C6F0D
:10322000776564007072696E74663A20626164202A
:10323000256E20617267756D656E74007072696EBF
:1032400074665F733A20626164202573206172673F
:10325000756D656E74000000FEB506000D00170068
:10326000686B6969401A296A401AA969401A696A33
:10327000401AE969401AA96A401A01903820285C6E
:10328000400710D4202069460870019800280ADD04
:10329000019C01236A462900300000F09BFC0028B5
:1032A00060D1641EF5D13A006B692900300000F04E
:1032B00091FC002856D13027684607702C6A002CF4
:1032C00009DD01236A462900300000F083FC002854
:1032D00048D1641EF5D1AB69EA682900300000F0DE
:1032E00079FC00283ED1684607706C6A002C09DD25
:1032F00001236A462900300000F06CFC002831D11F
:10330000641EF5D1EB69E868A9694218290030000C
:1033100000F060FC002825D168460770AC6A002CDC
:1033200009DD01236A462900300000F053FC002823
:1033300018D1641EF5D13820285C400710D5202014
:1033400069460870019800280ADD019C01236A463D
:103350002900300000F03EFC002803D1641EF5D1A6
:10336000002001E00020C04303B0F0BDF2B586B0FC
:10337000040025696F2901D1082707E008462021AC
:103380000143782901D00A2700E010273C2603CC0E
:10339000083C04AA03C26A46127E642A03D06A4625
:1033A000127E692A09D1002907DA04A803C800227D
:1033B0000023121A8B4104A80CC004A803C80029DA
:1033C00020D100281ED1206B00281BD1082F4ED100
:1033D0003820205C00074AD53B26302046E00029F3
:1033E0000ED53821615C14220A40102A08D1616B85
:1033F0006269891A226A891A081A002800DD206287
:1034000007B0F0BD0294009504A830C8761E01965E
:10341000200029003A00FB1700F03CFC3032D0B20B
:103420003A2803DB6846007E51381218009882550E
:10343000200029003A00FB1700F02CFC04000D00CE
:1034400001D1002C05D00298C068009989198842E2
:10345000DCD3029C009D082F09D13820205C000796
:1034600005D5A85D302802D0761E3020A8553C2016
:10347000801BA061A919E160216B8842AFDA081AAC
:103480002062208F124901402187B9E7F8B5002654
:10349000104F04000D00009214E0C00707D5320061
:1034A0003B002000290000F02AFC04000D000098D9
:1034B000401000903000390032003B0000F01FFC4B
:1034C00006000F0000980028E7D120002900F4BD75
:1034D000EFFF000000002440F3B593B005AA03C835
:1034E00002AB03C314A80078202101436846017091
:1034F00061290BD01398006B002801D5062003E04A
:1035000004D1672902D1012013990863139803C8D5
:103510004C006415641C13D10B0311D003201399C4
:10352000886114A8007861381A2804D25549794472
:10353000FF31533116E054497944FF314D3111E0E8
:103540004C006415641C13D10B0311D10320139993
:10355000886114A8007861381A281BD34B49794434
:10356000FF312B3103221398C068FEF717FACCE124
:1035700010AB03C391A6C0CE10A803C83940802564
:103580006D03A9420BD20023019310AB30CB6040F6
:1035900069400EE03E497944FF310939E2E7080D00
:1035A000884C2418019410A803C8884D0D40864902
:1035B0002943139B03C368460078612813D11398ED
:1035C000C06830210170811C139BD96014A909784F
:1035D000612901D1782100E0582141701398406998
:1035E000801C13994861139830C826402F4005D19C
:1035F000002E03D100206B4618817DE168460078DB
:10360000612800D0A8E01398006B002801D5212084
:1036100000E0401C0090009F7F1C02A803C800220D
:10362000002300F02EFC02D28020000645400198C5
:10363000001F019069460A7505A8461C002F00DC92
:1036400069E120002900002280235B0300F032FCA6
:1036500000D960E169004A0D11001C31002A19D01F
:10366000002917DDB74A914206DB100529008022A8
:1036700012061140014311E0544A2A400805104344
:1036800005000DE0F0110000F0110000F411000041
:10369000EC110000290080221206114000240D00C8
:1036A0002000290000F020FC0290FF1F002F09DD00
:1036B00000F054FC02000B002000290000F0B5FCD3
:1036C00004000D00F01D0721029A04E0401E1307BC
:1036D0001B0F03701211002A01DD491EF6D5491E89
:1036E00000D514E1401E00220270F8E70023040018
:1036F00005AD2D1901E0401E6D1E641E2E789E4200
:10370000F9D00F2B04D14B1C1B5D5B1C491C0B55C6
:10371000002C04D505AA401C0199091D0191431EE6
:1037200011D4D41814A9097825783035EEB23A2E80
:1037300002DB0E003A3EAD1925705B1E641E002BA5
:10374000F2D514AB19701399096B002900D4D0E09D
:10375000411E139B1963CCE002A803C8002200237A
:1037600000F08FFB06D202A803C880221206514047
:1037700002AA03C2019874494843744900F0E2FC6C
:10378000019007200199401A049005DD024602A825
:1037900003C8FFF77BFE0AE0424200206C49FFF7B6
:1037A00075FE02000B0002A803C800F025FD6A4662
:1037B0001278662A0CD1019A0A320AE0FFFFFFFF55
:1037C000FFFFFF7F02FCFFFF0000E03FFFFF0F80D5
:1037D0000622139B1B6B9A18142A00DD1422302337
:1037E0006C46237505AB5C1C02E002A803C8049A72
:1037F000002A3CDD02AB03C3049202A803C800F018
:1038000085FB0F9006460834042530000A2100F09D
:103810009CFC0F0030000A2100F097FC06003037B6
:10382000601E077030000A2100F08FFC0F0030008E
:103830000A2100F08AFC0600A41E303727706D1E96
:10384000E3D108340498083804900028CDDD0F989F
:1038500000F074FB02000B0002A803C800F0E5FBB7
:1038600000223C4B00F04BFA02AA03C2C5E705A8B0
:10387000401C211A05A8421C019802E0491E401E66
:10388000521C1378302BF9D00190684600786628D6
:1038900002D10198401C06E068460078652801D1F5
:1038A000012000E00020139B1B6B1818814200DAF6
:1038B000481E00281DD4884204DA115C352901DB3A
:1038C000392300E030230400511E0D1901E0401E91
:1038D0006D1E641E2E789E42F9D0392B02D1135DE5
:1038E0005B1C1355002C04D50A00401C0199491C8F
:1038F000019169460881019800B20090029B1BB2B9
:1039000014A80178139800F027F815B0F0BDC61D73
:10391000002F00DD95E605A9481C331A05A8421CB6
:103920000098834200DC1800002800D50BE798427D
:1039300000DBDBE64B1C1B5C072B00DCD6E60F2311
:10394000D5E60000FF07000097750000A086010083
:103950000000F03F84D79741F6B583B006000F0012
:103960001C0000F0ABFC406A007869460870356BBB
:10397000002C03DC012400BFA3A0049020203843C6
:10398000662803D10A9F3FB27F1C1AE0672800D047
:1039900085E00A9800B20321C943884200DA82E038
:1039A000A84200DB7FE00A9F3FB27F1C3820305CDA
:1039B000000702D4AC4200DA250038B22D1A00D537
:1039C0000025B169F06840183AB2002A26DC491C8B
:1039D00030220270002D03DC3820305C000704D553
:1039E00068460078F2685054491CB16138B24142CF
:1039F0008D4200DA6F423FB278427062ED19A54203
:103A000000DA2C0024B2F46122000499F068B36952
:103A1000C018FDF7C3FF281BB062C3E0944218DA58
:103A200022000499FDF7BAFFB0690019B0613FB2F6
:103A3000391B7162002D03DC3821715C090706D542
:103A400069460978F2681154F069401CF061B5626A
:103A5000A8E00499FDF7A2FF38B2B1690918E41B88
:103A6000002D03DC3822B25C120704D56A461278B6
:103A7000F3685A54491CB16121B28D4200DA2C001E
:103A800022B204990918F068B369C018FDF786FFDF
:103A900024B2B0690019B061281B706282E0612F06
:103AA00011D1702712E0AC4204DA3821715C0907A9
:103AB00000D425006D1E00D50025672F01D1652794
:103AC00004E0452702E0412F00D15027B069411C96
:103AD000B161049A1278F3681A540498401C049057
:103AE000002D03DC3820305C000718D5481CB0617D
:103AF0006A461278F3685A54002D10DD641E21B214
:103B00008D4200DA2C0022B20499F3681818FDF7F0
:103B100045FF24B2B0690019B061281B7062F068DB
:103B2000B169401807700A9909B2002904D42B2101
:103B30004170801C049006E02D224270801C04908D
:103B400048426946088500246D460A9800B205E09F
:103B50000A2100F0F7FA2970641C6D1C00B20028DD
:103B6000F6DC012C09DC20203843652805D1302003
:103B7000049908700498401C0490002C28D130202F
:103B8000049908700498401C07E0641E6946095DAA
:103B900030310170401C002CF7DCF168B2698918E3
:103BA000401AF0613820305C1421014010290DD1F9
:103BB0007069B1694018716A4018F1694018B16ABA
:103BC0004018716B884201DA081A306205B0F0BD06
:103BD0000498E0E7F8B50024002B13D007000E008E
:103BE00014001D002178B068B847B060002807D0E5
:103BF000F06A401CF062641C6D1EF3D1002401E0E9
:103C00000024E4432000F2BD3000FEE700BFC9B24B
:103C100000E0401C02788A4202D0002AF9D100203C
:103C20007047FEE780B5002801D100BF07A0064914
:103C30000B68002B03D022220021984701E000F0FE
:103C400041FB222002BD0000E8190020636F6E7363
:103C5000747261696E742068616E646C65723A207A
:103C6000626164206D65737361676500010000E047
:103C7000491C0A78002AFBD1081A7047C9B201E032
:103C8000401C521E002A03D003788B42F8D17047A3
:103C900000207047124224D0994228D970B50025DF
:103CA0001B4202D00C00002109E000240126491823
:103CB0006441944200D3A41A7641F8D3310001261E
:103CC00001E0764109D2001864416D41A41A9D417A
:103CD000F7D2A4185D41B619F5D3300022002B00AD
:103CE00070BD1B42D8D108B500F0F2FA08BD01D171
:103CF0009042D3D202000B00002100207047F0B5A3
:103D00000E005E400125ED072E40B446AE0ADF18D6
:103D10004C18F44208D2F7420ED2640D01D07F0D48
:103D200012D100206146F0BD05D1F74201D87F0DC8
:103D300005D10020C143F0BDFBD1640DF9D00020B6
:103D4000C143490549088FE0E419C902DB02294350
:103D50002B43DB0A460DC00231438E4630B487B296
:103D600095B27D432E0CADB2140C7C43A419260CE5
:103D7000240425439CB27C43A419190C7943270CD5
:103D8000C919A4B20F043C43090C000C97B2474375
:103D90002E0CBE193543ADB2170C4743360CBF1974
:103DA000A6B2BF193E043543240C3E0C36199FB20F
:103DB0004743BF19BCB23E0C89191F0C47437F18FB
:103DC0003E043443390C704680B297B247432E0C00
:103DD000BE193543ADB2170C4743360CBF19A6B216
:103DE000BF193E043543240C3E0C36199FB247439D
:103DF000BF19BCB23E0C89191F0C47437F183E0403
:103E00003443390C77463F0C90B278432E0C80191E
:103E10000604ADB22E43050CA0B22D18120C7A4345
:103E20005019020C80B2240CA4189AB27A431219C9
:103E300014042043120C89181B0C7B43C91830BC96
:103E4000EF0A394203D1B61940414941641E6F124D
:103E5000BF0DE41B0BDBFF19BC4211DA2405002760
:103E60004208AE417841614166463143F0BD641C71
:103E700005D1401C6141CF0201D34908F4E750E766
:103E80005DE730B4012464054D00EC420BD85D00C1
:103E9000EC4208D80C001C4364000443144304D2D1
:103EA000994200D1904230BC7047FCD08B42FAD18D
:103EB0008242F8E730B4012464054D00EC420BD88F
:103EC0005D00EC4208D80C001C436400044314431A
:103ED00004D28B4200D1824230BC7047FCD0994260
:103EE000FAD19042F8E7FEE7F4464A1805D200F00E
:103EF0000FF801D580174008604700F009F801214C
:103F0000C907884200D90800404260474A1812D2C7
:103F1000400DC90208430121C9070843520D402141
:103F20000901521A521C06D452421F3201D4D04009
:103F30007047C017704700207047FEE7010042221B
:103F40001201D21E004207D002D4521E0018FCD526
:103F5000C10A400512058918704700000100EED51E
:103F60004042F446FFF7EBFF0122D20711436047BE
:103F70008B4200D1824205D98446100062468C46AD
:103F800019006346DF184C18640D7F0D3AD0661C8B
:103F9000760537D0E61B352E34DCDB022B43DB0AFB
:103FA0000C0DC9022943C912202E0DDB1700203E3B
:103FB00006D01F00F741F3405F400026012A7741F9
:103FC000C01871410DD217E01700F741F240574079
:103FD000F3415A40B340F3405A40002680185941FB
:103FE0000AD3A21C52050FD0C207012F724117003D
:103FF0004008CB0718434908641C24054208AF4118
:1040000070416141F0BC7047641C21050020F9E754
:104010006B4010E06B40ABE7F742F3D1E943F1E7C7
:104020002442EFD100200021ECE7F0B40125ED0798
:104030000F005F40EED40C00871A9C4105D2C01BD4
:10404000A141D219634169406B40AE0ADF184C1898
:10405000F442E1D2640D7F0DE2D0E61B362ED1DCB6
:10406000DB022B43DB0AA4460C0DC9022943C90A13
:10407000012E28DC04D1D6075208DF073A435B083B
:10408000EF0A76429041994114D039423BD1B6199A
:1040900040414941761C394204D1761C00184941FF
:1040A0003942FAD0B9436746B74208D9A41B240560
:1040B0002143A7E70042EAD13642E8D1A2E7E40A69
:1040C000E10700209EE7202E0BDD203E1F00F3407D
:1040D000F7415F40012A002257417E4298419141B9
:1040E0000BE01700F741F2405740F3415A40B3400C
:1040F000F3405A407E42904199410A0303D2641E24
:10410000B619404149410027641E24054208AE41CA
:1041100078416141F0BC7047F446002804D449421C
:1041200000F013F8404260474042002905D45FD0B8
:1041300000F00BF8404249426047494200F005F860
:104140004942604703460B43E6D40022030A8B42F0
:104150000BD203098B4219D243088B422ED2411A4B
:1041600000D20146524110467047FF2209023FD05B
:1041700012068B4205D3121209028B4201D312128E
:10418000090203098B4219D300E0090AC3098B42D3
:1041900001D3CB01C01A524183098B4201D38B0159
:1041A000C01A524143098B4201D34B01C01A5241FC
:1041B00003098B4201D30B01C01A5241C3088B4241
:1041C00001D3CB00C01A524183088B4201D38B002C
:1041D000C01A524143088B4201D34B00C01A5241CE
:1041E000884200D3401A5241CFD201461046704750
:1041F00008B500F06FF808BDF0B40E005E40012570
:10420000ED072E40B446AE0ADF184C18F4423BD2FC
:10421000F74241D2640D43D07F0D38D0E41BC90270
:10422000DB0229432B43CF0ADB0A0600B61A9F4163
:1042300004D2641EB6197F41B6185F416812800D22
:1042400024180018844222DAE80C0021B6197F41B4
:10425000B61A9F4102D2B6185F413F1C4041494106
:10426000F4D3241C21DD2405B6197F41B61A9F41E1
:1042700005D33743C60737430026012F70416141FC
:1042800066463143F0BC7047FCD1F74205D20020AE
:10429000C14349054908F3E704D00020C143F1E7D1
:1042A0007F0DFAD000206146ECE72442FAD1401C91
:1042B00061410F03F6D30020E2E7FEE700487047B4
:1042C0000000002080B5012000F006F801BDFEE7E7
:1042D0007047FEE77047FEE780B500BF00BF024AA7
:1042E00011001820ABBEFBE7260002005D485721F5
:1042F0000170A821017088205B490880704700B5D3
:10430000C0B2002812D002282CD01DD304283CD0E3
:1043100032D306284CD042D308285BD051D30A2888
:104320006BD061D30C287CD071D383E04D485721EA
:104330000170A82101704D480178FB220A400270EB
:10434000C8204949088075E0464857210170A821D6
:1043500001704648017804220A430270C82042498D
:10436000088067E03F4857210170A8210170A22012
:1043700080003D4908805DE03A4857210170A8213E
:1043800001703B483849088054E036485721017095
:10439000A821017081208000334908804AE031481B
:1043A00057210170A821017088202F49088041E021
:1043B0002C4857210170A821017002202A49088049
:1043C00038E0284857210170A821017004202649AF
:1043D00008802FE0234857210170A8210170932005
:1043E00080002149088025E01E4857210170A8213E
:1043F000017020481C4908801CE01A4857210170B0
:10440000A8210170952080001749088012E0154806
:1044100057210170A8210170962080001249088060
:1044200008E0104857210170A821017012480E4978
:104430000880FFE700BD00B50A4957220A70A8228C
:104440000A70C0B2002805D1074801880B4A0A400B
:10445000028005E004480188802292000A4302801D
:1044600000BD000040100040081000402F10004028
:10447000020200004F0200005E020000FFFD00008B
:1044800000200008000800000400000000280008C8
:1044900000080000050000000030000800080000CF
:1044A00006000000003800080008000007000000B7
:1044B0000040000800080000080000000048000854
:1044C000000800000900000000500008000800007B
:1044D0000A00000000580008000800000B0000005F
:1044E00000600008000800000C00000000680008E0
:1044F000000800000D000000007000080008000027
:104500000E00000000780008000800000F00000006
:1045100000800008008000001000000080B500F05E
:104520000BF81C4800F03EF800F050F81A4800F074
:1045300039F800F059F8F9E710B580242402042175
:104540002000FEF70DF8154801680C4304601021A7
:10455000012000F053F8032000F0A2F80220FFF73A
:10456000CEFE0120FFF767FF8024A4000C480168FD
:1045700021430160012180204000FDF7F1FF03216C
:104580002000FDF7EDFF00F09BF8002000F0B8F8E8
:1045900010BD00009448000060480000AC100040CE
:1045A000A81000400EB4C0B5020003A8019000207E
:1045B000009001AB0121044878440C30FEF7E4FB85
:1045C000029906B0084700BF7302000080B5FEF7ED
:1045D000CCF8FEF75BF8FDF77BFBFEF7FAF8FEF789
:1045E0005DF8FDF7A9FB01BD80B5FEF753F8FDF7B7
:1045F00086FBFEF757F8FDF7A8FB01BD00B5C0B27A
:10460000002818D1184857220270A8220270080604
:1046100004D516480278FD2313400370144802782D
:104620001C230B409A430270124802788907890FB5
:104630008A43027017E00C4857220270A8220270C9
:10464000080604D50948027802231343037008487A
:1046500002781C230B401343037006480278890735
:10466000890F1143017000BD401000400E10004042
:104670000A1000402F10004000B5002207E000BFE4
:1046800000BF0B00591E9BB2002BF8D1521C110029
:10469000030089B29BB2994201D20221F1E700BD29
:1046A00038B50500002404E0FA208000FFF7E4FF9D
:1046B000641C2000290080B289B28842F4D331BD45
:1046C00010B50024E120400200F00EF887201549C3
:1046D00008700320204314490870402013490870D3
:1046E00001201349087010BD00B501001148FFF703
:1046F0002CFD401D0A21FFF728FD0F49088000BD51
:1047000008490A789206920E80011043087070479B
:1047100000B501000A4A117008490978C9B2082990
:10472000FAD000BD023400400334004001340040A0
:104730000E340040005A62020C3400400B3400403A
:104740000834004070B40123002413E00168001D08
:10475000194202D04D466D1E49190C60091D121FE9
:10476000042AFAD20D00960701D50C80AD1C1A4020
:1047700000D02C700268001D002AE7D170BC704781
:1047800030B501684118446862088A188368E407F4
:104790000DD54C461B190AE00C7864B2491C0D7803
:1047A000491C1D705B1C002C05D5641CF9D191427D
:1047B000F2D10C3030BD641EF1D5F8E710B50749D1
:1047C00079441831064C7C44163404E0081D0A680C
:1047D000891888470100A142F8D110BD08000000E7
:1047E0002400000061FFFFFF80190000840000200A
:1047F000000000008DFFFFFF02010000B800000074
:104800000000002000F00DF8002801D0FFF7D6FFCF
:1048100000BF00BF002000BF00BFFFF77FFE00F019
:1048200002F80120704780B500F002F801BDFEE7F4
:1048300007463846FFF750FDFBE738B505000C008A
:10484000200000F005F8A04200D00025280032BD6D
:1048500080B50249FFF75CFF02BD00BF38000020B1
:10486000626F6F74206C6F616465722072756E0D7B
:104870000A0000006E616E004E414E00696E6600D7
:10488000494E46000148804701480047ED4200007C
:10489000A1480000506F776572206F6E0D0A00000E
:1048A00000BF00BF00BF00BFFFF7ACFFFFFFFFFF6F
:1048B000FFFF00004F70656E424C5400ADDE1223C6
:1048C00063825363FFFFFFFF00000000FFFFFFFF55
:1048D00000002E00FEE7FEE7FEE7FEE7FEE7FEE74C
:1048E000FEE7FEE7FEE7FEE7FEE7FEE7FEE7FEE7A0
:1048F000FEE7FEE7FEE7FEE7FEE71BD0480000D03C
:10490000480000D0480000D0480000D0480000D047
:10491000480000D0480000F8FF0BD2480000D04803
:104920000000D0480000FAFF150000020401014019
:10493000180020901800204018002040180020FC8B
:10494000000340180020FC00077C000020680000E5
:0649500020E0000104015B
:04000005000048A10E
:00000001FF
