:10000000081E00207D340000B9300000FB1F0000F6
:1000100000000000000000000000000000000000E0
:100020000000000000000000000000000F2200009F
:1000300000000000000000008F2C00007D1900006F
:1000400075310000D3300000DD300000E7300000E3
:10005000F1300000FB30000005310000C930000025
:100060000F310000193100007F310000893100009C
:10007000233100002D3100003731000041310000F4
:100080004B31000057310000613100006B3100003E
:10009000F0B4C27853185A4AD3710C0A85782E19D5
:1000A00096714578557100781071F7B2A74205DA5C
:1000B0006D1C55712D0601D1401C1071DBB2C8B208
:1000C00083420BDA761C9671360607D15079401CB4
:1000D0005071000602D11079401C1071F0BC7047BD
:1000E00030B48A18521E91420DD20AE00C782402D4
:1000F0004D786419001985B2A4B2A54200D2401C03
:10010000891C9142F2D3914206D109780902401824
:1001100082B28A4200D2401C80B230BC704780B5A7
:10012000142238490020FFF7DBFF010001D13648D7
:1001300002E00102000A084380B202BD38B5334C28
:10014000217C0902627C8D18143D082221001A319D
:10015000281880B2FFF7C4FFAAB221002231FFF7AE
:10016000BFFF010001D1284802E00102000A084354
:1001700080B232BD224800218181254B59768022F0
:10018000D2000282234A9180012101727047F2B4A9
:10019000010020488388FA24E401194A158A6D1C5D
:1001A000AEB2A64201DB80256D011582158A2E02B2
:1001B0002D0A3543AFB2BB42F0D0002B09D16B46BC
:1001C0001B88002414728580C380002905D101603A
:1001D00007E001201072002005E00A8802804988AB
:1001E000418040210172F2BC7047054900220A7229
:1001F0008A89002A01D188817047012008727047DE
:10020000C8190020A60C0020FFFF0000980C002059
:10021000E416002054190020FEB5B64C676CB64DAC
:10022000042800D19CE0B54E310036312164310004
:100230003631696103280DD1787E0007000F03284D
:1002400002D1388A002871D00020A0873421605460
:1002500003B0F0BD02286ED1E878401CE8700006BB
:100260000CD1A878401CA870000607D16878401C03
:100270006870000602D12878401C28700020A087F2
:100280006881797E072901D0052907D1B97E491CEB
:10029000B976C9B27829D7D17876D5E70029D3D0F5
:1002A0003A8A002A3ED0BA7E531EBB76002ACBD1B2
:1002B000FA7E082A05D0022901D001290AD1052A8F
:1002C00008D1787680203421605400F09AFE142002
:1002D00000F01BFD052A01DB302101E003219140E4
:1002E000B976521CFA76E18C491CE184797E0907C3
:1002F000090F012900D100E3022900D1FEE2032900
:1003000009D0042900D1C2E3062900D1BFE308299E
:1003100000D1BCE398E704203421605400F071FE62
:1003200000F058FC0807000F03288DD10820342165
:10033000605400F022FC052848D1A06C8088002879
:1003400082D00020606431002A31216431002A31DA
:1003500069616881A08708203421605401F015F993
:100360006889002800D16FE701001C31A187634E26
:100370000A04120E32747174A16C0A7AB2751122D9
:10038000F275083002020004000E1043F0840020D1
:10039000308588887084C888B084208F7083608F8F
:1003A000B0830888F0834888308430003630206479
:1003B0001120FFF7C3FEC1433185308D002801D0E5
:1003C00000F06FFD7448308500F06BFD6088401CC4
:1003D0006080B07B452809D02088401C2080E088C0
:1003E000401CE0806D4801F02DFA2DE7307C0002C2
:1003F000717C4018A18F81420EDBA087307D800682
:1004000002D1707D002809D02088401C2080A0895E
:10041000401CA0816248E6E76248E4E7208F00289C
:1004200002D1608F00280BD0F08B218F884203D13E
:10043000308C618F884203D02088401C208003E7E5
:10044000554FFFF76CFEB84207D02088401C208033
:10045000E089401CE0815448C5E7F07D06280BD1B7
:10046000A08B401CA0830620FFF768FEB84200D096
:1004700089E04E4F3846A8E0112831D1A08F1C38B2
:10048000A08730002A302064308D00285FD1484892
:10049000A064403000908A22D201A06C818800299B
:1004A00017D0B38C8B4214D1C188002904D0738C2F
:1004B0008B4201D091420CD10188002954D143884C
:1004C000002B56D0738B8B4203D1B18B438899425A
:1004D0004FD04030A06400998842DED3354882E78F
:1004E00001280DD02088401C2080208A401C2082BA
:1004F000314878E7BC180020C8190020980C00206B
:10050000A08A401CA0822220305C082807D0608A84
:10051000401C6082208B401C2083284863E7002019
:1005200022217054B08C2649884201DB093000E05A
:100530000830B084708BF083B08B3084208F708350
:10054000608FB083E08A401CE08200F0BFFC112085
:10055000FFF7F4FDB8429AD0A08D401CA085608EB4
:10056000401C6086D1483EE7B942ABD14388BB42CC
:10057000A8D10020606402213422A15431002A3124
:1005800069616881EAE6608B401C6083208C401CB6
:100590002084C74827E700BFFFFF0000242E00008B
:1005A0007C2E00004C2E0000942E0000E41600204B
:1005B00054190020F02E0000A82E0000C42E0000C8
:1005C000F7FF0000942149007F18B84201D200F0E3
:1005D00083FC797E0029F5D0B18CBA889142F1D1A3
:1005E000718CFA889142EDD1718B3A889142E9D1B0
:1005F000B18B7A889142E5D1676420003430009055
:100600000020009908702F20305C410700D58CE154
:100610002E21715C090989002972A28F511A14399F
:10062000A1877A7E1207120F022A03D18206920E48
:10063000122A1BD0090401D1810717D02621715C31
:100640003A7A914200D05FE32721715C7A7A914235
:1006500000D059E32821715CBA7A914200D053E36B
:100660002921715CFA7A914200D04DE3C00640D551
:10067000398A00293DD038000C30FFF709FD287970
:100680002A21715C814234D12B21715C6A799142BB
:100690002FD12C21715CAA7991422AD12D21715C34
:1006A000EA79914225D1387368797873A879B8735B
:1006B000E879F873F87E002814D1B87D397EBA7EC7
:1006C000891AC208891A49B24018B875002900D59C
:1006D0004942FA7D51189208891AF9750006C00E30
:1006E00040183876012000990870387EB8760020CE
:1006F0003882787E0107090F491E072900D9A3E532
:1007000001A24900525E97440E00360220030E05F6
:100710007A065407FE05FA043420205CC00700D492
:1007200092E50320787640200099087000203882F6
:10073000A18F002900D11EE24220009A1070606C47
:100740000830FFF7A5FC2879616C08726879616C44
:100750004872A879616C8872E879616CC8720AE2A3
:100760002872608D401C60852F20305C400700D5CA
:100770006AE5A08C401CA08414202F2170542820EE
:10078000A08750202E2170542920305C28722D2102
:10079000715C2922B1542D2170542821715C297279
:1007A0002C21715C2822B154297A2C22B1542721A2
:1007B000715C29722B22B25C2723F2542B22B15494
:1007C0002622B25C2A722A23F35C2627F3552A23B9
:1007D000F254401C2D23F05400060ED12C20305C26
:1007E000401C2C23F054000607D1491C2B20315407
:1007F000090602D1521C2A203254708CB18C7184AB
:10080000B084708BF083B08B3084208F7083608FC6
:10081000B08335E3072905D02872208D401C208540
:100820007848E0E5784F287267640321B976397615
:100830000021B9750421F9750021F976B18CB980D0
:10084000718CF980718B3980B18B798078762978B9
:10085000397369787973A978B973E978F97338824B
:100860002920305CF8722820305CB8722720305C78
:1008700078722620305C387201216448FFF708FC4A
:100880002879387268797872A879B872E879F8723C
:100890002E20305CF0220240512A2EDB00212972EA
:1008A0000009401F8000009006E000BFDC2E000021
:1008B000142F0000401C2872287A009A90421CDAFB
:1008C00032183621515C0B0017D00129F2D03723A2
:1008D000D35C022901D1042B03D0002B0DD0C0180A
:1008E000E9E73820105C00023921515C0843484A8E
:1008F000904200DB501E7882B88210202F21705465
:100900000220715C02220A432F2172543621705456
:100910000420372170540620382170540A203921D0
:1009200070542C20A0876020F4E1002078763948AC
:1009300000F088FF20200099087000F062FB83E43B
:100940003420205CC00767D52F20305C8006800EE5
:10095000122861D12E20305CF021014051292ADB80
:10096000002000E0401C2872287A2E22B25C120976
:10097000521F920090421EDA32183621515C0B0051
:1009800019D00129EED0022903D13721515C042965
:1009900005D03721515C00290DD04018E3E73820FD
:1009A000105C00023921515C0843194A904200DB77
:1009B000501E7882B882032078762620305C387208
:1009C0002720305C78722820305CB8722920305C97
:1009D000F8720121606C0830FFF75AFB2879616CCE
:1009E00008726879616C4872A879616C8872E879DC
:1009F000616CC87242200099087000203882A0877C
:100A0000BAE000BF282F0000E4160020EC160020FA
:100A10000B0600004C2F000020200099087000F009
:100A2000F0FA0020616C48769EE62F21715CCA07BF
:100A30002FD5C0062DD4388A002801D0FFF704FC3A
:100A4000A18F491C89B2606C0830FFF721FB28791F
:100A5000616C08726879616C4872A879616C8872FF
:100A6000E879616CC8723420215C10200843A18FA2
:100A7000002902D00100022008430099087000F00C
:100A8000C0FA01203882082078760020F8761120FC
:100A90003BE1880610D53520305C3421715C236C35
:100AA0009C460B0202001A4363469A182264A28FE6
:100AB00009020143501AA087A08F002847D0797EF1
:100AC000C90644D43421615C02220A4300990A70A9
:100AD00069460880606CC17A6A4612888918E97193
:100AE00069460988090A6A465180817A52888918BC
:100AF000A971417A6971017A2971AA796B465B887B
:100B00009A4206DA6A79521C6A71120601D1491CAE
:100B10002971E9796A461288D2B291420CDAA97930
:100B2000491CA971090607D16979491C697109062F
:100B300002D12979491C2971297901726879616C7E
:100B40004872A879616C8872E879616CC87230204B
:100B5000305C00023121715C4118B88A8BB2984236
:100B600001D30A0400D1010079823420205C80077F
:100B700001D1FFF769FB0020688100F042FA3420C0
:100B8000205C810604D50020688178761420BCE0C2
:100B9000C10608D5002068810121398204217976B7
:100BA000F8761120B1E06989002911D0C00702D57B
:100BB0000020388202E0388A002808D1788A6989C2
:100BC000884200D9080068816889388200E068811D
:100BD0000020F876686920646889002806D0388A81
:100BE000002803D02830A087182008E03420205C9B
:100BF000800701D4FFF728FB2820A08710202F2191
:100C0000705486E03420205CC00701D4FFF71CFB41
:100C10000020787610208EE6A08F00283ED069460E
:100C2000C880606CC17A6A46D2888918E9716946C1
:100C3000C988090A6A469180817A92888918A971BF
:100C4000417A6971017A2971AA796B469B889A4227
:100C500006DA6A79521C6A71120601D1491C29719F
:100C6000E9796A46D288D2B291420CDAA979491C54
:100C7000A971090607D16979491C6971090602D170
:100C80002979491C2971297901726879616C487246
:100C9000A879616C8872E879616CC8723420215C33
:100CA00000202F22B25CD20765D5C90703D50721E2
:100CB000B876388200E006217976606CC37A5B1CD6
:100CC000EB71817AA971417A6971027A2A711B06E6
:100CD0000AD1AB795B1CAB711B0605D1491C69714C
:100CE000090601D1521C2A71297901726879616C57
:100CF0004872A879616C8872E879616CC8721020BA
:100D00000099087000F07DF910202F2170542820E0
:100D1000A08750202E217054387A2A217054787A76
:100D20002B217054B87A2C217054F87A2D217054EC
:100D3000387B26217054787B27217054B87B28217A
:100D40007054F87B292170540620F075B98871849D
:100D5000F988B184218F7183618FB1833988F183E0
:100D600079883184797EC90600D484E0002031225C
:100D7000B054302183E0C9076BD5052179763882DC
:100D8000FFF762FAA08F00283ED06946C880606CE9
:100D9000C17A6A46D2888918E9716946C988090A00
:100DA0006A469180817A92888918A971417A69711D
:100DB000017A2971AA796B469B889A4206DA6A7988
:100DC000521C6A71120601D1491C2971E9796A46DF
:100DD000D288D2B291420CDAA979491CA9710906CC
:100DE00007D16979491C6971090602D12979491C21
:100DF0002971297901726879616C4872A879616CEE
:100E00008872E879616CC8722F20305CC00720D5E9
:100E1000072078760020B876606C08300190034691
:100E2000D878401CE8719978A9715A786A711B7852
:100E30002B71000609D1491CA971090605D1521C64
:100E40006A71120601D15B1C2B7128790199087017
:100E50004CE7A08F002800D056E7FFF7F5F93420C3
:100E6000205CC00701D4FFF7EFF907207876002057
:100E7000B876FFF7E9F9302170540A203121705417
:100E80004020B075A08F010A3174707400203522A3
:100E9000B0543422B05470860620FFF74FF9C14396
:100EA00071864520B0730020F073B082E889401C41
:100EB000E8810104090EB174F07400203083FFF75B
:100EC0002EF9C1433183E08B401CE083A088401C95
:100ED000A0800020FFF7BAF92F20305C8006800E3A
:100EE000022800D040E4002028720120B18CAA8999
:100EF000914200D034E40D49497E002900D089E4B4
:100F00000A4F91E40102000A084380B270470300CF
:100F1000012900DA704780B5054A51815069834242
:100F200003D05289190000F0D3FC01BDE416002063
:100F3000C819002010B58F4C607800282AD100F025
:100F40004FFB00F00FFDFA2149004018606000F0EF
:100F500009FD89494018A060FFF70CF98748002176
:100F6000018041808648018041808648018041801F
:100F70008548FFF73AF900F041FB20000C3000F003
:100F800032FC062120000C3000F0E8FA00F001FBF2
:100F90000120207010BD77480021417000780028A2
:100FA00000D0704780B5FFF7C5FF01BD714A1278C8
:100FB000012A00D0704730B4744A12681C3213689A
:100FC00053600B0008D0130008330C0005781D7027
:100FD000401C5B1C641EF9D1842040001018091DC0
:100FE0000180012181701068401C106030BC704786
:100FF00080B560480078012801D100F051F8002048
:1010000002BD38B5614804681C34614D287841063A
:1010100009D5012020608420400020180021018093
:101020008170C17031BDC10705D500208421490000
:101030006118C8700BE0400709D5842040002018D3
:10104000C178012903D10188201DFFF760FF2878AE
:1010500000070FD58420400020188178012909D18C
:10106000002181700188002904D00122C270201D56
:10107000FFF74DFF2878800711D546480088011FEB
:1010800041290CDA842149006118C978002906D168
:10109000011FC9B240480068001D00F08FFC31BD3F
:1010A00038B500F0AEFB3B4C002820D020808020DB
:1010B0000001FFF727FF394DA989814208D101209E
:1010C000FFF7AAF82088002811D000F0A9FE0AE056
:1010D0003348FFF717FFA989814208D100F043FE8A
:1010E0002088002803D000F0B3FB0020208000F00F
:1010F00039FC204D6968884221D3FA204000081845
:1011000068602848214908600220FFF785F8208898
:10111000002805D000F084FE00F09AFB002020801B
:101120002148224908600520FFF776F8208800282A
:1011300005D000F075FE00F08BFB0020208000F051
:1011400011FCA968884204D30B480818A86000F075
:101150008BFD14480D4908600320FFF75DF82088D7
:10116000002805D000F05CFE00F072FB002020801B
:1011700031BD00004400002010270000F4180020BA
:10118000001A0020FC19002003E8000000190020CC
:10119000F0180020F8180020FC180020980C0020FF
:1011A00006080000E416002054190020041900204D
:1011B00070B50400012020706070664DA869A070B1
:1011C0000026E670042200BF64A1201D00F080FB11
:1011D00026818020608104225F4920000C3000F0CD
:1011E00077FB04212000103000F0C6FE042120000F
:1011F000143000F0C1FE04212000183000F0BCFEC5
:10120000AA69696920001C3000F062FBA8691021FE
:10121000091A22001C32101800F0AEFE40212000F6
:101220002C3000F0A9FE802120006C3000F0A4FEDC
:10123000042200BF02A12000EC3000F049FB70BD89
:1012400063825363F8B5C44C25682800FFF7B0FFEC
:101250002800F03035210170012141700321817097
:101260003621C170042606712F00F537394D04224E
:1012700029001C31380000F02BFB322038717E71C0
:10128000BE1D042229002431300000F021FB301D56
:10129000FF210170411C2068091AFFF738FEF1BDDB
:1012A000F8B5AD480568287802284ED1042200BF61
:1012B0002AA1281D00F079FE002846D1254CA269FC
:1012C000616928001C3000F070FE00283DD1042226
:1012D000290010312000243000F0FAFAF035B74828
:1012E00000882E1800270DE00422A91C20002830B9
:1012F00003E00422A91C2000303000F0E9FAA81C09
:1013000069784518B54222D228780128ECD0032804
:10131000EFD0062814D0332806D035280ED0362832
:1013200007D0FF2813D0EAE70422A91C20002030B0
:10133000E3E70422A91C20001C30DEE7AF78DEE7DB
:101340000422A91C20002C30D7E70020F2BD380071
:10135000F2BD000094190020F4180020ADDE122325
:1013600070B5974C2088002816D0FF211031401A04
:101370003ED0401E3ED0153867D0401E68D02F3872
:1013800000D19FE0401E00D19FE0143800D1B5E0AD
:10139000401E00D1B5E0DAE00120A070FA20800004
:1013A00020616D4D2E683000FFF702FF3000F030F5
:1013B000352101700121417081703722C2700322F2
:1013C0000271417182710621C1713000F830FF2134
:1013D0000170411C2868091AFFF799FD2169200056
:1013E000083000F0F6FDFF2010302080032070BD93
:1013F000481C20800225734E3078284206D12000F8
:10140000083000F0EDFD002800D185E0307828425A
:1014100005D0FFF745FF022801D1A57008E020693B
:101420006949884201DA40002061A0780228B8D1D9
:10143000FA2080002061FFF705FF216920000830B5
:1014400000F0C7FDFF202630CFE79320400020802A
:1014500002255C4E3078284205D12000083000F08B
:10146000BFFD002858D03078284203D0FFF718FF7E
:1014700005285AD020695549884265DAFA21890041
:1014800040182061A0780328D5D1200000F086F80C
:10149000208CFFF737FD0504608CFFF733FD054313
:1014A0006808FA218900484380210906884200D350
:1014B000C843206101462000083000F08AFDFF206B
:1014C000563092E7AB20400020802000083000F02A
:1014D00087FD002820D00220A070FA208000206123
:1014E0003B48002101804180FFF7ACFE21692000CC
:1014F000083000F06EFDB520400076E7FF206C302C
:10150000208002252F4E3078284207D12000083055
:1015100000F066FD002801D1002070BD307828421F
:1015200006D0FFF7BDFE052802D10320A070ACE76E
:1015300020692649884207DAFA218900401820618B
:10154000A0780328D0D1A0E70020208070BD002023
:101550002080022070BD0000FC18002038B5184C17
:101560006061A1610025A5701A486946088048801D
:101570008621C9016846FEF70AFE6060002802D095
:101580008821C9018180258031BD80B5FFF7E8FE43
:1015900001BD0F4800210180418070470C49828CB9
:1015A0000A80C28C4A800C49028D0A80428D4A8092
:1015B0000A49028E0A80408E48807047F818002041
:1015C00094190020F018002060EA000011270000A4
:1015D000F4180020FFFF0000001A0020FC19002072
:1015E000AC480178FB220A4002700178C0220A430D
:1015F000027001788906890E01707047F8B50424DD
:10160000A54F7C71032038710220F870E420B87077
:10161000C2207870842038700421802000F012FDF0
:101620000421102000F00EFD9948006810210143AC
:10163000974801604068802101439548416097497F
:1016400057200870A820087095480278DF231340BF
:101650000370FD2283781340837000230B70914D3B
:101660002B702978D8230B432B70297804230B4344
:101670002B70FF216970C021AB780B43AB702B79C5
:101680001943297129798906890E29710021697503
:10169000697DBF230B406B75697DF7230B406B752C
:1016A000697DFB230B406B75697DA3230B436B7531
:1016B0000121AB7D01261E43AE75AB7D1A40AA7594
:1016C000AA7D04231343AB75AA7D08231343AB758E
:1016D00064226D1C2A836D1EEA7D20231343EB7563
:1016E000EA7D10231343EB75EA7DFB231340EB7572
:1016F000EA7D1143E9756C496D1C6983401C818941
:1017000040220A4382813800103028816D1E2879DA
:1017100004432C716E781020687021206349087092
:101720006D1CA88B6D1E00F01DF9040005E0001B68
:101730005F49884217D200F0C5FCF00613D46E78DA
:10174000102068702120594908706D1CA88B6D1EEF
:101750000020009000F006F900900098A042009848
:10176000E5D2401EE3E74A48416810220A4342603E
:101770004E487979017139794171F9788171B97877
:10178000C17179780172397841724A4839780170AB
:1017900079784170B9788170F978C17039790171BF
:1017A00079794171F1BDFEB53B4C207A002818D003
:1017B0008027374D286838432860E068019000266C
:1017C000009600F0CFF800900098019988420098A8
:1017D00000D2401E401A642803D3686807436F6034
:1017E000267203B0F0BD2C490A7802704A78427024
:1017F0008A788270CA78C2700A7902714979417117
:10180000704770B52C4D287840212970084216D0B9
:10181000214C207A002804D10120207200F0A2F887
:10182000E0606E8925490E806A89210010312448C4
:1018300000F04EF8200010302881300070BD0020EC
:1018400070BD000080B501001FA000F03FFC01BD8D
:1018500038B5114C207A002804D10120207200F004
:1018600081F8E06017482418144D2A881449200094
:1018700000F02EF81048082101702A88C280848068
:10188000C27808231343C37002780A42FCD031BDEA
:10189000C810004007900040A00000204010004009
:1018A0000D10004003900040F4050000249000401B
:1018B00088130000E819002004900040F818002068
:1018C000980C00200406000025730D0A000000009B
:1018D000124207D08B0706D00B78491C0370401CBE
:1018E000521EF7D87047830706D00B78491C037047
:1018F000401C521EF9D1704770B4103A03D378C916
:10190000103A78C0FBD2530701D318C918C001D5CB
:1019100008C908C0D20704D30B880380891C801C27
:10192000002A01D50B78037070BC7047164800215F
:10193000016041608160154A426081600522026059
:1019400013480160704710480021016041608160C8
:1019500070470D480068C00303D50D480168491C55
:101960000160704700E00000094807490968C903A1
:1019700002D50168491C01600068704780B50548C0
:101980000068804701BD000010E000E07FBB000060
:10199000F81900203C40000010B40020AE49088037
:1019A0000A0044325060432408551080887010BCEF
:1019B00070470020A949087070470000F8B504007E
:1019C0002078A54FFF2826D10020787001243C7094
:1019D000FF21F97010213971787100F0ABFBB871FB
:1019E00000F0B1FBF87100F0AEFB000A38727C72B7
:1019F000BC7208204421785200F0BEFB4320385CC2
:101A0000012800D01AE1FE20F87010203871022061
:101A10004421785216E13978012900D01AE1C92809
:101A200000D194E0CC2800D100E1CF2800D1F7E02C
:101A3000D02800D1A6E0D12800D1DFE0D22800D103
:101A4000D1E0F32841D0F4282AD0F5280AD0F6288E
:101A500032D0FA2857D0FC2865D0FD2867D0FE2860
:101A60006FD0E7E000F066FB6278401E904207DA34
:101A7000FE20F87022203871022044217852BDE700
:101A80003D0044356968381D00F0ADFBFF20F8705B
:101A900068686178401868606078401C2880ADE70D
:101AA00000F048FB401E61788842E1DB61683D0040
:101AB000443569606278E6E7FF20F870380044300A
:101AC000616841600121018098E7FF20F870666835
:101AD00038004430009044680025002E06D020785D
:101AE0002D18641C00F0EEFA761EF8D1EDB2FF1C42
:101AF0007D60FF1E0120387100207871B8710820C8
:101B0000009908807AE7FF20F8703900443100BF5F
:101B100053A048600020B880B8710720FF1C78608F
:101B2000FF1E0820EDE7FE20F8700020A3E7FF204D
:101B3000F8700020387179787971F8803872062051
:101B40009BE700203880FF20F870012095E700F027
:101B5000F1FA3D004435621C411E686800F010FB3C
:101B6000002805D1FE20F87031203871022095E759
:101B7000FF20F87000F0DEFA6968401E08186860FF
:101B800001208BE700F0D6FA3D004435801E6178D5
:101B9000884205DAFE20F8702220387102207DE7A5
:101BA000FF20F87001202880617800290AD100F018
:101BB000F7FA002800D021E7FE20F87031203871B4
:101BC00002206BE7A21C686800F0DAFA002805D151
:101BD000FE20F8703120387102205FE76868617874
:101BE000401868600AE7FF20F8700024BC8000F00D
:101BF000A1FAB871FC713C8107203EE73D004435F5
:101C00006168686800F0C0FA002805D1FE20F8700D
:101C100031203871022041E7FF20F87001203DE7B4
:101C200000F0CAFAFF20F870012026E7FE20F870C5
:101C3000312020E7FE20F87020201CE74420385E89
:101C4000012807DB0120432178544420395AF81C2D
:101C500000F065FAF1BD0000081900204B190020C2
:101C60004F70656E424C5400F8B5AF4C65786D1CF2
:101C700065700026AD4FEDB238887988014307D0F2
:101C8000B87A281A782803DB0421380000F074F9A8
:101C9000761C0C37F0B20828EEDB2670F1BD7AB561
:101CA00082B00021A04C21705C4D2A88002A08D007
:101CB0006B88002B05D00688964202D142889A4252
:101CC00049D02278521C22700C35D2B2082AECDBA3
:101CD00001900020514A13001C002588002D02D1DC
:101CE0006588002D04D0401C0C33C5B2082DF3DBF1
:101CF0008D4B1870187808281ED110000A300093F8
:101D00006C462180884B5B7804786D466D781E1B8D
:101D1000B54204DA1B1B6C4663706B461970491C94
:101D20000C30CBB2082BEDDB684600787E4908709A
:101D30004100081880001418042201992000FFF7C0
:101D4000C7FD06220299201DFFF7C2FD76484078A4
:101D5000A07204B070BD06220299281DFFF7B8FDDD
:101D60006078A872F5E7F8B50020714E31882A290D
:101D7000308051D36F4CA08A80214900884203D023
:101D80004900884239D0F1BD6B4DE08C29888842EA
:101D900042D1208D698888423ED121001631200031
:101DA0001C30FFF77CFF80208000A08206222100EB
:101DB000163120002030FFF78BFD604F06223900DE
:101DC00020001630FFF784FD06223900A01DFFF722
:101DD0007FFD0622210020312000FFF779FDA08B36
:101DE000E084E08B20852888A0836888E083C12078
:101DF000C000A0812A203080F1BD4F48E18C0288CC
:101E0000914209D1218D4088814205D121001631AE
:101E100020001C30FFF743FFF1BD00000C1800202C
:101E2000F8B54748434CE18B814205D1218C814272
:101E300002D1062246A167E0424801883E4A158841
:101E4000394EE28B0A4029408A4207D14088218CD2
:101E50000140394A52881040814204D03A480188F2
:101E6000B180408802E0E08BB080208CF0800021BF
:101E70002E4A1000B3886F463B806B461B8807884C
:101E8000BB4203D1F3884788BB4204D0491C0C32C3
:101E9000CBB2082BEDDB31703178082932D1FF222B
:101EA0000621200000F058F806212000203000F024
:101EB00063F806222149A01DFFF70AFD06221F49EB
:101EC00020001630FFF704FD68460088E084F088A3
:101ED0002085A58318484088E08380204000A082A8
:101EE000E081082020820620A0740420E074C12034
:101EF000C000A08120003630144908602A200C4917
:101F00000880F1BD0622011D2000FFF7E1FC06223A
:101F10000A49A01DFFF7DCFC0820A08104480188C5
:101F20000E310180F1BD0000F01900200C180020D6
:101F3000F8180020980C0020F4180020E819002060
:101F4000FFFF0000001A0020FC190020FC180020F0
:101F5000FFFFFFFFFFFF00001206130A1A43130CD6
:101F60001A4300BF094205D0830707D00270401C06
:101F7000491EF9D1704700000022F3E71300103921
:101F800006D330B41400150010393CC0FCD230BC6C
:101F9000490700D30CC000D504C0890002D30280D9
:101FA000801C002900D50270704710B402E0401C6C
:101FB000491C521E002A09D00B7804789C42F6D0A6
:101FC00002D20020C04302E0012000E0002010BC4B
:101FD000704710B50400616000F015F9206010BD75
:101FE00010B5040000F00FF92168401A61688842BA
:101FF00001DB012010BD002010BDFEE7002906D046
:1020000002290FD006D3042918D013D37047C14337
:10201000284845E0C143274A53690B40536113697F
:10202000184306E0234A516901435161C1431069D5
:1020300008402BE01F494A69824302E01D494A6972
:10204000024328E0002906D002290FD006D3042934
:1020500018D013D37047C143174821E0C143164A33
:1020600053690B4053611369184306E0124A5169E2
:1020700001435161C1431069084007E00E494A69B4
:10208000824302E00C494A69024304E0106110688F
:102090000140116070474A610A6810430860704748
:1020A00042690A40426102690A40026102681140C5
:1020B00001607047A0100040C010004080B500F0E3
:1020C000C6F801BD80B500F0CAF801BD0EB4C0B5B8
:1020D000020003A801900020009001AB01210448F8
:1020E00078440C3000F0D2F8029906B0084700BFDF
:1020F0006713000080B5FFF74FFC01BD1CB51D4CF8
:102100006946201DFEF774FF012806D103202070C8
:1021100068460178201DFFF751FC13BD704780B55C
:10212000144A1278032A02D1C9B2FEF73FFFFFF723
:1021300040FC01BD0F480078401E012801D8002056
:102140007047402070470B480078002803D00228D1
:1021500003D002D303E04020704700207047802066
:102160004000704780B5FEF716FF03200149087054
:1021700001BD00000000002080B500F015FB01BD8E
:1021800080B500F01AFB02BD80B500F03FFB02BD38
:1021900080B500F0C5FB02BD80B500F0EEFB02BDCE
:1021A00080B500F090FB002801D000F0CFFB02BD0D
:1021B00080B500F009FD01BD10B5FFF7E9FF00286B
:1021C0000ED000F035F800280AD0FFF7A7FFFFF780
:1021D000BAFBFFF7E1FF001D046800F0F7FCA04721
:1021E000FFF7C0FF10BD130000D1704770B50C00A1
:1021F0000500160020782870641C6D1CFFF762FF34
:10220000761EF7D170BD80B5FFF7ACFB02BDFEE7CF
:1022100080B501218805FFF715FF01BD144800684E
:102220008021C9030840401E8041C00F7047000054
:1022300080B500BF10A0FFF749FF0D4800684002BD
:1022400001D5002002BD00F0E2FC012002BD80B5F6
:10225000642000F0BDFC012000F0E4FC01BD80B56D
:10226000012004490870FFF79EFA00F0B4FC01BD9C
:10227000C410004043100040676F746F2075736591
:10228000722070726F6772616D0D0A00F8B594B0BC
:10229000070016001D001A98039102A92B228854EA
:1022A0000020099001950BE025290ED00398B8472E
:1022B0000390002800D1EAE00998401C0990761CA0
:1022C00031780029F0D10998E3E0002506950795BB
:1022D00008950022340002E0100001220243641C31
:1022E00020782028F8D023280CD02B2804D02D28A3
:1022F00005D0302809D0CEE010000222EEE7100011
:102300000422EBE710000822E8E710001022E5E7BE
:102310000B950AE00B996A4B994205DA8B00591824
:102320004900081830380B90641C207801003039BF
:102330000A29EFD320782E2803D00020C0430A902A
:1023400028E0641C20782A280AD1019800680199A5
:1023500008600168001D019B18600A91641C19E067
:102360002D2802D12D23641C00E000230A950CE0E7
:10237000002B09D10A99524EB14205DA8E0071182C
:102380004900081830380A90641C20780100303960
:102390000A29EDD302A802852678310049A000F071
:1023A0006BFC002801D03500641C02A82A2145548A
:1023B000405C682807D12078682804D1622002A9EF
:1023C0002A228854641C0EA805902378019A02A939
:1023D000380000F0A9F8661C002858D10B9806991F
:1023E000401A0899401A0799401A0D9002A828210E
:1023F000405C400710D42020694608700D980028E2
:102400000ADD0D9C01236A4602A9380000F0A4F9F8
:1024100000283CD1641EF5D1069B0EAA02A9380003
:1024200000F09AF9002832D1302069460870089CE3
:10243000002C09DD01236A4602A9380000F08CF95E
:10244000002824D1641EF5D1079B049A02A9380004
:1024500000F082F900281AD102A82821405C400728
:1024600000D42DE72020694608700D98002800DC74
:1024700026E70D9C019D01236A4602A9380000F061
:102480006BF9002803D1641E00D10BE7F3E70020AD
:10249000C04315B0F0BD2A2800D039E70198016883
:1024A00001600868091D019B19600B90002804D584
:1024B00041420B91100004220243641C3AE70000E1
:1024C000CBCCCC0C686C747A4C000000622810D025
:1024D000682801D06C2819E0002A0A680A60106890
:1024E00003D0121D0A6000B217E0121D0A6080B20C
:1024F00017E0002A0A680A60106803D0121D0A60FB
:1025000040B20AE0121D0A60C0B20AE0002A0A685E
:102510000A60106803D0121D0A60C1177047121DAF
:102520000A6000217047000070B50C0011001E0009
:10253000E568252E00D185E0582E37D0632E0ED0C9
:10254000642E16D0692E14D06F2E2FD0702E4AD044
:10255000732E54D0752E29D0782E27D078E020699C
:10256000421C22610A680A601368121D0A602B541B
:1025700078E001222A20205CFFF7A8FF20600028D5
:1025800004D52069411C21612D210DE0208D81079A
:1025900004D52069411C21612B2105E0C0071DD510
:1025A0002069411C21612021295417E000222A20A2
:1025B000205CFFF78BFF20602820205C00070DD5F2
:1025C000206800280AD020203043782806D12069CE
:1025D00030212954401C411C21612E5420692818A7
:1025E000A060310007E0086808600268001D08600C
:1025F0002260A5607821200000F036F832E00868FB
:1026000008600568001D0860A560002D07D1002442
:10261000E44300BF5DA000F03BFB201A70BD266ABA
:10262000002E03D5280000F057FB09E032000021FE
:10263000280000F059FB002801D0401B00E03000CA
:1026400060610FE02069411C21612521295409E0C6
:102650002169481C206125226A54310002D0411CA6
:1026600021612E54002070BDF0B583B00A00C4680B
:102670006F2901D1082506E020211143782901D0D6
:102680000A2500E01025182701680E00642A01D0F1
:10269000692A03D1002901D571420E00002E1FD1F5
:1026A000016A00291CD1082D44D12821415C090769
:1026B00040D517273021E1753CE0002A0ED52822AD
:1026C000825C14231340102B08D1426A0369D21A8A
:1026D0008369D21A511A012900DB816103B0F0BD70
:1026E0000290684602707F1E01973000290000F0BA
:1026F00007FB3031C8B23A2803DB6846007851380E
:102700000918E1553000290000F0FAFA060004D05B
:1027100002988068E1198842E5D30298082D09D112
:102720002821415C090705D5E15D302902D07F1ED3
:102730003021E1551821C91B4161E2198260026A0A
:102740009142BADA511A8161018D024A0A4002852A
:10275000C4E70000EFFF0000F8B50024002B13D001
:1027600007000E0014001D0021787068B8477060E3
:10277000002807D0F069401CF061641C6D1EF3D185
:10278000002401E00024E4432000F2BD7072696E71
:1027900074665F733A2062616420257320617267FA
:1027A000756D656E7400000000E000000020C043FD
:1027B0008549086085490860704770B504000D00C0
:1027C00016008348001B691E88420AD3200000F0CF
:1027D0006FF9FF2805D06019401E00F069F9FF2845
:1027E00001D1002070BD3200600A40028021C90181
:1027F000884203D12B002100744802E02B00210005
:10280000714800F0E9F870BD00000000FEB504005A
:102810000D006F48001B691E88420CD3200000F099
:1028200047F906006019401E00F042F90500FF2E2E
:1028300001D0FF2D01D1002043E00124B54200D298
:102840000024082E3BD3172D39D2200038D0300079
:1028500000F048F90190280000F044F9070000BF9B
:10286000ACA669460D700025FFF72CFC307A69464E
:10287000097888421AD06D1C0C36E8B20F28F3DBB9
:102880007F1E0198381A401CC601360C012E17DB3A
:102890008027BF00019DFFF715FC280000F088FA93
:1028A00000280CD1ED19761E0AD0F4E799A0EDB2FC
:1028B000690049198900401840683F18E0E7002482
:1028C000200003B0F0BD38B5404C20680021C9435A
:1028D000884201D1012032BD6068A1684018E168DA
:1028E00040182169401861694018A1694018E169E0
:1028F0004018C143491C0091364D280000F0D8F81B
:10290000FF280BD0E81C00F0D3F8FF2806D00423E2
:102910006A462900200000F05FF832BD002032BD79
:102920008020C00101684268891882688918C268DD
:102930008918026989184269891880690818254927
:1029400009684018401E8041C00F704710B5002430
:10295000E4431E480168A14203D000F07DF800283E
:1029600007D019480168A14205D000F075F8002889
:1029700001D1002010BD012010BD8020C001704792
:1029800038B504000D001148844204D10E4CE8050E
:102990000DD0002032BD8021C9018D4201D104003B
:1029A000F5E7200000F058F80028F0D132BD20688B
:1029B000A84206D02560802292002900201DFFF742
:1029C00012FC200032BD0000DC120020E0140020C8
:1029D000FFE70300C0400000FEB504000D00160034
:1029E0006F0A7F0220680021C943884206D1276010
:1029F000802292003900201DFFF7F5FB2068B842C5
:102A000005D039002000FFF7BBFF040022D03000C2
:102A10002168691A61180E1D8021890079180091BA
:102A2000029F0500FFF74EFB80208000211D711AD8
:102A3000814206D300992000FFF7A2FF040009D0CD
:102A4000261D28783070761C6D1C7F1EEAD101206F
:102A500003B0F0BD0020FBE7FEB50600012069468B
:102A60000870306800F024F8FF2801D1002018E039
:102A70000024351D019601980068A10047182E68B2
:102A8000FFF720FB3100380000F0A3F900280AD13D
:102A90003868B04207D1641C2D1D802CEBD36846EA
:102AA000007803B0F0BD002069460870F7E7000029
:102AB000F8B5002517A426000700FFF703FB3068D0
:102AC000874203D371684018874205D36D1C0C36CA
:102AD0000F2DF2DBFF20F2BD6800401980002018A6
:102AE000007AF2BDF8B500250AA426000700FFF71A
:102AF000E9FA307AB84207D06D1C0C36E8B20F28DC
:102B0000F5DB0020C043F2BDEDB268004019800043
:102B10002058F2BD0040000000080000080000003E
:102B200000480000000800000900000000500000FC
:102B3000000800000A000000005800000008000023
:102B40000B00000000600000000800000C00000006
:102B500000680000000800000D0000000070000088
:102B6000000800000E0000000078000000080000CF
:102B70000F00000000800000008000001000000036
:102B80000000010000800000110000000080010032
:102B90000080000012000000000002000080000021
:102BA00013000000008002000080000014000000FC
:102BB00000000300008000001500000000800300FA
:102BC000006800001600000072B6704762B67047D9
:102BD00012494880704710B5FEF7C4FE0F4C61687B
:102BE000884213D30E48C10B2278002A04D1012257
:102BF00043681943416003E0002203681943016000
:102C00002270FEF7AFFE61884018606010BD044876
:102C10000168C20B0A43026070470000E0190020FF
:102C2000A8100040084957220A70A8220A700028FC
:102C3000887902D1FD22024001E0022202438A711A
:102C4000002008707047000040100040010007D0CD
:102C5000002800BF00BF00BF00BF401E0028F8D101
:102C6000704738B5040006D0FA25AD002800FFF7FC
:102C7000EDFF641EFAD131BD00BFC9B200E0401CB7
:102C800002788A4202D0002AF9D100207047FEE77C
:102C900080B5002801D100BF07A006490B68002BB2
:102CA00003D022220021984701E000F0A9F8222059
:102CB00002BD0000041A0020636F6E7374726169B4
:102CC0006E742068616E646C65723A206261642083
:102CD0006D65737361676500010000E0491C0A7847
:102CE000002AFBD1081A7047C9B201E0401C521EED
:102CF000002A03D003788B42F8D170470020704738
:102D00000022030A8B420BD203098B4219D24308DB
:102D10008B422ED2411A00D20146524110467047D2
:102D2000FF2209023FD012068B4205D3121209027C
:102D30008B4201D31212090203098B4219D300E01E
:102D4000090AC3098B4201D3CB01C01A524183093E
:102D50008B4201D38B01C01A524143098B4201D3EC
:102D60004B01C01A524103098B4201D30B01C01A17
:102D70005241C3088B4201D3CB00C01A5241830891
:102D80008B4201D38B00C01A524143088B4201D3BE
:102D90004B00C01A5241884200D3401A5241CFD250
:102DA00001461046704708B500F030F808BD000035
:102DB000C1050CD1104908608C204871A62008710B
:102DC000887980224A71402801D100207047012073
:102DD000704782070DD1094A506011608C205072F3
:102DE0009A201072907A80215172402801D10020DF
:102DF0007047012070470000041800400018004090
:102E000080B5012000F004F801BD0000704700000B
:102E100080B500BF00BF024A11001820ABBEFBE71F
:102E20002600020069703A20696E76616C69642040
:102E300076657273696F6E206F7220686561646574
:102E400072206C656E6774682E00000069703A200D
:102E50007061636B65742073686F7274657220743F
:102E600068616E207265706F7274656420696E208F
:102E70004950206865616465722E000069703A20CF
:102E8000667261676D656E742064726F70706564E0
:102E90002E00000069703A206261642063686563F7
:102EA0006B73756D2E00000069703A206E65697451
:102EB00068657220746370206E6F722069636D7034
:102EC0002E00000069636D703A206E6F7420696394
:102ED0006D70206563686F2E000000007564703AA5
:102EE0002062616420636865636B73756D2E0000FA
:102EF0007564703A206E6F206D61746368696E67E7
:102F000020636F6E6E656374696F6E20666F756E99
:102F1000640000007463703A206261642063686535
:102F2000636B73756D2E00007463703A20666F7565
:102F30006E64206E6F20756E7573656420636F6EAE
:102F40006E656374696F6E732E0000007463703A6F
:102F500020676F742072657365742C2061626F72D4
:102F600074696E6720636F6E6E656374696F6E2E31
:102F700000000000484857210170A82101708820F6
:102F800046490880704700000C2873D801A1095CED
:102F90008F4400BF0E243A4A5868768492A2B0C08B
:102FA000D0003F4857214174A82141740178FB2289
:102FB0000A400270C8205BE0394857214174A821BB
:102FC0004174017804220A430270C82050E034485A
:102FD00057214174A8214174A220800048E0304864
:102FE00057214174A82141742E4841E02C485721B3
:102FF0004174A82141748120800039E0284857217C
:103000004174A8214174882032E025485721417439
:10301000A821417402202BE0214857214174A821A6
:103020004174042024E01E4857214174A8214174B2
:10303000932080001CE01A4857214174A821417454
:10304000194815E0164857214174A821417495206C
:1030500080000DE0124857214174A8214174962048
:10306000800005E00E4857214174A82141740F48A3
:103070000F4908807047084957220A70A8220A7031
:1030800038390028088802D10A4A024001E04A0D76
:1030900002430A80704700004010004008100040C2
:1030A0002F100040020200004F0200005E020000EC
:1030B00008100040FFFD000080B5522248A100BF6B
:1030C0004AA0FFF703F801BD80B532480068804789
:1030D00001BD80B530480068804701BD80B52F48EC
:1030E0000068804701BD80B52D480068804701BD5C
:1030F00080B52C480068804701BD80B52A4800682B
:10310000804701BD80B529480068804701BD80B572
:1031100027480068804701BD80B526480068804781
:1031200001BD80B524480068804701BD80B52348B3
:103130000068804701BD80B521480068804701BD17
:1031400080B520480068804701BD80B58120C0015E
:103150000068804701BD80B51B480068804701BDFD
:1031600080B51A480068804701BD80B518480068DE
:10317000804701BD80B517480068804701BD80B514
:1031800015480068804701BD80B514480068804735
:1031900001BD00005C4000004440000048400000C9
:1031A0004C400000544000005040000058400000D7
:1031B0006040000064400000704000007440000067
:1031C000784000007C4000008440000088400000FF
:1031D0008C40000040400000684000006C4000004F
:1031E0004E4D495F48616E646C65720025732C20FA
:1031F00025640D0A0000000038B580252D02042149
:103200002800FEF7FBFE154C606805436560102141
:10321000012000F02DF80320FFF723FD0220FFF727
:10322000B3FE0120FFF727FF650D206828432060CB
:1032300001210802FEF7E2FE03212800FEF7DEFE70
:1032400000F048F8002000F053F800BF04A0FEF79B
:103250003DFF00F061F800F06DF8FCE7A8100040B9
:10326000426F6F7420506F776572206F6E0D0A0089
:1032700070B4164A164B8024A82557260028567489
:10328000557410D1214203D01879FD2404401C71DB
:1032900018781C240C40A043187010788907890FF7
:1032A000884310700FE0214203D0187902240443B0
:1032B0001C7118781C240C4004431C70107889077A
:1032C000890F0143117070BC704700002F1000403F
:1032D0000A1000400D482321401C4181401E8721D7
:1032E00041700321817040210170012141737047B9
:1032F00007490A789206920E8001104308707047C1
:1033000004490870CA78082AFCD07047013400408C
:10331000023400400834004080B5FEF749FFFEF754
:10332000CDFEFEF703FBFEF727FFFEF7E3FE00F0FE
:103330000BF801BD80B5FEF7C5FEFEF70AFBFEF7F0
:10334000DDFE00F00BF801BD80B5FEF761FFFEF772
:1033500065FF002801D1FEF72FFF01BD704770B453
:103360000123002413E00168001D194202D04D46DC
:103370006D1E49190C60091D121F042AFAD20D0096
:10338000960701D50C80AD1C1A4000D02C70026845
:10339000001D002AE7D170BC704730B501684118A4
:1033A000446862088A188368E4070DD54C461B19E7
:1033B0000AE00C7864B2491C0D78491C1D705B1C36
:1033C000002C05D5641CF9D19142F2D10C3030BDEE
:1033D000641EF1D5F8E7000010B5074979441831AB
:1033E000064C7C44163404E0081D0A688918884796
:1033F0000100A142F8D110BD080000002400000027
:103400005FFFFFFF68190000A0000020000000001F
:103410008BFFFFFF8400000062000000000000201E
:1034200000F00DF8002801D0FFF7D6FF00BF00BF65
:10343000002000BF00BFFFF7DFFE00F002F8012010
:10344000704780B500F002F801BD0000074638461D
:10345000FFF7DEFCFBE738B505000C00200000F0AC
:1034600005F8A04200D00025280032BD80B50249F1
:10347000FFF746FF02BD00BF58000020014880470B
:1034800001480047752F00008D34000000BF00BFC9
:1034900000BF00BFFFF7C4FF0004BC000001EE0046
:1034A00013020401016C180020BC1800206C1800E5
:1034B000206C180020FC00036C180020FC00079C06
:0934C00000002088000020E0005B
:040000050000348D36
:00000001FF
