:10000000082B0020DD440000BB0F00003317000068
:1000100000000000000000000000000000000000E0
:10002000000000000000000000000000071B0000AE
:100030000000000000000000BF330000051B0000AE
:1000400033380000F73A00004B3B0000CB3E000085
:10005000373F00003B3F00003F3F000047430000A8
:100060009B440000FD440000FF44000001450000E7
:100070000345000005450000074500000945000054
:100080000B4500000D450000000000000F4500007A
:1000900011450000134500001545000017450000FC
:1000A000194500001B4500001D4500001F450000CC
:1000B000214500000000000023450000F0B4C27894
:1000C0000B00D3187B4AD3710C00240A85782600D4
:1000D000AE19967145785571007810713700FFB2EE
:1000E000A74205DA6D1C55712D0601D1401C107117
:1000F000DBB2C8B283420BDA761C9671360607D1A2
:100100005079401C5071000602D11079401C1071CA
:10011000F0BC704710B48A18521E0CE00B781B021A
:100120004C781B191C0000190400A4B29BB29C421D
:1001300000D2401C891C9142F0D308D109780902F1
:100140000A008018020092B28A4200D2401C80B29B
:1001500010BC704780B514226B490020FFF7DAFF0E
:10016000010001D1694802BD00F0D1FE02BD38B5E1
:10017000674C217C0902627C8D18143D0822210005
:100180001A31281880B2FFF7C5FF2A0092B2210069
:100190002231FFF7BFFF010001D15C4832BD00F002
:1001A000B6FE32BD80B50620FFF7E1FF02BD80B587
:1001B0001120FFF7DCFF02BD70B400213D480A00AA
:1001C000027204E05B00C3181982521C0272027AA8
:1001D00013000A2BF6DB0A0002720C004D4D942628
:1001E000760004E07343EB185C76521C0272027ACC
:1001F00013000A2BF6DB8022D200C2810A000272B1
:10020000454C04E09B01E3189980521C0272027A6B
:1002100013000A2BF6DB70BC7047F3B581B0254C98
:100220000027E089401CE08180B2FA21C9018842A0
:1002300002DB80204001E0813800207209E037496C
:1002400080010E5AE08900F062FE8642E9D06D1C02
:100250002572257A28000A28F1DB380020722E4A00
:1002600001E0401C2072207A01000A2905DA890188
:10027000131D5B5A002BF4D15718002F01D1002019
:10028000FEBD684601890198E2891302120A1A43E9
:10029000BA80F980002805D100220421380000F03E
:1002A0006FFE03E0018839804088788040203872F2
:1002B0003800FEBDA426002010B4194900220A729D
:1002C00001E0521C0A720A7A13000A2B05DA5B005D
:1002D000CB181C8A002CF4D1188210BC704738B59A
:1002E00001000F4CA56A28000830FFF7E7FE2079CF
:1002F00028726079A16A4872A079A16A8872E0794F
:10030000A16AC87231BD00006E180020FFFF000016
:1003100060180020D00C0020A41E0020A81E002081
:10032000A4260020F8B5BA498E6ABA4C0100042907
:1003300000D1A9E0B84D29003631216429003631B9
:10034000B34A5162010003290CD1707E0007000FEF
:10035000032802D1308A002878D00020A0873421D9
:100360006054F1BD022977D11146C878401CC8708D
:1003700000060CD18878401C8870000607D14878A8
:10038000401C4870000602D10878401C087000200C
:100390000200A2874A81717E072901D0052907D171
:1003A000B17E491CB176C9B27829D6D17076D4E72E
:1003B0000029D2D0328A002A44D0B17E4A1EB276B9
:1003C0000029CAD1F17E082906D0727E022A01D006
:1003D000012A0CD105290AD170768020342160547D
:1003E00000F059FE14202F21685400F07BFC0A0015
:1003F000042A00DD042103228A40B276F17E491CE2
:10040000F176E18C491CE184717E0907090F01290D
:1004100000D1E8E202290BD003290CD0042900D135
:100420009CE3062900D199E3082900D196E394E7DB
:100430002F216854DAE204203421605400F02BFEAE
:1004400000F000FC0807000F032886D108203421A3
:10045000605400F020FEC1E305284CD1606C808818
:10046000002800D179E70021104681622A002A3253
:1004700022642A002A3242620A004281A1870820AF
:100480003421605401F022F961484089002800D1EC
:1004900063E701001C31A1875F4D0A0092B2120A86
:1004A0002A746974616C0A7AAA751122EA75083097
:1004B000020280B2000A1043E88400202885888860
:1004C0006884C888A884208F6883608FA883088880
:1004D000E88348882884280036302064FFF767FEC8
:1004E000C1432985288D002801D000F074FC7C4888
:1004F000288500F070FC6088401C6080A87B45283F
:1005000009D02088401C2080E088401CE08075488D
:1005100001F056FA21E7287C0002697C4018A18F7F
:10052000814210DBA087287D800602D1687D0028EB
:100530000DD02088401C2080A089401CA0816A48E2
:1005400001F03EFA09E7694801F03AFA05E7268F1B
:10055000002E02D1608F002814D0E87D112806D12A
:100560005F48E98B814202D1298C814263D0E88BBC
:10057000B04203D1288C618F884203D02088401C70
:100580002080EAE6FFF7E6FD5549884209D0208839
:10059000401C2080E089401CE081554801F010FAA1
:1005A000DBE6E87D06280AD1A08B401CA083FFF77C
:1005B000F9FD4B49884200D087E04E4EA3E0112858
:1005C00039D0012809D02088401C2080208A401C76
:1005D0002082494801F0F4F9BFE6A08A401CA082BD
:1005E0002220285C082809D0608A401C6082208B69
:1005F000401C2083414801F0E3F9AEE600202221AF
:100600006854A88CC149884208DB0930A88407E0F7
:10061000A426002028260020601800200830A88486
:10062000688BE883A88B28846E83608FA883E08A18
:10063000401CE082E6E3A08F1C38A08728002A3007
:100640002064288D00280ED0FFF7B1FD2449884290
:1006500009D0A08D401CA085608E401C6086AC48EF
:1006600001F0AEF979E6AB4A6264606CA0218900C2
:100670005118884200D3CCE38188002922D0AB8C6A
:100680008B421FD1C188002906D06B8C8B4203D0CE
:100690008A23DB01994215D10188002903D14388BF
:1006A000002B00D1BBE30E4B994203D146889E42FA
:1006B00000D1B4E36B8B8B4204D1A98B4388994260
:1006C00000D1ACE340306064CFE7608B401C6083B6
:1006D000208C401C2084904801F072F93DE600BF58
:1006E000FFFF0000C840000020410000F040000073
:1006F00038410000D00C00204C410000684100004F
:10070000942040003618CA48B04200D295E3707E6B
:100710000028F5D0A88CB1888842F1D1688CF18886
:100720008842EDD1688B31888842E9D1A88B7188E5
:100730008842E5D1C9488662200034300090002705
:100740003800009908702F20285C410700D564E12B
:100750002E21695C09098900C04A1172A28F511AC1
:100760001439A187727E1207120F022A04D10200E7
:100770009206920E122A1BD0090401D1810717D0CC
:100780002621695C327A914200D0A8E22721695C77
:10079000727A914200D0A2E22821695CB27A914239
:1007A00000D09CE22921695CF27A914200D096E265
:1007B000C00644D5318A002941D030000C30FFF703
:1007C0007DFCA64800792A21695C814237D1A34982
:1007D0002B22AA5C4B799A4231D12C22AA5C8B79CC
:1007E0009A422CD12D22AA5CCB799A4227D1307320
:1007F000487970738879B073C879F073F07E0028F7
:1008000016D1B07D317EB27E891A0200D208891AD3
:1008100049B20A008018B075080000D54042F17D49
:1008200008188908401AF075B17DC9080818307693
:10083000012000990870307EB07638003082707EDA
:100840000107090F491E072900D986E501A24900C1
:10085000525E97440E00DE01C0024E0408053C05BE
:10086000880432043420205CC00700D475E50320DE
:10087000707640200099087038003082A08F0028E0
:1008800000D1A7E13421615C02220A4300990A7079
:10089000FFF725FD9EE1401C1072107A03000A2B21
:1008A00000DBD6E2160010365B00F35A9942F2D113
:1008B000002001461172009011460FE0684A072E91
:1008C0000AD1009E002E05D0B67E17001A37FF5CB5
:1008D000BE4201D2D2180092401C0872087A03006E
:1008E0000A2B00DB11E39422520053435D4AD65C8D
:1008F000002EE3D15A48C618002E0FD1208D401C7F
:100900002085594801F05CF827E500BFF7FF00009B
:1009100080410000A41E0020944100000F46BE62EA
:1009200003200100B17630760020B0750420F07508
:100930000020F076A88CB080688CF080688B3080C6
:10094000A88B708001200100717639783173797835
:100950007173B978B173F978F17330822920285C0A
:10096000F0722820285CB0722720285C7072262044
:10097000285C30720120FFF7B2FC2E20285CF021A9
:10098000014051292FDB0020387201E0401C3872F1
:10099000387A01002E22AA5C1209521F920091425D
:1009A00021DA6A183621515C3523E15400291AD026
:1009B0000129EBD03723D35C022901D1042B04D0C9
:1009C000002B10D0C0183872E2E73820105C00020B
:1009D0003921515C0843E0870100A24A914200DBC3
:1009E000501E7082B08210202F2168540220695C52
:1009F00002000A432F216A5436216854042037210B
:100A000068540620382168540A20392168542C2063
:100A1000A08760202E21685469E17776924800F023
:100A2000CFFF20200099087000F035FB95E400BF4F
:100A3000381700203420205CC00763D52F20285CA5
:100A40008006800E12285DD12E20285CF021014006
:100A500051293BDB3800014908720AE0A426002036
:100A6000D00C0020E90C0020A8410000401C7F4968
:100A700008720846007A01002E22AA5C1209521F51
:100A80009200914222DA6A183621515C3523E154F2
:100A900000291BD00129E9D03723D35C022901D1D9
:100AA000042B05D0002B11D0C01870490872E0E764
:100AB0003820105C00023921515C0843E0870100B6
:100AC000684A914200DB501E7082B082032070762B
:100AD0002620285C30722720285C70722820285C31
:100AE000B0722920285CF0720120FFF7F8FB422049
:100AF0000099087038003082A0875C48478100F078
:100B0000CAFA6BE020200099087000F0C4FA574838
:100B1000806A4776A0E12F21695CCA0722D5C0060A
:100B200020D4308A002800D017E4A08F401C80B267
:100B3000FFF7D5FB3420215C102008430099087092
:100B4000A18F002903D0022101430098017000F019
:100B5000A2FA0120308208207076F77611202F212A
:100B60006854BFE0880611D53520285C3421695CC3
:100B7000236C9C460A00130202001A4363469A182B
:100B80002264A28F09020143501AA087A08F002877
:100B90000AD0717EC90607D43421615C02220A435F
:100BA00000990A70FFF79BFB3020285C000231217E
:100BB000695C4018E087E08FB18A814201D3002848
:100BC00000D1E187E08F70823420205C800701D162
:100BD000FFF7C3FB2548478100F05DFA3420215C14
:100BE000880608D500200100204A51817076142023
:100BF0002F21685476E0C8060CD5002001001B4A5E
:100C000051810121318204217176F07611202F214A
:100C1000685467E015484289002A11D0C90701D5F8
:100C200000213182318A002909D1718A0246528914
:100C3000914200D9110041814089308200E0418118
:100C40000020F0760948416A2164408900280FD0CD
:100C5000308A00280CD02830A08718202F21685413
:100C600042E000BF0B060000CC410000A42600209B
:100C70003420205C800701D4FFF76FFB2820A08779
:100C800010202F2168542FE03420205CC00701D4AD
:100C9000FFF763FB777610200099087000F0FBF9EE
:100CA000FFF75BFBA08F002801D0FFF718FB342073
:100CB000205C2F21695CC9074AD5C00705D50720EC
:100CC00070763800B076378201E006207076012019
:100CD000FFF705FB10200099087000F0DCF91020E8
:100CE0002F2168542820A08750202E216854307A64
:100CF0002A216854707A2B216854B07A2C216854C8
:100D0000F07A2D216854307B26216854707B27218E
:100D10006854B07B28216854F07B29216854062050
:100D20000100E975B1886984F188A984218F6983FC
:100D3000618FA9833188E98371882984717EC9060E
:100D400032D5002001003122A9543021685430E00E
:100D5000C00719D5052070763782FFF7FEFAA08FFD
:100D6000002801D0FFF7BBFA2F20285CC0070BD565
:100D700007207076B7760120FFF7B1FA10200099AE
:100D8000087000F088F9AAE7A08F0028A7D1FFF724
:100D9000E4FA3420205CC00701D4FFF7DEFA072014
:100DA0007076B776FFF7D9FA302168540A203121DE
:100DB00068544020A875A08F0100090A297468743E
:100DC000002001003522A9543422A9546886FFF777
:100DD000E9F9C14369864520A8730020E873A88219
:100DE00055498889401C8881010089B2090AA97483
:100DF000E87400202883FFF7ADF9C1432983E08B15
:100E0000401CE083A088401CA08000203421605456
:100E1000F1BD00BF49A000F0D3FDFFF79EFA00210D
:100E20004548816202223423E2542A002A32426277
:100E3000418100F04BFCFFF727FB2F20285C800648
:100E4000800E022808D1A98CE1873B4A002010724D
:100E500023E5608D401C60852F20285C400701D56C
:100E6000FFF77BFAA08C401CA08414202F2168542B
:100E70002820A08750202E2168542920285C2E4944
:100E800008722D22AA5C2923EA542D22A854282274
:100E9000AA5C0A722C22AA5C2823EA540A7A2C2320
:100EA000EA542722AA5C0A722B23EB5C2726AB5557
:100EB0002B23EA542623EB5C0B722A21695C26263D
:100EC000A9552A216B54401C2D21685400060ED1CF
:100ED0002C20285C401C2C216854000607D1521C91
:100EE0002B202A54120602D15B1C2A202B54688C1A
:100EF000E087A98C6984A884688BE883A88B288400
:100F0000208F6883608FA88353E7009EF4E401027A
:100F1000000A084380B270470300012900DA7047D5
:100F200080B5054A5181506A834203D05289190025
:100F300000F092FD01BD0000A42600207564703A07
:100F4000206E6F206D61746368696E6720636F6ED9
:100F50006E656374696F6E20666F756E6400000065
:100F60001206130A1A43130C1A4300BF094205D094
:100F700083070BD00270401C491EF9D17047000056
:100F80001206130A1A43130C1A4300BF1300103938
:100F900006D330B41400150010393CC0FCD230BC6C
:100FA000490700D30CC000D504C0890002D30280D9
:100FB000801C002900D502707047FEE738B59D4CB3
:100FC0006078002831D100F0E5FB00F08FFDFA21B8
:100FD000490040186060984D00F088FD4019A060FD
:100FE000FFF7EAF89548002101804180944801808C
:100FF00041809448018041809348FFF75DF900F0FB
:10100000D7FB20000C3000F0AAFC062120000C3099
:1010100000F044FB00F05EFB00F09AFDA84202D213
:10102000280000F092FD0120207031BD8148002190
:1010300041700078002800D0704780B5FFF7BEFFF0
:1010400001BD7C4A1278012A00D0704730B47F4A33
:1010500012681C3213685360002304E0C45CD51886
:101060002C725B1C9BB20C00A342F7DB8420400077
:101070001018091D0180012181701068401C10604A
:1010800030BC704780B56B480078012801D100F072
:1010900049F8002002BD70B56C48006804001C349B
:1010A0008420400025186A4E3078410607D501207B
:1010B0002060002028800100A970E87070BDC00782
:1010C00001D50020E8703078400706D5E87801287F
:1010D00003D12988201DFFF71FFF307800070DD5A9
:1010E000A87801280AD10020A8702888002805D0F7
:1010F0000120E8702988201DFFF70EFF3078800757
:101100000FD5544800880100091F412909DAE97800
:10111000002906D1011FC9B24F480068001D00F028
:1011200040FD70BDF8B500F028FC4A4C00250028B1
:1011300024D0208080200001FFF7E9FE474EB189CE
:1011400081420CD10120FFF7EDF82088002815D04E
:1011500000F0CCFF00F03AFC280020800EE0404870
:10116000FFF7D5FEB189814208D100F062FF2088E7
:10117000002803D000F02AFC2800208000F0B6FCF4
:101180002C4F7968884231D3FA20400008187860E3
:101190002E0013E0334894214900714340182B4935
:1011A00008600220FFF7BEF82088002805D000F074
:1011B0009DFF00F00BFC28002080761C0A2EE9D34E
:1011C0002E0011E02848B101401828490860052088
:1011D000FFF7A8F82088002805D000F087FF00F06E
:1011E000F5FB28002080761C0A2EEBD300F07EFC55
:1011F000B968884204D310480818B86000F08AFE25
:101200002E0013E0174894214900714340180F49FC
:1012100008600320FFF786F82088002805D000F03A
:1012200065FF00F0D3FB28002080761C0A2EE9D34E
:10123000F1BD0000440000201027000060260020BF
:10124000FC260020F826002003E80000CC26002021
:101250005C260020642600206826002060180020FC
:1012600006080000D00C0020A41E00206C260020E0
:1012700035220270012242708170C01C704710B587
:101280003621017004214170841C0A4682492000E5
:1012900000F0E2FB201D10BD10B5322101700421C9
:1012A0004170841C0A467D49200000F0D5FB201DBA
:1012B00010BD3721017003210A00427001228270A3
:1012C000C17006210171401D7047FF210170401C53
:1012D0007047000070B504000120010021706070AB
:1012E0006F4DA869A07000263000E070042200BF96
:1012F0006EA1201D00F0B0FB2681802060810422B9
:10130000684920000C3000F0A7FB32460421200081
:101310001030FFF725FE3246042120001430FFF77D
:101320001FFE3246042120001830FFF719FEAA697B
:10133000696920001C3000F08FFBA869324610213B
:10134000091A23001C331818FFF70AFE3246402101
:1013500020002C30FFF704FE3246802120006C3044
:10136000FFF7FEFD042200BF02A12000EC3000F0D8
:1013700073FB70BD6382536338B54B4C25682800FE
:10138000FFF7A8FF01212800F030FFF771FFFFF7FA
:1013900090FFFFF79AFF2268811A1000FFF7BCFD4B
:1013A00031BD38B5404C25682800FFF793FF032175
:1013B0002800F030FFF75CFFFFF761FFFFF76CFFDD
:1013C000FFF783FF2268811A1000FFF7A5FD31BDEA
:1013D00070B50400651800260DE00422A11CAE487B
:1013E00000F03AFB04E00422A11C2B4800F034FB7F
:1013F000A01C61784418AC4223D2207801280CD07C
:10140000032810D0062814D03328E6D0352816D06B
:101410003628E8D0FF2814D0EAE70422A11CB848F7
:1014200000F01AFBE4E70422A11CB64800F014FB0C
:10143000DEE70422A11CB44800F00EFBD8E7A67832
:10144000D6E7300070BD000038B517480568287829
:1014500002281ED1042200BF14A1281D00F0EAFEBC
:10146000002816D10E4CA269616928001C3000F0DA
:10147000E1FE00280DD10422290010312000243083
:1014800000F0EAFAA14801882800F030FFF7A0FF39
:1014900032BD002032BD00008C26002094260020A2
:1014A000702600206026002068260020ADDE122372
:1014B00070B50120964C2188002916D0FF221032E9
:1014C000891A21D0491E25D0153951D0491E54D032
:1014D0002F3900D18FE0491E00D191E0143900D19D
:1014E000A8E0491E00D1ACE0D2E0A070FA20800054
:1014F0002061FFF741FF21692000083000F0AEFEB7
:101500000020FF2110312180002800D194E08820A4
:10151000400020807F4D022628783100084206D105
:101520002000083000F0A1FE002800D195E02878C6
:101530003100084205D0FFF787FF022801D1A670CD
:1015400008E020697449884201DA40002061A078EF
:101550000228CED1FA2080002061FFF722FF216906
:101560002000083000F07AFE0020FF212631218083
:10157000002861D0932040002080664D0226287804
:101580003100084205D12000083000F06EFE00282E
:1015900063D02878304203D0FFF756FF052865D086
:1015A00020695E49884270DAFA218900401820617A
:1015B000A0780328D1D1200000F091F8208CFFF70B
:1015C000A6FC0504608CFFF7A2FC05436808FA211D
:1015D0008900484380210906884201D2206101E048
:1015E000C843206121692000083000F037FE002048
:1015F000FF215631218000281ED0AB2040002080E2
:101600002000083000F031FE002826D00220A07013
:10161000FA208000206100F05DF800F089F8FFF703
:10162000C0FE21692000083000F018FE0020B5211E
:1016300049002180002801D1032070BDFF206C30BB
:101640002080344D022628783100084207D120003E
:10165000083000F00AFE002801D1002070BD287873
:10166000304206D0FFF7F0FE052802D10320A0701B
:10167000A1E720692949884207DAFA218900401840
:101680002061A0780328CAD195E70020208070BD92
:1016900000202080022070BD9026002038B51C4C10
:1016A0006061A16100252800A0701D48694608807E
:1016B00048808621C9016846FEF7AFFD60600028BA
:1016C00002D08821C9018180258031BD80B5FFF716
:1016D000EFFE01BD13480021018041807047114990
:1016E000828C0A80C28C4A800F49028D0A80428D0A
:1016F0004A800E49028E0A80408E48807047000062
:1017000098260020A02600209C2600206426002089
:10171000702600205C26002060EA000011270000EF
:10172000FFFF000060260020FC260020F826002095
:101730007047FEE7B749C006C00E202202430A7177
:1017400008887047B4491022002803D04868024333
:101750004A607047086802430A6070478021AE4AB9
:10176000002803D01068014311607047506801439E
:10177000516070471CB504000020009000F0B6F9DD
:1017800000900098A042009802D2401E001B16BD97
:10179000001B16BDA1480178FB220A4002700178A7
:1017A000C0220A43027001788906890E01707047D1
:1017B000F8B59B4F04207871032038710220F8702F
:1017C000E420B870C2207870842038700421802012
:1017D00000F095FD0421102000F091FD0020FFF79E
:1017E000B1FF0020FFF7BAFF8E4A57201070A820E3
:1017F00010708D480178DF230B400370FD21837842
:101800000B40837000231C001470884D1A002A704E
:101810002A78D82414432C702A78042414432C707A
:10182000FF226A70C022AC781443AC702C7922433A
:101830002A712A799206920E2A716B756A7DBF23EE
:1018400013406B756A7DF72313406B75FB226B7D2C
:1018500013406B756B7DA3241C436C750123AC7D19
:101860001E002643AE75AC7D2140A975A97D0424D8
:101870000C43AC75A97D08240C43AC7564216D1C28
:1018800029836D1EE97D20240C43EC751021EC7D2D
:101890000E002643EE75EC7D2240EA75EA7D134387
:1018A000EB75634A6D1C6A836D1E401C8289401E65
:1018B00040231343401C8381380010306D1C288165
:1018C0006D1E2879042202432A716E786970012006
:1018D000FFF730FF00F00AF90400102006400DD198
:1018E0006E7868700120FFF725FF2000FFF742FFA8
:1018F0005049884202D200F047FDEEE70120FFF791
:1019000021FF4D487979017039794170F9788170FA
:10191000B978C1707978017139784171474839785F
:10192000017079784170B9788170F978C17039792E
:10193000017179794171F1BD10B5394C207A0028D7
:101940000CD00120FFF70AFFE068FFF713FF6428BF
:1019500004D30020FFF702FF0020207210BD3049A1
:101960000A7802704A7842708A788270CA78C270A7
:101970000A79027149794171704770B5304D287804
:1019800040210A002A70014017D0254C207A0028F7
:1019900004D10120207200F0A9F8E0606E893000C7
:1019A000284908806A8921001031274800F054F83E
:1019B000200010302881300070BD002070BD000074
:1019C00080B5010022A000F0E3FC01BD38B5144C45
:1019D000207A002804D10120207200F087F8E0600E
:1019E0001A482418174D2A881749200000F034F8A7
:1019F000134808210A0002702A88C2808480C278B5
:101A00000B001343C37002780B0000E002781A4207
:101A1000FCD031BD20900040C8100040079000402D
:101A2000D8000020401000400D10004003900040FE
:101A3000F40500008813000028900040E4260020F0
:101A40000490004064260020601800200406000076
:101A500025730D0A00000000124207D08B0706D044
:101A60000B78491C0370401C521EF7D8704783073F
:101A700006D00B78491C0370401C521EF9D17047E8
:101A800070B4103A03D378C9103A78C0FBD2530728
:101A900001D318C918C001D508C908C0D20704D39A
:101AA0000B880380891C801C002A01D50B780370E9
:101AB00070BC704780B500F00AF80F480F494160CC
:101AC00000218160052202600D48016001BD0A48C5
:101AD0000021016041608160704707480068C003D1
:101AE00003D507480168491C0160704780B5FFF7BE
:101AF000F4FF0348006802BD10E000E07FBB000077
:101B0000F42600207047FEE780B5012016490870D2
:101B100000F021F800F001F801BD10B500F084FCE0
:101B2000012811D0104C207801280DD1FFF7DEFFDD
:101B3000A16862688918FA2252008918884203D382
:101B40000020207000F089FC10BD074988607047B4
:101B500005488068704710B5034C2078012802D1F1
:101B6000FFF7C4FF606010BDD026002010B4002035
:101B7000BB4902000A800A0044325060030043243B
:101B80000B55138002008A7010BC7047B44800786F
:101B9000401E8041C043C00F70470020B14908700B
:101BA000704710B5AE4C0178FF2914D100F086F8CB
:101BB0004320205C012802D1102000F077F8442057
:101BC000215E0800012805DB01204322A054E01C0F
:101BD00000F050F810BD21780129FBD10178C92906
:101BE00032D0CC293FD0CF293AD0D0292FD0D129FB
:101BF00033D0D2292ED0F32917D0F4290FD0F529CC
:101C00000AD0F6290ED0FA2912D0FC2913D0FD29CA
:101C100014D0FE2915D029E000F0A6F8C8E700F09E
:101C2000C1F8C5E700F097F8C2E700F0DAF8BFE7BF
:101C300000F080F8BCE700F078F8B9E700F068F849
:101C4000B6E700F059F8B3E700F0ECF8B0E700F0C1
:101C50000BF9ADE700F0D7F8AAE700F032F9A7E7F3
:101C600000F042F9A4E700F04BF9A1E7202000F0D2
:101C70001DF89DE780B589B200F0B3FB01BDF8B552
:101C80001700002604000D0004E020783618641CBC
:101C900000F07AFB2800451E0028F6D1F6B23E601F
:101CA0000120F2BD00206E49487070476C49FE2249
:101CB000CA700871022044228852704738B5FFF775
:101CC000F1FF674C01252570FF20E0701020207186
:101CD0000020607100F090FBA07100F096FBE071B5
:101CE00000F093FB000A20726572A572082044215F
:101CF000605200F0E1FB31BD10B5594C002020705E
:101D0000FFF7D0FFFF20E07001204421605210BD9A
:101D10005348FF21C1700021017142784271C18096
:101D20000172062144228152704780B50020FFF7DE
:101D3000BDFF01BD4A48FF21C1700100443100BF11
:101D400072A24A600022828082710722C01C426017
:101D50000820088070474249FF22CA704431406819
:101D6000486001200880704770B5050000F044FB12
:101D70006A78401E1100884203DA2220FFF796FF9E
:101D800070BD374C260044367168201D00F084FB7E
:101D9000FF20E07070686978401870606878401CB7
:101DA000308070BD70B5040000F026FB401E6178E5
:101DB000884203DA2220FFF779FF70BD6168284D61
:101DC0002E00443671606278281D00F065FBFF200C
:101DD000E87070686178401870606078401C3080EE
:101DE00070BD38B51E4CFF21E17025004435E21D61
:101DF00041686868FFF743FF207100206071A0719F
:101E00000820288031BD38B5154CFF20E070002532
:101E1000A58000F0F1FAA071E57125810720442129
:101E2000605231BD70B5060000F0E6FA0C4C25009A
:101E30004435721C411E686800F042FB002803D143
:101E40003120FFF733FF70BDFF20E07000F0D4FABF
:101E50006968401E081868600120288070BD000075
:101E6000DC2500201F26002038B5040000F0C4FA4D
:101E7000801E6178884203DA2220FFF717FF31BD08
:101E80001E48FF21C170050044350120288061787B
:101E9000002907D100F024FB002811D13120FFF7E1
:101EA00005FF31BDA21C686800F00AFB002803D1C1
:101EB0003120FFF7FBFE31BD68686178401868602B
:101EC00031BD38B50D4C250044354168686800F0D7
:101ED000FBFA002803D13120FFF7E8FE31BDFF20D7
:101EE000E0700120288031BD80B500F0B6FA0348CB
:101EF000FF21C17001214422815201BDDC25002057
:101F000080B53120FFF7D2FE01BD00004F70656E35
:101F1000424C540070B5744CA5786D1CA57000201F
:101F2000207015E041000A189200B54B98180188FE
:101F30009B1C9A5A0A4309D02900C9B2827A891A8D
:101F4000782903DB00220421FFF70AF8761C2670AB
:101F5000267830000828E5DB70BDF3B581B0A84CC9
:101F6000614D0021297001E0491C297029780A007F
:101F7000082A4EDAA24B5400A21892009C1822881C
:101F8000002AF1D06388002BEED006889642EBD170
:101F900042889A42E8D106220299201DFFF75CFD93
:101FA000A878A072F7BD4B005918890054182188F1
:101FB000002902D16188002934D0401C28702DE00E
:101FC000904A4B0059188900515CAA78EB781400AC
:101FD0000F00E41BA34202DA511AE9706870401C3A
:101FE0002870287801000829EADB6878287084497D
:101FF0004200101880000C18042200992000FFF7FE
:102000002BFD06220299201DFFF726FDA878A0725D
:10201000F7BD0090002006002870794A287801005A
:102020000829C0DB0828E7D13000E87068702E70FE
:10203000D7E7F8B50020744E31882A29308051D373
:10204000724CA08A80214900884203D0490088420E
:1020500039D0F1BD6E4DE08C2988884242D1208D67
:10206000698888423ED12100163120001C30FFF7DC
:1020700074FF80208000A0820622210016312000FB
:102080002030FFF7E9FC634F0622390020001630AC
:10209000FFF7E2FC06223900A01DFFF7DDFC062257
:1020A000210020312000FFF7D7FCA08BE084E08BDB
:1020B00020852888A0836888E083C120C000A08193
:1020C0002A203080F1BD5248E18C0288914209D12A
:1020D000218D4088814205D12100163120001C301D
:1020E000FFF73BFFF1BD0000EC260020F8B54448A7
:1020F00000904948454CE18B814208D1218C8142B6
:1021000005D1062249A12000FFF7A6FC37E043488D
:1021100001883F4D2E88424FE28B0A403300194020
:102120008A4206D14088218C01406A881040814251
:1021300005D03C480188B9804088F88003E0E08BF6
:10214000B880208CF88000203870009B387801001F
:10215000082920DA2A4A4B00591889005318B988EF
:102160001A88914203D1F9885A88914213D0401CB1
:102170003870EBE70622191D2000FFF76DFC0622E0
:102180002449A01DFFF768FC0820A0811E48018893
:102190000E310180F1BD0828ECD1FF22062120007C
:1021A000FEF7DEFE0022062120002030FEF7D8FEDA
:1021B00006221849A01DFFF74FFC062215492000F2
:1021C0001630FFF749FCB888E084F8882085A6839C
:1021D0006888E08380204000A082E081082020827F
:1021E0000620A0740420E074C120C000A08120005B
:1021F00036300D4908602A2003490880F1BD0000EF
:102200002C250020362500206426002060180020A0
:1022100060260020E4260020FFFF0000FC260020AE
:10222000EC260020F826002068260020FFFFFFFF94
:10223000FFFF000010B402E0401C491C521E002A9F
:1022400009D00B7804789C42F6D002D20020C0431B
:1022500002E0012000E0002010BC704710B504002F
:10226000616000F047F9206010BD10B5040000F077
:1022700041F92168401A6168884201DB012010BDE4
:10228000002010BD002906D002291CD00FD304293C
:102290002DD024D37047C143374842690A40426178
:1022A00002690A4002610268114001607047C1433F
:1022B000314A53690B405361136918431061106828
:1022C0000140116070472C4A516901435161C1437B
:1022D000106908401061106801401160704726497C
:1022E0004A6982434A610A6810430860704722497C
:1022F0004A6902434A610A6810430860704700292E
:1023000006D002291CD00FD304292DD024D3704726
:10231000C1431A4842690A40426102690A400261A7
:102320000268114001607047C143144A53690B4071
:1023300053611369184310611068014011607047C0
:102340000E4A516901435161C1431069084010614F
:10235000106801401160704708494A6982434A6128
:102360000A6810430860704704494A6902434A6199
:102370000A68104308607047A0100040C010004079
:1023800080B500F0C2F801BD80B500F0C3F801BD12
:102390000EB4C0B5020003A801900020009001AB6C
:1023A0000121044878440C3000F0C4F8029906B0CA
:1023B000084700BFF320000080B5FFF7D7FB01BD41
:1023C0001CB5224C6946201DFEF75CFE012806D193
:1023D0000320207068460178201DFFF7E2FB13BD43
:1023E000704780B5194A1278032A02D1C9B2FEF7A4
:1023F00028FEFFF7D2FB01BD14480078401E0128DB
:1024000001D800207047402070471048007800280D
:1024100003D0022803D002D303E0402070470020FD
:10242000704780204000704710B50024FFF7AEFBD6
:10243000002800D00124200010BD80B5FEF7F6FD75
:10244000032002490870FFF786FB01BD0000002051
:10245000704780B500F0AFFF01BD10B500F038F84F
:10246000002802D1FFF7E9FF10BD00F047F800286F
:1024700002D1FFF7E2FF10BDFFF7B2FFFFF7E8FF61
:10248000FFF725FB00F028F8001D046800F095FF19
:10249000A047FFF7D2FF10BD70B515000C00060075
:1024A00005E020783070641C761CFFF76DFF280073
:1024B000451E0004F5D170BD80B500F081FF01BD5F
:1024C00080B500F084FF02BD80B500F0A8FF02BD1A
:1024D00080B500F0DFFF02BD80B501F007F802BD56
:1024E00080B500F0B8FF002801D1002002BD00F047
:1024F000E6FF02BD80B5FFF7F9FA02BD80B500BF67
:1025000007A0FFF745FF012002BD80B5642001F060
:1025100061F901BD80B5FFF70FFA01F05EF901BD69
:10252000676F746F20757365722070726F67726168
:102530006D0D0A00F0B5A1B0269C049102A93B25BF
:102540004C5500270D970190140000930AE0049861
:10255000019A90470490002800D1A3E00D98401CF8
:102560000D90641C2178002909D02529EFD1079707
:10257000089709970A970B970C97002104E00D988C
:1025800092E0080001210143641C20782028F8D043
:1025900023280CD02B2804D02D2805D0302809D092
:1025A00084E008000221EEE708000421EBE70800C0
:1025B0000821E8E708001021E5E70F970AE00F9AE5
:1025C000444B9A4205DA93009A185200101830389A
:1025D0000F90641C20780200303A0A2AEFD320784A
:1025E0002E2803D00020C0430E9028E0641C2078E1
:1025F0002A280AD100980068009A10600268001D1D
:10260000009B18600E92641C19E02D2802D12D2227
:10261000641C00E000220E970CE0002A09D10E9BFA
:102620002C4DAB4205DA9D00EB185B0018183038D2
:102630000E90641C20780300303B0A2BEDD302ADD2
:1026400029872678310000BF23A001F0E7F8002891
:1026500001D0641C00E000263A202E54285C682833
:1026600004D1207868280AD1622005E06C2806D1C0
:1026700020786C2803D171203A216854641C12A878
:1026800006902378009A02A9019800F063F8641C70
:10269000002807D112AA02A9019800F0B3F9002876
:1026A00000D45FE70020C04321B0F0BD2A2884D1C8
:1026B0000098026802601068121D009B1A600F905B
:1026C000002804D542420F92080004210143641CF3
:1026D00085E70000CBCCCC0C686A6C747A4C0000A7
:1026E0000B0062281CD068280DD06A2803D06C2803
:1026F00023D0712821D11A68D21D072082431A6085
:1027000003CA1A607047002A19681960086803D064
:10271000091D196000B217E0091D196080B217E0A9
:10272000002A19681960086803D0091D196040B2B1
:102730000AE0091D1960C0B20AE0002A1968196090
:10274000086803D0091D1960C1177047091D196079
:102750000021704770B50C0011001E002569300083
:10276000253800D116E11C3868D0001F022865D931
:10277000133842D0093861D0801E16D0401E1ED0BA
:10278000401E02285AD9001F19D0401F00D17EE0F8
:10279000401E32D0401E00D1C9E0C01E00D1D7E09B
:1027A000801E2AD0C01E28D0FAE06069421C6261F7
:1027B0000A680A601368121D0A602B54FAE00122AD
:1027C0003A20205CFFF78CFF03C4083C002904DAA0
:1027D0006069411C61612D210DE0208F810704D5C6
:1027E0006069411C61612B2105E0C00721D560694A
:1027F000411C6161202129541BE000223A20205C09
:10280000FFF76EFF03C4083C3820205C000710D59A
:1028100003CC083C002901D100280AD020203043F5
:10282000782806D1606930212954401C411C61611F
:102830002E5460692818E060310085E00868C01DEA
:102840000722904308600CC808600CC4083C03CC05
:10285000083CC80F04D06069411C61612D210DE066
:10286000208F810704D56069411C61612B2105E03F
:10287000C00704D56069411C616120212954606949
:102880002818E0603100200000F0FCF992E03B20C5
:10289000205C002804D00024E44300BF46A062E08E
:1028A0003A20205C622808D0682823D06A2812D0F9
:1028B0006C282ED071280ED02BE00A680A601068B0
:1028C000121D0A60002803D10024E44340A04AE01E
:1028D000E16A01706EE0086808600268001D086027
:1028E000002A03D10024E44339A03CE0E06AC11788
:1028F00003C25FE00A680A601068121D0A600028BF
:1029000004D10024E44300BF31A02CE0E16A01803F
:1029100050E00A680A601068121D0A60002803D19E
:102920000024E4432AA01EE0E16A016042E0086856
:1029300008600268001D08600020C04300211040AC
:1029400003C4083CE5607821200000F0E5F831E0A0
:10295000086808600568001D0860E560002D06D164
:102960000024E44320A000F065FF201A70BD266B10
:10297000002E03D5280000F081FF09E0320000217D
:10298000280000F083FF002801D0401B00E0300049
:10299000A0610FE06069411C61612521295409E0B3
:1029A0006169481C606125226A54310002D0411CD3
:1029B00061612E54002070BD7072696E74665F7321
:1029C0003A20256E20646973616C6C6F77656400D2
:1029D0007072696E74663A2062616420256E2061AF
:1029E0007267756D656E74007072696E74665F7380
:1029F0003A2062616420257320617267756D656E8F
:102A000074000000FEB506000D001700686B6969D0
:102A1000401A296A401AA969401A696A401AE96984
:102A2000401AA96A401A01903820285C400710D447
:102A3000202069460870019800280ADD019C0123C6
:102A40006A462900300000F09BFC002860D1641E1B
:102A5000F5D13A006B692900300000F091FC0028A4
:102A600056D13027684607702C6A002C09DD0123F7
:102A70006A462900300000F083FC002848D1641E1B
:102A8000F5D1AB69EA682900300000F079FC002834
:102A90003ED1684607706C6A002C09DD01236A4646
:102AA0002900300000F06CFC002831D1641EF5D103
:102AB000EB69E868A96942182900300000F060FC61
:102AC000002825D168460770AC6A002C09DD012377
:102AD0006A462900300000F053FC002818D1641E1B
:102AE000F5D13820285C400710D5202069460870B1
:102AF000019800280ADD019C01236A462900300064
:102B000000F03EFC002803D1641EF5D1002001E056
:102B10000020C04303B0F0BDF2B586B004002569C3
:102B20006F2901D1082707E00846202101437829B1
:102B300001D00A2700E010273C2603CC083C04AA59
:102B400003C26A46127E642A03D06A46127E692A4C
:102B500009D1002907DA04A803C800220023121AA9
:102B60008B4104A80CC004A803C8002920D1002868
:102B70001ED1206B00281BD1082F4ED13820205C9D
:102B800000074AD53B26302046E000290ED53821E3
:102B9000615C14220A40102A08D1616B6269891AAB
:102BA000226A891A081A002800DD206207B0F0BDE9
:102BB0000294009504A830C8761E019620002900D2
:102BC0003A00FB1700F06EFE3032D0B23A2803DB39
:102BD0006846007E5138121800988255200029005E
:102BE0003A00FB1700F05EFE04000D0001D1002C3E
:102BF00005D00298C068009989198842DCD3029CEC
:102C0000009D082F09D13820205C000705D5A85D5C
:102C1000302802D0761E3020A8553C20801BA061B1
:102C2000A919E160216B8842AFDA081A2062208F6F
:102C3000124901402187B9E7F8B50026104F04007A
:102C40000D00009214E0C00707D532003B002000C1
:102C5000290000F05CFE04000D0000984010009078
:102C60003000390032003B0000F051FE06000F003A
:102C700000980028E7D120002900F4BDEFFF0000F4
:102C800000002440F3B593B005AA03C802AB03C308
:102C900014A80078202101436846017061290BD0F7
:102CA0001398006B002801D5062003E004D16729A2
:102CB00002D1012013990863139803C84C006415CE
:102CC000641C13D10B0311D003201399886114A83D
:102CD000007861381A2804D255497944FF315331BC
:102CE00016E054497944FF314D3111E04C00641530
:102CF000641C13D10B0311D103201399886114A80C
:102D0000007861381A281BD34B497944FF312B31A5
:102D100003221398C068FEF79FFECCE110AB03C3FB
:102D200091A6C0CE10A803C8394080256D03A942E2
:102D30000BD20023019310AB30CB604069400EE012
:102D40003E497944FF310939E2E7080D884C2418DF
:102D5000019410A803C8884D0D4086492943139B50
:102D600003C368460078612813D11398C0683021E6
:102D70000170811C139BD96014A90978612901D1C4
:102D8000782100E05821417013984069801C139904
:102D90004861139830C826402F4005D1002E03D13A
:102DA00000206B4618817DE168460078612800D0DC
:102DB000A8E01398006B002801D5212000E0401CFA
:102DC0000090009F7F1C02A803C80022002300F08F
:102DD00060FE02D28020000645400198001F01904D
:102DE00069460A7505A8461C002F00DC69E1200031
:102DF0002900002280235B0300F064FE00D960E11B
:102E000069004A0D11001C31002A19D0002917DD74
:102E1000B74A914206DB10052900802212061140B4
:102E2000014311E0544A2A400805104305000DE013
:102E30009C1600009C160000A016000098160000CA
:102E4000290080221206114000240D0020002900D4
:102E500000F052FE0290FF1F002F09DD00F086FEF9
:102E600002000B002000290000F0E7FE04000D0026
:102E7000F01D0721029A04E0401E13071B0F037088
:102E80001211002A01DD491EF6D5491E00D514E1B4
:102E9000401E00220270F8E70023040005AD2D1942
:102EA00001E0401E6D1E641E2E789E42F9D00F2B4D
:102EB00004D14B1C1B5D5B1C491C0B55002C04D51D
:102EC00005AA401C0199091D0191431E11D4D41873
:102ED00014A9097825783035EEB23A2E02DB0E00BF
:102EE0003A3EAD1925705B1E641E002BF2D514AB63
:102EF00019701399096B002900D4D0E0411E139B6F
:102F00001963CCE002A803C80022002300F0C1FD31
:102F100006D202A803C880221206514002AA03C2A8
:102F2000019874494843744900F014FF0190072048
:102F30000199401A049005DD024602A803C8FFF774
:102F40007BFE0AE0424200206C49FFF775FE02005A
:102F50000B0002A803C800F057FF6A461278662AE1
:102F60000CD1019A0A320AE0FFFFFFFFFFFFFF7F4B
:102F700002FCFFFF0000E03FFFFF0F800622139BD3
:102F80001B6B9A18142A00DD142230236C4623751B
:102F900005AB5C1C02E002A803C8049A002A3CDDD1
:102FA00002AB03C3049202A803C800F0B7FD0F9060
:102FB00006460834042530000A2100F0CEFE0F003A
:102FC00030000A2100F0C9FE06003037601E07708D
:102FD00030000A2100F0C1FE0F0030000A2100F08D
:102FE000BCFE0600A41E303727706D1EE3D10834E6
:102FF0000498083804900028CDDD0F9800F0A6FD55
:1030000002000B0002A803C800F017FE00223C4B90
:1030100000F07DFC02AA03C2C5E705A8401C211AE6
:1030200005A8421C019802E0491E401E521C13785C
:10303000302BF9D0019068460078662802D10198BB
:10304000401C06E068460078652801D1012000E0B8
:103050000020139B1B6B1818814200DA481E0028C1
:103060001DD4884204DA115C352901DB392300E0E4
:1030700030230400511E0D1901E0401E6D1E641E18
:103080002E789E42F9D0392B02D1135D5B1C13556B
:10309000002C04D50A00401C0199491C0191694685
:1030A0000881019800B20090029B1BB214A801781D
:1030B000139800F027F815B0F0BDC61D002F00DDF5
:1030C00095E605A9481C331A05A8421C00988342BE
:1030D00000DC1800002800D50BE7984200DBDBE697
:1030E0004B1C1B5C072B00DCD6E60F23D5E600004B
:1030F000FF07000097750000A08601000000F03F68
:1031000084D79741F6B583B006000F001C0000F08D
:10311000DDFE406A007869460870356B002C03DCE0
:10312000012400BFA3A0049020203843662803D1C7
:103130000A9F3FB27F1C1AE0672800D085E00A98FA
:1031400000B20321C943884200DA82E0A84200DBD2
:103150007FE00A9F3FB27F1C3820305C000702D41A
:10316000AC4200DA250038B22D1A00D50025B1692D
:10317000F06840183AB2002A26DC491C302202705E
:10318000002D03DC3820305C000704D56846007849
:10319000F2685054491CB16138B241428D4200DAA4
:1031A0006F423FB278427062ED19A54200DA2C00FE
:1031B00024B2F46122000499F068B369C018FEF7E4
:1031C0004BFC281BB062C3E0944218DA2200049939
:1031D000FEF742FCB0690019B0613FB2391B716261
:1031E000002D03DC3821715C090706D56946097892
:1031F000F2681154F069401CF061B562A8E00499CE
:10320000FEF72AFC38B2B1690918E41B002D03DC73
:103210003822B25C120704D56A461278F3685A5411
:10322000491CB16121B28D4200DA2C0022B204990E
:103230000918F068B369C018FEF70EFC24B2B06933
:103240000019B061281B706282E0612F11D17027D4
:1032500012E0AC4204DA3821715C090700D4250081
:103260006D1E00D50025672F01D1652704E0452795
:1032700002E0412F00D15027B069411CB161049A8E
:103280001278F3681A540498401C0490002D03DC53
:103290003820305C000718D5481CB0616A461278A7
:1032A000F3685A54002D10DD641E21B28D4200DAFD
:1032B0002C0022B20499F3681818FEF7CDFB24B253
:1032C000B0690019B061281B7062F068B1694018DC
:1032D00007700A9909B2002904D42B214170801C7F
:1032E000049006E02D224270801C049048426946FA
:1032F000088500246D460A9800B205E00A2100F016
:1033000029FD2970641C6D1C00B20028F6DC012C1C
:1033100009DC20203843652805D130200499087045
:103320000498401C0490002C28D130200499087087
:103330000498401C07E0641E6946095D3031017045
:10334000401C002CF7DCF168B2698918401AF06162
:103350003820305C1421014010290DD17069B16909
:103360004018716A4018F1694018B16A4018716BD1
:10337000884201DA081A306205B0F0BD0498E0E72F
:10338000F8B50024002B13D007000E0014001D0018
:103390002178B068B847B060002807D0F06A401CB8
:1033A000F062641C6D1EF3D1002401E00024E443AC
:1033B0002000F2BD300072B6704762B67047FEE77B
:1033C0000020C0436249086062490860704770B5D8
:1033D00004000D0016006048001B691E88420AD3D5
:1033E000200000F057F9FF2805D06019401E00F0BA
:1033F00051F9FF2801D1002070BD3200600A40025F
:103400005649884205D12B002100524800F0AAF805
:1034100070BD2B0021004E4800F0A4F870BD70B5BF
:1034200004000E004C48001B711E88420DD3200082
:1034300000F030F90500A019401E00F02BF929001A
:10344000FF2902D00100FF2901D1002070BD280012
:1034500000F0EAF870BD80B53E4801680022D24312
:10346000914201D1012002BD416882688918C26879
:103470008918026989184269891882698918C0699E
:103480000818C143491C00916A4604213448FFF7DB
:103490009EFF02BD31480168426889188268891818
:1034A000C2688918026989184269891880690818F0
:1034B0002B4909684018401E8041C00F704710B565
:1034C0000024E44323480168A14203D000F088F8B7
:1034D000002807D01E480168A14205D000F080F8FE
:1034E000002801D1002010BD012010BD1B487047ED
:1034F00080B5CA0501D0002002BD02688A4201D110
:10350000012002BD016080229200001DFEF7C4FF71
:10351000012002BD38B505000C000E48854208D1D7
:103520000B4D21002800FFF7E3FF00280DD10020FC
:1035300032BD0A498C4201D10500F2E7280000F0B3
:103540004FF80028EDD1002032BD280032BD000028
:103550002421002028230020FFFF0008002000086D
:10356000C0200008F8B504000D0017001E00680A0E
:103570004002009020680021C943884205D100998B
:103580002000FFF7B5FF002828D020680099884266
:1035900004D02000FFF7BEFF04001FD038002168D0
:1035A000691A6118091D37000E000500FEF7ECFED0
:1035B00080208000211D711A814207D300990918CB
:1035C0002000FFF7A7FF040008D0261D28783070E0
:1035D000761C6D1C7F1EE9D10120F2BD0020F2BDDA
:1035E000F8B506000124306800F054F8FF2801D136
:1035F0000020F2BD0025802D14D2A80031680918E2
:10360000009130184768FEF7BFFE3900009800F0BF
:1036100074FC002805D100980068B84201D16D1CE7
:10362000E9E700242000F2BDF8B50D0001270200F3
:10363000914200D200270100042902D32900112958
:1036400000D300273900012921D100F03DF8040002
:10365000280000F039F80600280000F051F8301872
:10366000401E001B401CC50AADB2002603E08020AE
:1036700000012418761C300080B2A84207DAFEF759
:1036800083FE200000F026FC0028F0D00027380040
:10369000F2BD000038B50400002501E06D1CEDB25C
:1036A0000D2D0FD2FEF770FE23A069004919890085
:1036B000401801688C42F1D3426889188C42EDD2DF
:1036C000007A32BDFF2032BD38B50400002500E08D
:1036D0006D1C2800C0B20D280FD2FEF755FE00BFAA
:1036E00015A02900C9B24A00511889004018017A72
:1036F00022009142ECD1006832BD0020C04332BDAF
:1037000038B50400002500E06D1C2800C0B20D286B
:103710000FD2FEF739FE00BF07A02900C9B24A0048
:10372000511889004018017A22009142ECD140687A
:1037300032BD002032BD000000200008000800005B
:103740000400000000280008000800000500000038
:1037500000300008000800000600000000380008E3
:1037600000080000070000000040000800080000FA
:1037700008000000004800080008000009000000E0
:1037800000500008000800000A000000005800086F
:10379000000800000B0000000060000800080000A6
:1037A0000C00000000680008000800000D00000088
:1037B00000700008000800000E00000000780008FB
:1037C000000800000F0000000080000800800000DA
:1037D000100000000F494880704710B5FEF786F9C9
:1037E0000C4C6168884214D30B48C10B2278002A24
:1037F00005D10122227042681143416004E0002299
:103800002270026811430160FEF770F96188401868
:10381000606010BDDC260020A810004000BFC9B2C7
:1038200000E0401C02788A4202D0002AF9D1002030
:103830007047FEE780B5002801D100BF07A0064908
:103840000B68002B03D022220021984701E000F0F2
:103850006DFB222002BD000000270020636F6E7305
:10386000747261696E742068616E646C65723A206E
:10387000626164206D65737361676500010000E03B
:10388000491C0A78002AFBD1081A7047C9B201E026
:10389000401C521E002A03D003788B42F8D1704797
:1038A00000207047124224D0994228D970B50025D3
:1038B0001B4202D00C00002109E000240126491817
:1038C0006441944200D3A41A7641F8D33100012612
:1038D00001E0764109D2001864416D41A41A9D416E
:1038E000F7D2A4185D41B619F5D3300022002B00A1
:1038F00070BD1B42D8D108B500F01EFB08BD01D138
:103900009042D3D202000B00002100207047F0B596
:103910000E005E400125ED072E40B446AE0ADF18CA
:103920004C18F44208D2F7420ED2640D01D07F0D3C
:1039300012D100206146F0BD05D1F74201D87F0DBC
:1039400005D10020C143F0BDFBD1640DF9D00020AA
:10395000C143490549088FE0E419C902DB02294344
:103960002B43DB0A460DC00231438E4630B487B28A
:1039700095B27D432E0CADB2140C7C43A419260CD9
:10398000240425439CB27C43A419190C7943270CC9
:10399000C919A4B20F043C43090C000C97B2474369
:1039A0002E0CBE193543ADB2170C4743360CBF1968
:1039B000A6B2BF193E043543240C3E0C36199FB203
:1039C0004743BF19BCB23E0C89191F0C47437F18EF
:1039D0003E043443390C704680B297B247432E0CF4
:1039E000BE193543ADB2170C4743360CBF19A6B20A
:1039F000BF193E043543240C3E0C36199FB2474391
:103A0000BF19BCB23E0C89191F0C47437F183E04F6
:103A10003443390C77463F0C90B278432E0C801912
:103A20000604ADB22E43050CA0B22D18120C7A4339
:103A30005019020C80B2240CA4189AB27A431219BD
:103A400014042043120C89181B0C7B43C91830BC8A
:103A5000EF0A394203D1B61940414941641E6F1241
:103A6000BF0DE41B0BDBFF19BC4211DA2405002754
:103A70004208AE417841614166463143F0BD641C65
:103A800005D1401C6141CF0201D34908F4E750E75A
:103A90005DE730B4012464054D00EC420BD85D00B5
:103AA000EC4208D80C001C4364000443144304D2C5
:103AB000994200D1904230BC7047FCD08B42FAD181
:103AC0008242F8E730B4012464054D00EC420BD883
:103AD0005D00EC4208D80C001C436400044314430E
:103AE00004D28B4200D1824230BC7047FCD0994254
:103AF000FAD19042F8E7FEE7F4464A1805D200F002
:103B00000FF801D580174008604700F009F801213F
:103B1000C907884200D90800404260474A1812D2BB
:103B2000400DC90208430121C9070843520D402135
:103B30000901521A521C06D452421F3201D4D040FD
:103B40007047C017704700207047FEE7010042220F
:103B50001201D21E004207D002D4521E0018FCD51A
:103B6000C10A400512058918704700000100EED512
:103B70004042F446FFF7EBFF0122D20711436047B2
:103B80008B4200D1824205D98446100062468C46A1
:103B900019006346DF184C18640D7F0D3AD0661C7F
:103BA000760537D0E61B352E34DCDB022B43DB0AEF
:103BB0000C0DC9022943C912202E0DDB1700203E2F
:103BC00006D01F00F741F3405F400026012A7741ED
:103BD000C01871410DD217E01700F741F24057406D
:103BE000F3415A40B340F3405A40002680185941EF
:103BF0000AD3A21C52050FD0C207012F7241170031
:103C00004008CB0718434908641C24054208AF410B
:103C100070416141F0BC7047641C21050020F9E748
:103C20006B4010E06B40ABE7F742F3D1E943F1E7BB
:103C30002442EFD100200021ECE7F0B40125ED078C
:103C40000F005F40EED40C00871A9C4105D2C01BC8
:103C5000A141D219634169406B40AE0ADF184C188C
:103C6000F442E1D2640D7F0DE2D0E61B362ED1DCAA
:103C7000DB022B43DB0AA4460C0DC9022943C90A07
:103C8000012E28DC04D1D6075208DF073A435B082F
:103C9000EF0A76429041994114D039423BD1B6198E
:103CA00040414941761C394204D1761C00184941F3
:103CB0003942FAD0B9436746B74208D9A41B240554
:103CC0002143A7E70042EAD13642E8D1A2E7E40A5D
:103CD000E10700209EE7202E0BDD203E1F00F34071
:103CE000F7415F40012A002257417E4298419141AD
:103CF0000BE01700F741F2405740F3415A40B34000
:103D0000F3405A407E42904199410A0303D2641E17
:103D1000B619404149410027641E24054208AE41BE
:103D200078416141F0BC7047F446002804D4494210
:103D300000F013F8404260474042002905D45FD0AC
:103D400000F00BF8404249426047494200F005F854
:103D50004942604703460B43E6D40022030A8B42E4
:103D60000BD203098B4219D243088B422ED2411A3F
:103D700000D20146524110467047FF2209023FD04F
:103D800012068B4205D3121209028B4201D3121282
:103D9000090203098B4219D300E0090AC3098B42C7
:103DA00001D3CB01C01A524183098B4201D38B014D
:103DB000C01A524143098B4201D34B01C01A5241F0
:103DC00003098B4201D30B01C01A5241C3088B4235
:103DD00001D3CB00C01A524183088B4201D38B0020
:103DE000C01A524143088B4201D34B00C01A5241C2
:103DF000884200D3401A5241CFD201461046704744
:103E000008B500F09BF808BDF0B40E005E40012537
:103E1000ED072E40B446AE0ADF184C18F4423BD2F0
:103E2000F74241D2640D43D07F0D38D0E41BC90264
:103E3000DB0229432B43CF0ADB0A0600B61A9F4157
:103E400004D2641EB6197F41B6185F416812800D16
:103E500024180018844222DAE80C0021B6197F41A8
:103E6000B61A9F4102D2B6185F413F1C40414941FA
:103E7000F4D3241C21DD2405B6197F41B61A9F41D5
:103E800005D33743C60737430026012F70416141F0
:103E900066463143F0BC7047FCD1F74205D20020A2
:103EA000C14349054908F3E704D00020C143F1E7C5
:103EB0007F0DFAD000206146ECE72442FAD1401C85
:103EC00061410F03F6D30020E2E7FEE700487047A8
:103ED00058000020C10501D0012070471149086039
:103EE0008C204871A6200871887980224A71402868
:103EF00001D10020704701207047820701D00120C6
:103F00007047094A506011608C2050729A201072DC
:103F1000907A80215172402801D100207047012001
:103F200070470000041800400018004080B50120D0
:103F300000F006F801BDFEE77047FEE77047FEE7B8
:103F400080B500BF00BF024A11001820ABBEFBE7DE
:103F500026000200554857210170A82101708820D1
:103F600053490880704700000C2800D98CE002A15A
:103F7000095C49008F4400BF0714212B343E475091
:103F800059636C7680004B4857214174A8214174D5
:103F90000178FB220A400270C8204549088070471A
:103FA000444857214174A8214174017804220A43EE
:103FB0000270C8203E49088070473E48572141742E
:103FC000A8214174A22080003949088070473948EF
:103FD00057214174A82141743748354908807047FA
:103FE000344857214174A821417481208000304910
:103FF000088070472F4857214174A82141748820B8
:104000002B49088070472B4857214174A8214174DF
:104010000220274908807047264857214174A8216B
:104020004174042022490880704722485721417476
:10403000A8214174932080001D49088070471D48C5
:1040400057214174A82141741C48194908807047C0
:10405000184857214174A8214174952080001449C3
:1040600008807047134857214174A8214174962055
:1040700080000F49088070470E4857214174A821DD
:1040800041740F480A4908807047084957220A704E
:10409000A8220A7038390028088803D1094A02404A
:1040A0000A8070474A0D02430A8070474010004062
:1040B000081000402F100040020200004F020000D4
:1040C0005E020000FFFD000069703A20696E7661B3
:1040D0006C69642076657273696F6E206F722068F8
:1040E0006561646572206C656E6774682E000000FF
:1040F00069703A207061636B65742073686F7274C5
:104100006572207468616E207265706F7274656488
:1041100020696E204950206865616465722E000038
:1041200069703A20667261676D656E742064726FA3
:10413000707065642E00000069703A20626164202E
:10414000636865636B73756D2E00000069703A20BB
:104150006E65697468657220746370206E6F72207A
:1041600069636D702E00000069636D703A206E6F98
:10417000742069636D70206563686F2E0000000015
:104180007564703A2062616420636865636B73755F
:104190006D2E00007463703A20626164206368656C
:1041A000636B73756D2E00007463703A20666F75D3
:1041B0006E64206E6F20756E7573656420636F6E1C
:1041C0006E656374696F6E732E0000007463703ADD
:1041D00020676F742072657365742C2061626F7242
:1041E00074696E6720636F6E6E656374696F6E2E9F
:1041F0000000000080B500F009F800BF19A0FEF72C
:10420000C7F800F035F800F041F8FCE738B5802534
:104210002D0204212800FEF735F8114C6068054393
:1042200065601021012000F03BF8032000F07CF8CD
:104230000220FFF799FE0120FFF727FF650D206898
:104240002843206001210802FEF71CF80321280002
:10425000FEF718F800F078F8002000F090F831BD73
:10426000A8100040506F776572206F6E0D0A000035
:1042700080B5FEF7EEF8FEF783F8FDF71BFCFEF7BE
:104280001BF9FEF799F8FDF73FFC01BD80B5FEF77D
:104290007BF8FDF722FCFEF793F8FDF73EFC01BD2D
:1042A00070B4164A164B8024A82557260028567449
:1042B000557410D1214203D01879FD2404401C719B
:1042C00018781C240C40A043187010788907890FB7
:1042D000884310700FE0214203D018790224044370
:1042E0001C7118781C240C4004431C70107889073A
:1042F000890F0143117070BC704700002F100040FF
:104300000A100040002107E000BF00BF13005A1E42
:104310009BB2002BF8D1491C0A00030092B29A42CA
:1043200001D20222F2E7704738B50400002504E00C
:10433000FA208000FFF7E6FF6D1C2800210080B204
:104340008842F5D331BDFEE780B5E120400200F0A0
:104350000AF81248872141700321817040210170C1
:104360000121417301BD00B501000D48FFF7F5FCC7
:10437000401D0A21FFF7F1FC0A49088000BD0A49E7
:104380000A789206920E8001104308707047074920
:1043900002000A70CA78082AFCD070470134004035
:1043A000005A62020C3400400234004008340040DD
:1043B00070B40123002413E00168001D194202D0EB
:1043C0004D466D1E49190C60091D121F042AFAD2B0
:1043D0000D00960701D50C80AD1C1A4000D02C7042
:1043E0000268001D002AE7D170BC704730B5016833
:1043F0004118446862088A188368E4070DD54C4662
:104400001B190AE00C7864B2491C0D78491C1D7018
:104410005B1C002C05D5641CF9D19142F2D10C3003
:1044200030BD641EF1D5F8E710B50749794418315D
:10443000064C7C44163404E0081D0A688918884735
:104440000100A142F8D110BD0800000024000000C6
:1044500061FFFFFF2C260000D800002000000000B4
:104460008DFFFFFFC0000000C20000000000002020
:1044700000F00DF8002801D0FFF7D6FF00BF00BF05
:10448000002000BF00BFFFF7B5FE00F002F80120DA
:10449000704780B500F002F801BDFEE707463846D8
:1044A000FFF74EFDFBE738B505000C00200000F0DB
:1044B00005F8A04200D00025280032BD80B5024991
:1044C000FFF765FF02BD00BF900000206E616E0027
:1044D0004E414E00696E6600494E460001488047D5
:1044E00001480047553F0000ED44000000BF00BFF9
:1044F00000BF00BFFFF7BCFF00002E00FEE7FEE795
:10450000FEE7FEE7FEE7FEE7FEE7FEE7FEE7FEE783
:10451000FEE7FEE7FEE7FEE7FEE7FEE7FEE7FEE773
:10452000FEE7FEE70004BC000001EE001BF84400BB
:1045300000F8440000F8440000F8440000F844008B
:1045400000F8440000F8440000F8FF0BFA440000B3
:10455000F8440000F8440000FAFF150000020401CE
:10456000018C250020DC2500208C2500208C2500D6
:1045700020FC00038C250020FC0007D4000020C094
:05458000000020E00036
:04000005000044EDC6
:00000001FF
