:10000000A8230020593A0000653200007F28000034
:1000100000000000000000000000000000000000E0
:100020000000000000000000000000009B2E000007
:100030000000000000000000BB2F0000271A000095
:100040001F3300007D320000873200009132000033
:100050009B320000A5320000AF3200007332000076
:10006000B9320000C33200002933000033330000EE
:10007000CD320000D7320000E1320000EB32000048
:10008000F5320000013300000B330000153300008F
:1000900030B5644AC3780C001B19D370931C847864
:1000A0000D00ADB22D0A64191C70541C45782570E2
:1000B0000078107090780D00ADB22D0AADB2A84254
:1000C00008DA5078401C20705078002802D110784F
:1000D000401C1070D07889B2C9B288420EDA90788C
:1000E000401C18709078002808D15078401C20706F
:1000F0005078002802D11078401C107030BD10B527
:100100000B0092B28A18521E0BE0197809025C7833
:10011000091940180400A4B289B28C4200D2401CD4
:100120009B1C9342F1D3934208D1197809024018DD
:10013000020092B289B28A4200D2401C80B210BD45
:1001400080B514226A490020FFF7D9FF010089B267
:10015000002901D1684802E080B201F007F880B2BE
:1001600002BD38B5634C217C0902627C8D18143DB8
:10017000C0B22818082221001A3180B2FFF7BFFF51
:100180002A0092B22100223180B2FFF7B8FF0100AD
:1001900089B2002901D1584802E080B200F0E6FFA0
:1001A00080B232BD80B50620FFF7DBFF02BD80B50F
:1001B0001120FFF7D6FF02BD30B500215A480A00D2
:1001C000027007E0594A037802246343D15202784F
:1001D000521C02700278052AF4DB0A0002700AE061
:1001E0000A00534B047894256D006C431B195A7612
:1001F0000278521C02700278052AF1DB8022D200BC
:100200004C4B1A800A00027008E04B4A0378102415
:100210006343D21891800278521C02700278052A3A
:10022000F3DB30BD741F0020F1B582B00F00FFE793
:10023000404C2088401C20802088FA21C901884237
:1002400002DB8020400120800025374E28003070DE
:100250000FE03948317810225143401881880091CD
:10026000208800F083FF00998142E1D03078401C63
:10027000307030780528ECDB00952800307002E003
:100280003078401C3070307805280CDA2A483178F4
:1002900010225143411889880029F1D13178102268
:1002A0005143401800900098002801D100201DE023
:1002B000029821880902228892B2120A0A43009900
:1002C0008A800099CF80002806D104212A00009C52
:1002D000200000F071FF05E00188009A118040883D
:1002E000009948804020009908720098FEBD0000E7
:1002F0006200002054000020FFFF000010B5010044
:10030000BE4C89B220680830FFF7C2FE0B48017866
:100310002268117241782268517281782268917244
:10032000C0782168C87210BD9D1F0020141F0020D6
:1003300080120020881F0020581D0020741F0020FC
:10034000F8B5AE490D680100C9B2042905D1BD4810
:100350000188002900D017E21BE0BB4C2100363198
:10036000BA4A1160B9490968B94A11600100C9B2B5
:10037000032915D1687E0007000F032809D1288AB8
:10038000002806D10820B349087000F0F2FF00F001
:10039000EDFD00200100BE4A1180AE490870F1BD9C
:1003A0000100C9B2022900D0A1E0BA48C178491CB5
:1003B000C170C17800290ED18178491C8170817883
:1003C000002908D14178491C41704178002902D1A7
:1003D0000178491C017000200100AD4A1180010024
:1003E000984A1180697E072902D0697E052907D1C4
:1003F000A97E491CA976A97E782900D16876C8E72C
:10040000697E0029FBD0298A002964D0A97E4A1E72
:10041000AA76C9B20029F2D1E97E082908D0697EFE
:10042000022902D0697E01290CD1E97E052909D172
:10043000687680208749087000F09BFF14202F21E8
:10044000605460E2E97E052901DB042100E0E97ED9
:1004500003228A40AA76E97E491CE9769E49CA8C25
:10046000521CCA84697E0907090FC9B201290AD042
:10047000022924D0032925D004292AD0062928D0EE
:10048000082926D0BBE710202F21605402202F21FD
:10049000615C02000A432F2162543621605404201B
:1004A000372160540620382160540A2039216054D5
:1004B0002C207749088060202E21605429E22F21CA
:1004C0006054E3E704206349087000F052FF00F035
:1004D00083FD00F0F4FC687E0007000F03288ED136
:1004E00008205C49087000F044FF00F03FFDC0B2F6
:1004F00005281AD1A34800688088002814D000215C
:100500003E480160514822002A3202600068504A89
:1005100010604C48018000885D49088008204D49E2
:10052000087000F027FF12E733E76B4E7088401C1D
:100530007080A07B452809D03088401C3080F0882E
:10054000401CF080B34801F0A7F922E7504800882A
:10055000217C0902627C8918884215DB207C00021C
:10056000617C40184A490880207D800602D1607D68
:1005700000280DD03088401C3080B089401CB081EC
:10058000A54801F089F904E7A44801F085F900E7DE
:10059000A34DA44800882988884204D1A1484088F6
:1005A000698888420CD09F48E18B0288914203D130
:1005B000218C4088814203D03088401C3080E8E69E
:1005C000FFF7BEFD9849884209D03088401C308032
:1005D000F089401CF081954801F05EF9D9E6E07D94
:1005E00006280DD1B08B401CB083FFF7DBFD8E4990
:1005F000884200D004E18E48050022E1681F0020F7
:10060000E07D112810D1224801881C39018020008A
:100610002A3000900D4F00983860208D00284CD172
:100620008448584908605CE0E07D012814D0308897
:10063000401C3080308A401C30827F4801F02CF909
:10064000A7E600BF841F002054000020601F002088
:10065000641F00209C1F0020B08A401CB082222012
:10066000205C082809D0708A401C7082308B401CA6
:100670003083C84801F010F98BE600202221605435
:10068000A08CC549884207DBA08C0930A08406E015
:10069000821F0020701F0020A08C0830A084608B77
:1006A000E083A08B20845F48018861834088A08319
:1006B000F08A401CF08200F04CFDFFF778FD5A49AB
:1006C0008842ADD0B08D401CB085708E401C7086C5
:1006D000B24801F0E1F85CE6B81E00200A6810326A
:1006E0000A600A68030050339A4246D20A68928828
:1006F000002AF3D0A28C0B689B889A42EED10A683C
:10070000D288002A0AD0628C0B68DB889A4205D016
:100710000A68D2888A23DB019A42DFD10A681288EC
:100720002B889A4204D10A6852886B889A4214D066
:100730009B4A0B681B881688B34204D10B685B8800
:100740005288934209D0628B0B681B889A42C5D1AC
:10075000A28B0B685B889A42C0D10020D249086006
:100760000221D24A1170009939603968D04A11606B
:10077000D049088000F0FEFDE9E5CF4801F08CF893
:1007800007E600BF6C1F0020CC4902881C320A809B
:10079000CB4C0A8892B2120A227409886174C94942
:1007A0000A68127AA2751122E275028808321202D2
:1007B0000088083080B2000A1043E08400202085C1
:1007C0000868808860840868C088A084154802880A
:1007D00062834088A08308680088E08308684088B6
:1007E000208420003630B8490860FFF7E0FCC143A0
:1007F0002185208D002801D10B48208500F08CFC3C
:10080000708B401C7083308C401C3084AF4801F0EA
:1008100043F8BEE5EC3700007C390000BC3700002F
:10082000D43A0000541F0020FFFF0000FC390000F4
:1008300080120020581D00206039000094214900DA
:100840006D189421C9004118A94200D295E0697E33
:100850000029F3D0A18CAA889142EFD1618CEA885B
:100860009142EBD1618B2A889142E7D1A18B6A88B2
:100870009142E3D18C480560002738008B4908700D
:100880002F20205C400700D5D7E12E20205CC0B28D
:1008900000098000C149087088480088BF4909786C
:1008A000401A143885490880687E0007000F022826
:1008B00006D12F20205C8006800E122800D1C7E1CF
:1008C0007E480088002806D12F20205C8007800FFA
:1008D000002800D1BCE12620205C297A88420FD173
:1008E0002720205C697A88420AD12820205CA97AD6
:1008F000884205D12920205CE97A884200D1A7E10D
:1009000010202F21605428206C49088050202E216F
:100910006054287A2A216054687A2B216054A87A7E
:100920002C216054E87A2D216054287B26216054C4
:10093000687B27216054A87B28216054E87B29210B
:10094000605406200100E175A9886184E988A184CA
:1009500093490A8862834988A1832988E183698849
:100960002184697EC90600D4BBE300203121605494
:100970003120205C30216054B8E32F21615C89066E
:10098000890E022924D1A18CB84A1180834F0021FD
:1009900039700AE094390000F7FF0000103A0000B7
:1009A000D03A00003978491C3970397805290CDAB9
:1009B000AE4909887B4A3B7802256B43D25A914263
:1009C000F0D100250021397097E0708D401C7085B2
:1009D0002F20205C400700D5DBE4B08C401CB084A5
:1009E00014202F21605428203449088050202E21C3
:1009F00060546A482921615C01702D21615C2922C3
:100A0000A15401782D22A1542821615C01702C2170
:100A1000615C2822A15401782C22A1542721615C19
:100A200001702B21615C2722A15401782B22A15453
:100A30002621615C01702A21615C2622A154007884
:100A40002A2160542D20205C401C2D2160542D2033
:100A5000205C002816D12C20205C401C2C216054E6
:100A60002C20205C00280DD12B20205C401C2B2149
:100A700060542B20205C002804D12A20205C401CDC
:100A80002A2160547948618C0180A18C618400889E
:100A9000A084608BE083A08B20844148018861831F
:100AA0004088A08322E300BF681F00209C1F002015
:100AB000641F0020841F002064380000821F002073
:100AC000540000206C1F0020601F0020243A00000A
:100AD0003A784A438218527E072A0BD1002D06D05D
:100AE000AA7E3B784B43C3189B7E9A4202D23A7847
:100AF0004A4385183978491C3970397805290ADA4A
:100B0000942149003A784A438218527E002ADFD164
:100B10003A784A438518002D06D1308D401C308527
:100B2000534800F0B9FE34E4524805600320A8762B
:100B3000A87E287600263000A8750420E8753000CD
:100B4000E876A08CA880608CE880608B2880A08BE1
:100B50006880012001006976C5490A782A734A78BD
:100B60006A738A78AA73C978E97328822920205C7D
:100B7000E8722820205CA8722720205C687226205A
:100B8000205C28720120FFF7B9FB2E20205CF021A9
:100B90000140512900DA76E43E7008E09D1F0020F4
:100BA000541F0020141F00203878401C38703878FB
:100BB0002E21615CC9B20909C9B2491F8900884266
:100BC00000DB60E4C048397861183622895C017026
:100BD0000178002900D156E401780129E4D0007899
:100BE000022805D1387820183721405C04280DD020
:100BF000387820183721405C00281DD038783978A3
:100C000061183722895C40183870D0E71748397866
:100C100061183822895C09023A78A2183923D25C1B
:100C2000114301800188A94A914201DBA84800E0F4
:100C300000886882A88226E425E46F76A54800F043
:100C40002BFE2020A449087000F093FBFFF7A1FBC6
:100C50002F20205CC00653D5288A002850D0298A2E
:100C600028000C30FFF714FA9C4805E08A1F00208A
:100C700088380000681F00202A21615C02789142B8
:100C80003ED12B21615C4278914239D12C21615CAB
:100C90008278914234D12D21615CC27891422FD16A
:100CA00001782973417869738178A973C078E873F2
:100CB000E87E00281DD1287EA97E401AA97DC9B2F0
:100CC000C908411AA87D4018A875080040B200283C
:100CD00002D5080040B24142E87DC0B28008081A3F
:100CE000E97D0818E875A87DC0B2C008E97D401804
:100CF0002876012078490870287EA8763800288256
:100D0000687E0007000FC0B2012813D000D2E6E1D0
:100D1000032800D1AEE029D3052800D1BAE100D2E2
:100D20008AE1072800D1D2E100D2D1E1082800D120
:100D300078E1D4E168480178C90715D503216976BF
:100D40004021017039002982B2490A88002A06D060
:100D500002780223134303700888FFF7CFFAAE48E6
:100D6000078000F006FB01E1FFF713FB5A4800780B
:100D7000C00774D52F20205C8006800E12286ED10B
:100D80002E20205CF0210140512919DBA3483900B5
:100D9000017002E00178491C017001782E22A25CEA
:100DA000D2B21209D2B2521F9200914208DA4649D9
:100DB0000278A2183623D25C0A700A78002A1DD164
:100DC000032068762620205C28722720205C687229
:100DD0002820205CA8722920205CE8720120FFF7FF
:100DE0008DFA42203C490870380028823800894931
:100DF00008808948078000F0BCFAB7E00A78012A29
:100E0000C8D00978022905D1017861183722895C98
:100E100004290DD0017861183722895C00291DD082
:100E200001780278A2183723D25C89180170B4E7E0
:100E3000CC490278A2183823D25C1202007820181C
:100E40003923C05C02430A800888204A904201DBB3
:100E50001F4800E008886882A882B1E7B0E7202038
:100E60001D49087000F085FABF4800684776AFE575
:100E7000701F00202F20205CC00731D5687EC0067F
:100E80002ED4288A002801D0FFF783FA614E3088DB
:100E9000401C80B2FFF732FA0F48017810220A4353
:100EA00002703188002903D0017802220A430270BF
:100EB00000F05FFA0120288208206876EF76112082
:100EC0002F2160541FE500BF9E1F00200B0600006D
:100ED0000A060000143800009C1F0020741F002028
:100EE0002F20205C800614D5AB4800683421615C5B
:100EF00009023522A25C0A438018A74908604548C8
:100F000001883422A25C12023523E35C1A43891A59
:100F100001804048018800290BD0697EC90608D4A9
:100F20009E49097802220A439C490A700088FFF70B
:100F3000E5F98C483021615C09023122A25C8918F4
:100F40000180A98A0288914202D30188002901D137
:100F5000A98A018000886882904800788007800F05
:100F600000285DD02C48078000F003FA8B480178F8
:100F7000890608D500200100274A118068761420D0
:100F80002F216054BFE40178C9060CD50020010070
:100F9000214A11800121298204216976E8761120F5
:100FA0002F216054AFE41C490A88002A12D000782F
:100FB000C00701D500202882288A002808D1688A25
:100FC0000A88904201D2688A08800888288201E055
:100FD000288A08800020E876714800686E49086019
:100FE0000D48008800280AD0288A002807D0288ABF
:100FF00028300849088018202F21605486E467486B
:10100000007880070CD528200249088010202F2165
:1010100060547BE4821F0020841F00209D1F00205D
:10102000FFF7B7F95D480178C90704D56F7610213D
:10103000017000F09EF952E05A4E3088002802D02C
:101040003088FFF75BF92F20205CC00713D5534E83
:101050003078C00705D5072068763800A8762F823B
:1010600001E0062068760120FFF748F91020307073
:1010700000F07FF944E449480078C00704D5052012
:1010800068762F82FFF785F93088002800D037E492
:10109000FFF77FF9434E3088002802D03088FFF7F1
:1010A0002DF92F20205CC0070BD507206876AF767E
:1010B0000120FFF723F910203849087000F059F992
:1010C0001EE43088002800D01AE4FFF762F917E424
:1010D00032480078C00702D507206876AF76FFF760
:1010E00058F9302160540A20312160544020A07505
:1010F0002C48018889B2090A217400886074002094
:1011000001003522A1543521615C3422A15460864E
:10111000FFF748F8C1436186234C4520A0730020A7
:101120000100E17301006175617D21751F490A8825
:10113000521C0A800A8892B2120AA2740988E174C9
:101140002083FEF7FDFFC14321831948C18B491C51
:10115000C18317488188491C818000200F4908708D
:10116000FFF71DF98A1F0020681F0020010280B2CE
:10117000000A084380B2704710B501290BDB0D4A05
:10118000118007490B68984205D012880C6801004D
:10119000200000F0F3FB10BD601F00209C1F00200A
:1011A000641F0020821F002054000020861F0020A2
:1011B000B81E0020841F00201206130A1A43130CC5
:1011C0001A4300BF094205D0830705D00270401CB6
:1011D000491EF9D1704700001300103906D330B40E
:1011E0001400150010393CC0FCD230BC490700D3B4
:1011F0000CC000D504C0890002D30280801C0029E5
:1012000000D5027070470268531C0360117070476C
:101210001CB57B480078002838D100F004FA00F0B3
:10122000FCFBFA21490040187649086000F0F5FB04
:101230007549401875490860FEF7BEFF00216846F1
:1012400001804180724A0388138043885380018063
:101250004180704A03881380438853800180418015
:101260006D4902880A804088488000F0EAF96B4C9A
:10127000200000F0D7FA0621200000F049FE00F01F
:1012800065FE01F007F801206549087013BDF1B54E
:1012900082B00F00B3226349634801F02BF8002F9E
:1012A0000DD100221000614908702821AC4C2000AB
:1012B000FFF782FF02995E4801F01CF844E078884D
:1012C000FFF754FF04007888FFF750FF05003888C7
:1012D000FFF74CFF06003888FFF748FFA4B2E1B2E1
:1012E0000191290089B2090A89B20091B6B2F3B21C
:1012F000020092B2120A92B202994E4800F0FAFF2E
:1013000001204A4908707888FFF730FF0400788888
:10131000FFF72CFF05003888FFF728FF0600388804
:10132000FFF724FFA4B2E1B20191290089B2090AB2
:1013300089B20091B6B2F3B2020092B2120A92B22E
:101340008849874800F0EAFFF7BD80B500202C49A6
:10135000087085480078002801D1FFF759FF01BDCA
:1013600080B581480078012801D100F065F800209F
:1013700002BD704780B500F0E5FD00F027FF01BD1C
:1013800038B57B4C207800280ED0022823D00328C3
:101390002FD004282ED005282DD006282CD00728A1
:1013A0002BD008282AD029E000F015FE002811D003
:1013B00002252800207000F030FB6E4908606E485E
:1013C000694608804880684600F052FF6B4800F08C
:1013D00011FF257012E00120694908701348007858
:1013E000012805D1032020705D49664800F082FF86
:1013F00004E003E002E001E000E0FFE731BD0000AF
:10140000510000203C1F002010270000401F00203A
:10141000541F00205C1F0020581F0020201F0020A8
:101420008F1F0020483A0000683A00008E1F0020FD
:10143000E8390000EC38000070B5FFF7A1FF00F0BC
:1014400003FA002827D0504C208080200001FFF7AD
:101450008DFE4E4DA98980B281420CD10120FEF74C
:101460006FFF2088002816D001F08AF800F028FAD3
:10147000002020800FE04648FFF778FEA98980B25F
:10148000814208D101F00CF82088002803D000F038
:1014900017FA0020208000F0C0FA3E490A68904206
:1014A00036D30868FA22520080180860002425000C
:1014B00014E0394894214900694340182B490860D9
:1014C0000220FEF73DFF304E3088002805D001F0A5
:1014D00057F800F0F5F9200030806D1C052DE8D399
:1014E000250013E02D481021694340182C4908605D
:1014F0000520FEF725FF244E3088002805D001F096
:101500003FF800F0DDF9200030806D1C052DE9D397
:1015100000F083FA23490A68904205D30868224AFA
:101520008018086000F01AFF0024250014E01A4813
:1015300094214900694340180C4908600320FEF7D4
:10154000FFFE114E3088002805D001F019F800F098
:10155000B7F9200030806D1C052DE8D370BD000068
:10156000EC1E0020743A00008F1F0020681F00202E
:10157000901F0020441F002072720000803A00007B
:101580004310004044390000821F00205400002016
:10159000060800003C1F002080120020581D00207B
:1015A0006C1F0020401F00201027000000219149DF
:1015B000C006C00E2021014399480170B948008837
:1015C00080B2704700B5C0B2002805D09C490A68B7
:1015D00010201043086004E09A490A681020104364
:1015E000086000BD00B5C0B2002805D095490A6862
:1015F00080201043086004E091490A68802010436D
:10160000086000BD1CB504000020009000F005FA41
:1016100000900098A04203D20098401E001B01E0F9
:101620000098001B16BDB9480178FB220A400270E1
:101630000178C0220A43027001788906890E017080
:101640007047FEB5684693490CC90CC00839083884
:10165000954C68464179617101792171C178E170D9
:101660008178A17041786170007820700421802019
:1016700001F083F80421102001F07FF80020FFF72B
:10168000A1FF0020FFF7AEFF884A57201070A82066
:10169000107087480178DF230B400370FD208549D7
:1016A0000B7803400B7000210B001370824B0A0073
:1016B0001A701A78D82515431D7004221D7816005B
:1016C0002E431E70FF23924D2B70C0257B4B1E783E
:1016D0002E431E708D4B1E7835431D701D78AD0650
:1016E000AD0E1D708B4D29702978BF260E402E70CF
:1016F0002978F7260E402E702978FB260E402E7092
:101700002978A3260E432E70834D01212E780F00D9
:1017100037432F702E783040287028781600064303
:101720002E702878082606432E7064207B4D288072
:101730007B48057820262E430670102506782F005A
:10174000374307700678FB27374007700678314328
:1017500001707448744908807448018840260E431B
:101760000680734873490880187802431A706848E5
:101770000678F6B22800664908700120FFF716FFC8
:1017800000F04BF9070001E001F04CF82E40002E6C
:101790000CD15F480678290001700120FFF706FF91
:1017A0003800FFF72FFF64498842EDD30120FFF78F
:1017B00009FF607961490870207961490870E07813
:1017C00060490870A0786049087060785F490870C7
:1017D00020785F4908705F48217801706178417016
:1017E000A1788170E178C1702179017161794171CD
:1017F000F7BD0000FFFF000010B5574C207800280F
:101800000DD00120FFF7EEFE54480068FFF7FAFE06
:10181000642804D30020FFF7E5FE0020207010BDEF
:101820002490004020490A7802704A7842708A78F1
:101830008270CA78C2700A79027149794171704721
:10184000CC100040C810004070B5314908784022E3
:1018500013000B700240002A1AD03F48017800297B
:1018600005D10121017000F0D8F83C490860002042
:101870003B48048821003B4A118002882C4D2900F6
:10188000394E300000F07AF82A480580200000E048
:10189000002070BDB03A000080B50100334800F070
:1018A00029FD01BD20900040281F0020401000406D
:1018B0000D1000400F1000400390004005900040C4
:1018C00070B525480178002905D10121017000F08B
:1018D000A4F822490860234C22882349244D2E0075
:1018E000300000F04BF80A48082101702288214B93
:1018F0001A80214A1580054A13780B431370027829
:1019000000E002780A42FCD070BD00000790004061
:101910000490004018900040199000401C90004036
:101920001A900040F40500001E9000401A1000407C
:10193000980600200C90004088130000289000407A
:10194000299000402A9000402B9000402C900040AD
:101950002D900040301F0020911F0020481F0020C4
:101960000E900040821F002054000020B83A000072
:101970008C0C00200A90004008900040124207D0D2
:101980008B0706D00B78491C0370401C521EF7D8F9
:101990007047830706D00B78491C0370401C521E09
:1019A000F9D1704770B4103A03D378C9103A78C0AF
:1019B000FBD2530701D318C918C001D508C908C004
:1019C000D20704D30B880380891C801C002A01D510
:1019D0000B78037070BC704780B500F00CF81448A9
:1019E000144908600020144908600521134A116059
:1019F0001349086001BD0020104908600D490860C6
:101A00000D490860704700B50C480068C00303D555
:101A10000B480168491C016000BD80B5FFF7F3FF6A
:101A20000748006802BD80B506480068804701BDD0
:101A30007FBB000014E000E018E000E010E000E0F0
:101A4000501F00203C40000035220270401C012243
:101A50000270401C0170401C704738B5362101707F
:101A6000401C042211000170441C934925002800E9
:101A7000FFF784FF201D32BD38B532210170401CB4
:101A8000042211000170441C8C4925002800FFF736
:101A900075FF201D32BD37210170401C03210170EC
:101AA000401C01220270401C0170401C0621017084
:101AB000401C7047FF210170401C7047F8B50500BD
:101AC00001200100297068707D4FB869A870002658
:101AD0003000E870042422007A49281D0090009804
:101AE000FFF74CFF00983000288180206881220099
:101AF000754928000C3000900098FFF73FFF0098D0
:101B0000210032002800103000900098FFF754FBAD
:101B10000098210032002800143000900098FFF750
:101B20004BFB0098210032002800183000900098EC
:101B3000FFF742FB0098BA69796928001C300090D1
:101B40000098FFF71BFF00981020B969411A320076
:101B5000B869281807001C373800FFF72DFB402113
:101B600032002F002C373800FFF726FB802132008F
:101B70002E006C363000FFF71FFB220053492C006B
:101B8000EC342000FFF7FAFEF1BD38B5504C256863
:101B90002800FFF793FF01212800F030FFF754FFE2
:101BA000FFF779FFFFF786FF2168411A2068FFF7EA
:101BB000E3FA31BD38B5464C25682800FFF77EFFB3
:101BC00003212800F030FFF73FFFFFF746FFFFF744
:101BD00053FFFFF76FFF2168411A2068FFF7CCFA27
:101BE00031BDF8B50400651800260FE00422A11CE1
:101BF000384F3800FFF7C2FE05E00422A11C364F23
:101C00003800FFF7BBFE60782018841CAC4229D254
:101C100020780128EAD003280AD006280FD03328DC
:101C2000EBD0352812D0362812D0FF2817D0EAE79B
:101C30000422A11CB44F3800FFF7A0FEE3E7042202
:101C4000A11CB24F3800FFF799FEDCE7A678DAE76F
:101C50000422A11C184F3800FFF790FED3E7300094
:101C6000C0B201E03000C0B2F2BD38B51848056816
:101C7000287802281DD104221249281D00F0D6FD23
:101C8000002816D10E4CA269616928001C3000F0B2
:101C9000CDFD00280DD1042229001031243420006C
:101CA000FFF76CFEAF4801882800F030FFF799FF7E
:101CB00000E0002032BD0000A01E0020A81E002071
:101CC000841E0020C83A0000541F0020CC3A0000B7
:101CD000601F0020AC1E0020A41E002070B5012152
:101CE0000800A14C2288002A16D088235B00D21A53
:101CF00021D0521E27D0153A56D0521E5CD02F3A12
:101D000000D1A3E0521E00D1A8E0143A00D1C1E0F6
:101D1000521E00D1C6E0F1E0A170FA2080002061DF
:101D2000FFF733FF21692000083000F093FD002009
:101D3000882149002180C0B2002801D10320E1E0C0
:101D4000FF2012302080A54D02262878310008425D
:101D500007D12000083000F084FD002801D10020C8
:101D6000D0E028783100084205D0FFF77EFF022836
:101D700001D1A6700AE020699949884203DA2069F6
:101D8000022148432061A0780228C9D1FA208000AE
:101D90002061FFF70FFF21692000083000F05AFD95
:101DA0000020932149002180C0B2002801D10320E6
:101DB000A8E0FF2028302080884D022628783100B6
:101DC000084207D12000083000F04BFD002801D167
:101DD000002097E0287830421CD0FFF746FF052806
:101DE00018D10320A070200000F0C0F8208CFFF76D
:101DF000BDF90504608CFFF7B9F905436808FA21BD
:101E0000890002004A4380231B069A4213D24843AA
:101E1000206112E020697349884208DA2069FA21BA
:101E2000890040182061A0780328B2D1DBE70020A8
:101E30002080002066E06C48206121692000083085
:101E400000F008FD0020AB2149002180C0B200282D
:101E500001D1032056E0FF205830208020000830B8
:101E600000F0FFFC002801D100204BE00220A07010
:101E7000FA208000206100F069F800F0ABF8FFF76D
:101E800099FE21692000083000F0E4FC0020FF21C9
:101E90006C312180C0B2002801D1032032E0B6208D
:101EA000400020804D4D022628783100084207D19D
:101EB0002000083000F0D5FC002801D1002021E0EE
:101EC0002878304209D0FFF7D0FE052805D103203D
:101ED000A070200000F04AF888E720694149884254
:101EE00008DA2069FA21890040182061A0780328C7
:101EF000C5D1EEE700202080002003E0002108008B
:101F00002180022070BD0000B41E0020B01E002001
:101F100038B5154C6061A16100252800A0703348D8
:101F20006946088048808621C9016846FEF77CF929
:101F300060606068002803D08820C00161688880E4
:101F4000258031BD80B5FFF7C9FE01BD81B00020FD
:101F500069460880488026480A880280498841806E
:101F600001B07047821F0020841E0020F8B50400D5
:101F70001F48A18C0180E18C41801E48218D018089
:101F8000618D41801C48218E0180618E4180E08CF2
:101F9000FFF7ECF80500E08CFFF7E8F80600A08CEE
:101FA000FFF7E4F80700A08CFFF7E0F8ADB2E9B264
:101FB000009133009BB21B0A9BB2BFB2FAB2010080
:101FC00089B2090A89B20D4800F094F901200C4940
:101FD0000870F1BD70470A48007870479C1F0020C8
:101FE00060EA000011270000FFFFFF7FFFFF0000F5
:101FF000541F00205C1F0020581F0020CC38000018
:102000008C1F002000B50178401C01E0401C491ED7
:102010000A00D2B2002AF9D101780029F3D1401C7C
:1020200000BDF8B5994D0020287002E02878401CCA
:1020300028702878042867DA954829782A2251439D
:1020400044182078012802D020780228EED1207888
:10205000022815D16078401E607060780028E5D1B4
:10206000A078401CA070A078082806D10420207019
:102070000021601DFFF70BF9D8E7A078607005E03C
:1020800002202070012060700020A0708A4F3E68FE
:102090000C21002200960098FFF78EF8009828780F
:1020A00080B2FFF763F830800120B07080204000DC
:1020B000B080386805000C35621D521E521C280085
:1020C0006D1C7E4900230B7006E013782B706D1C8D
:1020D0000B785B1C0B70521C13782E2B02D01378DC
:1020E000002BF2D10978017010780028E6D1052282
:1020F00073492C002000FFF741FC681D3968411A24
:10210000C9B23868FFF738F8F1BDF8B56A4F3D68D5
:102110006C4E2888FFF72AF830705D4831782A2203
:1021200051434418307804284FDA207802284CD1E3
:1021300003202070E8780007000F20712079002824
:1021400006D0042020700021601DFFF7A0F83CE0BD
:10215000A888FFF70BF85C4908705C4EE888FFF729
:1021600005F8307038680C30FFF74CFF001D07E0B1
:102170000089FEF7FBFF28180A303178491E3170BC
:102180003178002921D00178C0220A40002A01D0EC
:10219000851C02E0FFF736FF05002800802149007A
:1021A00002888A42E4D142888A42E1D101898022B0
:1021B000D2009142DCD14189E184808920852100CF
:1021C0002631601DFFF763F8FFE7F1BD10B5404809
:1021D0000068C088D421890188420AD13D4C20780A
:1021E000000701D5FFF71DFF2078800701D5FFF715
:1021F0008CFF10BDF8B5002537490D70374A0B78B4
:102200001370374B1D7011E0364D1778BC462F7890
:10221000E678BE1B6746B74205DA2D78E678AD1B37
:1022200015701D780D701D786D1C1D701D78042DA6
:1022300007DA174C1D782A26754364192578002D76
:10224000E2D11A78042A06D10978197010491A784F
:102250002A235A438C180100601D00F011FB012055
:10226000207020480178E1700178491C0170F1BDAF
:1022700010B51D4C2168002902D0002122689180F0
:10228000D4218901FDF7D0FF206010BD931F0020ED
:10229000501C002010B515480021017008E00321F2
:1022A000134A03782A246343D1540178491C0170EE
:1022B00001780429F3DB10BD601F0020941F00206B
:1022C00000000020971F0020951F0020961F00206F
:1022D0006C1F00209C1F00209A1F0020991F0020C7
:1022E000981F0020921F00204C1F00209B1F0020E1
:1022F000501C00200EB4C0B5020003A801900020BD
:10230000009001AB0121044878440C3000F0F2FA4F
:10231000029906B0084700BF951600000CB418B526
:1023200083B004000A0006A80290019400200090E7
:1023300002AB01A9084878441E3000F0DBFA002106
:10234000019A1170002801D40198001B04B0019972
:1023500010BC03B0084700BFAFEEFFFFF8B5874CD5
:102360002078401C20700025824E2800307016E036
:10237000814831780C2251434718388879880143C5
:10238000002909D02078B97A401A782804DB042182
:102390002A003800FEF710FF3078401C307030788B
:1023A0000828E5DBF1BDF1B50C00734805000022FB
:1023B000704913000B7002E00B785B1C0B700B78FC
:1023C000082B1DDA0B780C256B43C5182B88002BC6
:1023D000F2D06B88002BEFD0009B1B882E88B34275
:1023E000EAD1009B5B886E88B342E5D106222100CA
:1023F0002C1D2000FFF7C2FA60480078A8724EE05A
:1024000013000B7002E00B785B1C0B700B78082B31
:1024100009DA0B780C256B43C5182B88002BF2D1F9
:102420006B88002BEFD10B78082B29D11300A24D1C
:102430002B701300A14D2B700A7017E00A780C2343
:102440005A4382189C4B4D4D1F78BC462F78967A84
:10245000BE1B6746B74206DA2D78927AAA1A1A701E
:102460000A78964B1A700A78521C0A700A78082A61
:10247000E4DB924A12780A7009780C22514345181D
:10248000042200992E003000FFF778FA062221007E
:102490002C1D2000FFF772FA38480078A872F1BDB1
:1024A000F8B5874800882A2803D20020844908808C
:1024B0005DE0002082490880824CA08A802149008A
:1024C000884204D080218900884241D04FE07E4D6F
:1024D000E08C298888423AD1208D6988884236D19B
:1024E0002100163120001C30FFF75DFF80208000A6
:1024F000A08206263200210016312700203738003E
:10250000FFF73CFA3200714F39002000163000907E
:102510000098FFF733FA009832003900A71D380001
:10252000FFF72CFA32002100203126003000FFF79F
:1025300025FAA08BE084E08B20852888A08368881A
:10254000E083C120C000A0812A205D4908800EE000
:102550005D48E18C0288914209D1218D40888142F9
:1025600005D12100163120001C30FFF71CFFF1BD02
:10257000000000009F1F0020F81C0020A11F002069
:10258000F8B553490800534A4E4DEB8B1488A342CB
:102590000AD12B8C5288934206D106224E492C0038
:1025A0002000FFF7EBF979E04C4AEC8B13882340CD
:1025B000454C248816882640B34208D12C8C538879
:1025C0002340414C648852882240934206D0444BB9
:1025D000444A1C8814805B88538004E0414AEB8B9A
:1025E00013802B8C5380404A00242300137002E098
:1025F00013785B1C13701378082B0CDA10780C23FB
:1026000058430818374B1E880788BE42F0D15B88B4
:102610004688B342ECD11178082939D10626310019
:10262000FF222F003800FEF7C7FD310022002C00EA
:1026300020342000FEF7C0FD3200244C2100AF1DE5
:102640003800FFF79BF9320021002C0016342000DF
:10265000FFF794F923480188E984408828851A48BF
:102660000188A9834088E88380204000A882E8810F
:1026700008202882AE740420E874C120C000A8811C
:1026800028003630194908602A200D49088011E0D9
:102690000622011D2C002000FFF770F906220B49CD
:1026A000AC1D2000FFF76AF90820A88104480188C2
:1026B0000E310180F1BD0000A21F0020A01F0020EC
:1026C000821F002054000020541F0020301F0020D3
:1026D000F81C0020D83A0000C03A00005C1F00201F
:1026E000581F0020781F00209F1F0020601F00201F
:1026F00000B5C9B2002906D002291ED010D3042982
:1027000031D027D338E03F490A6882430A603E4906
:102710000A6882430A603D490A6882430A602BE0E6
:1027200038490A6882430A6037490A6802430A60E6
:1027300036490A6882430A601EE032490A68024349
:102740000A6031490A6882430A6030490A68824354
:102750000A6011E02B490A6882430A602B490A6823
:102760001043086008E027490A6802430A602749C5
:102770000A6810430860FFE700BD00B5C9B2002930
:1027800006D002291ED010D3042931D027D338E037
:102790001F490A6882430A601E490A6882430A6028
:1027A0001D490A6882430A602BE019490A6882437E
:1027B0000A6018490A6802430A6017490A68824396
:1027C0000A601EE012490A6802430A6011490A6859
:1027D00082430A6010490A6882430A6011E00C498A
:1027E0000A6882430A600C490A681043086008E0DE
:1027F00007490A6802430A6007490A6810430860EB
:10280000FFE700BDB4100040B0100040A010004031
:10281000D4100040D0100040C010004080B500F03F
:1028200015FB01BD80B500F019FB01BD10B402E03D
:10283000401C491C521E002A09D00B7804789C4287
:10284000F6D002D20020C04302E0012000E00020C8
:1028500010BC704710B50400616000F00FFB2060F1
:1028600010BD10B5040000F009FB2168401A616832
:10287000884201DB012000E00020C0B210BDFEE76D
:1028800031B48B0707D00B780370002B20D0401C8D
:10289000491C8B07F7D1164CE501830722D104C9E7
:1028A000131B93432B4205D104C004C9131B93434C
:1028B0002B42F9D0FF231A42027009D0120A1A42A1
:1028C000427005D0120A1A42827001D0120AC270F8
:1028D00031BC70470270120A4270120A8270120AEA
:1028E000C270001D04C9131B93432B42F2D0E1E7D1
:1028F00001010101F8B594B0070016001D001A98F7
:10290000039102A92B2288540020099001950BE025
:1029100025290ED00398B8470390002800D1EAE09B
:102920000998401C0990761C31780029F0D109984B
:10293000E3E000250695079508950022340002E0A3
:10294000100001220243641C20782028F8D023289C
:102950000CD02B2804D02D2805D0302809D0CEE06B
:1029600010000222EEE710000422EBE7100008221C
:10297000E8E710001022E5E70B950AE00B996A4B97
:10298000994205DA8B0059184900081830380B9025
:10299000641C2078010030390A29EFD320782E28D2
:1029A00003D00020C0430A9028E0641C20782A2825
:1029B0000AD101980068019908600168001D019B17
:1029C00018600A91641C19E02D2802D12D23641C83
:1029D00000E000230A950CE0002B09D10A99524E21
:1029E000B14205DA8E0071184900081830380A9093
:1029F000641C2078010030390A29EDD302A8028531
:102A00002678310049A000F03DFA002801D03500B9
:102A1000641C02A82A214554405C682807D120780C
:102A2000682804D1622002A92A228854641C0EA8B6
:102A300005902378019A02A9380000F0A9F8661CD5
:102A4000002858D10B980699401A0899401A0799FE
:102A5000401A0D9002A82821405C400710D4202085
:102A6000694608700D9800280ADD0D9C01236A460E
:102A700002A9380000F0A4F900283CD1641EF5D169
:102A8000069B0EAA02A9380000F09AF9002832D15C
:102A9000302069460870089C002C09DD01236A4635
:102AA00002A9380000F08CF9002824D1641EF5D169
:102AB000079B049A02A9380000F082F900281AD175
:102AC00002A82821405C400700D42DE72020694659
:102AD00008700D98002800DC26E70D9C019D01235D
:102AE0006A4602A9380000F06BF9002803D1641E81
:102AF00000D10BE7F3E70020C04315B0F0BD2A2852
:102B000000D039E70198016801600868091D019B40
:102B100019600B90002804D541420B91100004224B
:102B20000243641C3AE70000CBCCCC0C686C747A8E
:102B30004C000000622810D0682801D06C2819E0F1
:102B4000002A0A680A60106803D0121D0A6000B2E9
:102B500017E0121D0A6080B217E0002A0A680A60B6
:102B6000106803D0121D0A6040B20AE0121D0A600C
:102B7000C0B20AE0002A0A680A60106803D0121D79
:102B80000A60C1177047121D0A60002170470000DB
:102B900070B50C0011001E00E568252E00D185E0FF
:102BA000582E37D0632E0ED0642E16D0692E14D036
:102BB0006F2E2FD0702E4AD0732E54D0752E29D060
:102BC000782E27D078E02069421C22610A680A60CA
:102BD0001368121D0A602B5478E001222A20205C21
:102BE000FFF7A8FF2060002804D52069411C21615F
:102BF0002D210DE0208D810704D52069411C216124
:102C00002B2105E0C0071DD52069411C2161202131
:102C1000295417E000222A20205CFFF78BFF206058
:102C20002820205C00070DD5206800280AD020202D
:102C30003043782806D1206930212954401C411C9A
:102C400021612E5420692818A060310007E008682F
:102C500008600268001D08602260A56078212000DD
:102C600000F036F832E0086808600568001D08606A
:102C7000A560002D07D10024E44300BF5DA000F053
:102C80000DF9201A70BD266A002E03D5280000F029
:102C900029F909E032000021280000F02BF9002872
:102CA00001D0401B00E0300060610FE02069411C52
:102CB00021612521295409E02169481C2061252230
:102CC0006A54310002D0411C21612E54002070BD95
:102CD000F0B583B00A00C4686F2901D1082506E069
:102CE00020211143782901D00A2500E0102518275A
:102CF00001680E00642A01D0692A03D1002901D598
:102D000071420E00002E1FD1016A00291CD1082D2E
:102D100044D12821415C090740D517273021E175AE
:102D20003CE0002A0ED52822825C14231340102B8D
:102D300008D1426A0369D21A8369D21A511A012949
:102D400000DB816103B0F0BD0290684602707F1E17
:102D500001973000290000F0D9F83031C8B23A2884
:102D600003DB6846007851380918E1553000290026
:102D700000F0CCF8060004D002988068E11988427F
:102D8000E5D30298082D09D12821415C090705D512
:102D9000E15D302902D07F1E3021E1551821C91B89
:102DA0004161E2198260026A9142BADA511A816184
:102DB000018D024A0A400285C4E70000EFFF0000CF
:102DC000F8B50024002B13D007000E0014001D00DE
:102DD00021787068B8477060002807D0F069401CFF
:102DE000F061641C6D1EF3D1002401E00024E44373
:102DF0002000F2BD7072696E74665F733A20626182
:102E00006420257320617267756D656E7400000023
:102E100080B501218020C003FFF7AFFC01BD00B5E4
:102E200013480068400201D4012000E0002000BDEA
:102E300080B51048FFF75EFA0D480068400201D5E2
:102E4000002002E000F0E0F8012002BD80B564201F
:102E500000F0B4F8012000F0E9F801BD80B50120D0
:102E600005490870FEF7C8FC00F0ABF801BD000092
:102E7000C4100040D43900004310004080B5FEF774
:102E8000CCFD02BD00BFC9B200E0401C02788A42FE
:102E900002D0002AF9D100207047FEE780B5002853
:102EA00001D100BF07A006490B68002B03D02222E6
:102EB0000021984701E000F0F9F8222002BD00004F
:102EC0007C1F0020636F6E73747261696E7420687A
:102ED000616E646C65723A20626164206D65737323
:102EE00061676500010000E0491C0A78002AFBD1F7
:102EF000081A7047C9B201E0401C521E002A03D0D4
:102F000003788B42F8D17047002070470022030AF3
:102F10008B420BD203098B4219D243088B422ED22B
:102F2000411A00D20146524110467047FF22090261
:102F30003FD012068B4205D3121209028B4201D3F5
:102F40001212090203098B4219D300E0090AC309CE
:102F50008B4201D3CB01C01A524183098B4201D36A
:102F60008B01C01A524143098B4201D34B01C01A55
:102F7000524103098B4201D30B01C01A5241C308CD
:102F80008B4201D3CB00C01A524183088B4201D33C
:102F90008B00C01A524143088B4201D34B00C01A28
:102FA0005241884200D3401A5241CFD201461046C6
:102FB000704708B500F080F808BDFEE716490880A4
:102FC000704710B5FEF729FD144C216888421AD3CA
:102FD00013480178002908D10121017011480168C6
:102FE000802212020A43026007E0002101700E48AD
:102FF0000168802212020A430260FEF70EFD0649B4
:1030000009884018206010BD07480168802212021C
:103010000A43026070470000801F0020381F002014
:103020008D1F0020AC100040A810004000B50B49D7
:1030300057220A70A8220A70C0B2002805D1084899
:103040000278FD231340037004E005480278022350
:10305000134303700020087000BD000040100040C2
:103060004610004000B5002207E000BF00BF0B0083
:10307000591E9BB2002BF8D1521C1100030089B2DB
:103080009BB2994201D20221F1E700BD38B505009B
:10309000002404E0FA208000FFF7E4FF641C200015
:1030A000290080B289B28842F4D331BD80B50120B5
:1030B00000F004F801BD00007047000080B500BFBB
:1030C00000BF024A11001820ABBEFBE72600020039
:1030D0005D4857210170A821017088205B49088054
:1030E000704700B5C0B2002812D002282CD01DD3E2
:1030F00004283CD032D306284CD042D308285BD0D9
:1031000051D30A286BD061D30C287CD071D383E0D3
:103110004D4857210170A82101704D480178FB22CC
:103120000A400270C8204949088075E04648572186
:103130000170A82101704648017804220A430270F8
:10314000C8204249088067E03F4857210170A82104
:103150000170A22080003D4908805DE03A48572177
:103160000170A82101703B483849088054E0364876
:1031700057210170A8210170812080003349088007
:103180004AE0314857210170A821017088202F4959
:10319000088041E02C4857210170A82101700220CD
:1031A0002A49088038E0284857210170A821017079
:1031B0000420264908802FE0234857210170A821C8
:1031C0000170932080002149088025E01E48572186
:1031D0000170A821017020481C4908801CE01A4891
:1031E00057210170A821017095208000174908809F
:1031F00012E0154857210170A82101709620800027
:103200001249088008E0104857210170A821017078
:1032100012480E490880FFE700BD00B50A49572251
:103220000A70A8220A70C0B2002805D10748018898
:103230000B4A0A40028005E004480188802292007F
:103240000A43028000BD000040100040081000400A
:103250002F100040020200004F0200005E0200003A
:10326000FFFD000080B5522234493548FFF742F88F
:1032700001BD80B533480068804701BD80B5324844
:103280000068804701BD80B530480068804701BDB7
:1032900080B52F480068804701BD80B52D48006883
:1032A000804701BD80B52C480068804701BD80B5CE
:1032B0002A480068804701BD80B5294800688047DA
:1032C00001BD80B527480068804701BD80B526480C
:1032D0000068804701BD80B524480068804701BD73
:1032E00080B523480068804701BD80B5214800684B
:1032F000804701BD80B58120C0010068804701BDC5
:1033000080B51D480068804701BD80B51B48006836
:10331000804701BD80B51A480068804701BD80B56F
:1033200018480068804701BD80B51748006880478D
:1033300001BD80B515480068804701BD8C3A00008A
:10334000983A00005C400000444000004840000003
:103350004C40000054400000504000005840000025
:1033600060400000644000007040000074400000B5
:10337000784000007C40000084400000884000004D
:103380008C40000040400000684000006C4000009D
:103390000040000000080000080000000048000095
:1033A00000080000090000000050000000080000B4
:1033B0000A00000000580000000800000B00000098
:1033C00000600000000800000C0000000068000021
:1033D000000800000D000000007000000008000060
:1033E0000E00000000780000000800000F00000040
:1033F00000800000008000001000000000000100BC
:10340000008000001100000000800100008000002A
:103410001200000000000200008000001300000005
:103420000080020000800000140000000000030083
:10343000008000001500000000800300006800000C
:103440001600000010B50024E120400200F00EF844
:103450008720154908700320204314490870402034
:103460001349087001201349087010BD00B5010010
:103470001148FFF74BFD401D0A21FFF747FD0F499B
:10348000088000BD08490A789206920E8001104318
:103490000870704700B501000A4A117008490978A0
:1034A000C9B20829FAD000BD0234004003340040FC
:1034B000013400400E340040005A62020C340040D7
:1034C0000B3400400834004000B5C0B2002818D1C9
:1034D000184857220270A8220270080604D5164820
:1034E0000278FD2313400370144802781C230B401C
:1034F0009A430270124802788907890F8A43027042
:1035000017E00C4857220270A8220270080604D562
:1035100009480278022313430370084802781C23E9
:103520000B4013430370064802788907890F114343
:10353000017000BD401000400E1000400A10004015
:103540002F10004080B500F008F81A48FEF7D2FEB0
:1035500000F036F800F042F8FCE710B580242402B1
:1035600004212000FFF7C4F8134801680C430460ED
:1035700010210120FFF7A8FF0320FFF787FD02209D
:10358000FFF7AFFD0120FFF748FE8024A4000B48A1
:10359000016821430160012180204000FFF7A8F865
:1035A00003212000FFF7A4F8FFF74CFF0020FFF7EE
:1035B00069FF10BD383A0000AC100040A810004070
:1035C00080B500F016F8FFF729F9FEF705FA00F0CC
:1035D00033F800F03DF800F059F801BD80B5FFF771
:1035E00021F9FEF710FA00F037F800F05BF801BDA2
:1035F000704780B500F057F801BD10B500F020F815
:10360000002802D100F036F815E0FFF711FC002881
:1036100002D100F02FF80EE000F02BF8FFF7E8FFE2
:10362000FEF7E9F900F010F8001D046800F03DF81D
:10363000A04700F01FF810BD80B500F039F801BDBB
:1036400080B500F03CF802BD80B500F060F802BD26
:1036500080B500F065F801BD80B569460948FDF701
:103660007FFE012804D1032007490870FDF788FE7A
:1036700001BD704780B5FDF768FE03200249087060
:1036800001BD0000441E00205000002080B5FFF75F
:10369000BFFBFFF7C4FB002801D1FFF7AEFF00F02E
:1036A00001F801BD704772B6704762B670470000FE
:1036B0000020C0431749086017490860704700B5EB
:1036C000002116480268126889180268121D1268E3
:1036D0008918026808321268891802680C32126868
:1036E0008918026810321268891802681432126848
:1036F000891802681832126889180068C03000689A
:103700000818002801D1012000E0002000BD034876
:1037100000687047481800204C1A002090330000C1
:103720000020074902000A70886402004323CA543B
:1037300002004423CA5202008A7048707047000099
:10374000F81D002070B40123002413E00168001D5F
:10375000194202D04D466D1E49190C60091D121FF9
:10376000042AFAD20D00960701D50C80AD1C1A4030
:1037700000D02C700268001D002AE7D170BC704791
:1037800030B501684118446862088A188368E40704
:103790000DD54C461B190AE00C7864B2491C0D7813
:1037A000491C1D705B1C002C05D5641CF9D191428D
:1037B000F2D10C3030BD641EF1D5F8E769703A20C3
:1037C0007061636B65742073686F727465722074C6
:1037D00068616E207265706F7274656420696E2016
:1037E0004950206865616465722E000069703A2056
:1037F000696E76616C69642076657273696F6E209C
:103800006F7220686561646572206C656E677468AC
:103810002E0000007463703A20676F742072657325
:1038200065742C2061626F7274696E6720636F6EBD
:103830006E656374696F6E2E0000000010B5074955
:1038400079441831064C7C44163404E0081D0A689B
:10385000891888470100A142F8D110BD500000002E
:103860006C0000007564703A206E6F206D617463A7
:1038700068696E6720636F6E6E656374696F6E2032
:10388000666F756E640000007463703A20666F7531
:103890006E64206E6F20756E7573656420636F6E45
:1038A0006E656374696F6E732E00000099FEFFFFF2
:1038B000501F00005400002000000000C5FEFFFF64
:1038C0001C0200006800000000000020476F742008
:1038D000495020416464726573733A2025642E2533
:1038E000642E25642E25640D0A000000466F756E57
:1038F00064206E616D65202573203D2025642E2592
:10390000642E25642E25640D0A00000000F00DF8D9
:10391000002801D0FFF792FF00BF00BF002000BFCA
:1039200000BFFFF70FFE00F002F80120704780B5DE
:1039300000F002F801BD000007463846FFF7BEFB65
:10394000FBE70000686F73743A7777772E71712EFA
:10395000636F6D2C204950203D2025730D0A000017
:1039600069703A206E6569746865722074637020AE
:103970006E6F722069636D702E00000069703A20CE
:10398000667261676D656E742064726F70706564D5
:103990002E00000069636D703A206E6F74206963B9
:1039A0006D70206563686F2E0000000038B505005B
:1039B0000C00200000F006F8A04200D000252800EE
:1039C00032BD000080B50249FFF764FD02BD00BFB3
:1039D00008000020676F746F207573657220707225
:1039E0006F6772616D0D0A00486F73742025732034
:1039F0006E6F7420666F756E640D0A0069703A20F0
:103A000062616420636865636B73756D2E000000EE
:103A10007564703A2062616420636865636B7375D6
:103A20006D2E00007463703A2062616420636865E3
:103A3000636B73756D2E0000426F6F7420506F774B
:103A40006572206F6E0D0A007265736F6C765F662B
:103A50006F756E6400000000014880470148004710
:103A6000D1300000A53A000025732C2025640D0AF2
:103A70000000000025642E25642E25642E25640098
:103A80007777772E71712E636F6D00004E4D495F11
:103A900048616E646C65720025732C2025640D0AE4
:103AA0000000000000BF00BF00BF00BFFFF72EFFF7
:103AB00084C2E4020304000025730D0A0000000024
:103AC000FFFFFFFFFFFF0000ADDE122363825363A1
:103AD000FFFFFFFF00000000FFFFFFFF04000001E9
:103AE0000001FD001302040101A81D0020F81D00C3
:103AF00020A81D0020A81D0020FC0003A81D0020F8
:103B0000FC00074C00002038000020E00001040108
:0400000500003AA518
:00000001FF
